{
	"blockmonkey/ReviewDapp/Test.sol": {
		"Test": {
			"abi": [
				{
					"inputs": [
						{
							"internalType": "uint256",
							"name": "",
							"type": "uint256"
						}
					],
					"name": "Review_mapping",
					"outputs": [
						{
							"internalType": "uint256",
							"name": "id",
							"type": "uint256"
						},
						{
							"internalType": "string",
							"name": "title",
							"type": "string"
						},
						{
							"internalType": "string",
							"name": "description",
							"type": "string"
						},
						{
							"internalType": "string",
							"name": "writer",
							"type": "string"
						}
					],
					"stateMutability": "view",
					"type": "function"
				},
				{
					"inputs": [
						{
							"internalType": "string",
							"name": "_title",
							"type": "string"
						},
						{
							"internalType": "string",
							"name": "_des",
							"type": "string"
						},
						{
							"internalType": "string",
							"name": "_writer",
							"type": "string"
						}
					],
					"name": "create",
					"outputs": [],
					"stateMutability": "nonpayable",
					"type": "function"
				},
				{
					"inputs": [
						{
							"internalType": "uint256",
							"name": "_idx",
							"type": "uint256"
						}
					],
					"name": "get",
					"outputs": [
						{
							"internalType": "uint256",
							"name": "",
							"type": "uint256"
						},
						{
							"internalType": "string",
							"name": "",
							"type": "string"
						},
						{
							"internalType": "string",
							"name": "",
							"type": "string"
						},
						{
							"internalType": "string",
							"name": "",
							"type": "string"
						}
					],
					"stateMutability": "view",
					"type": "function"
				}
			],
			"devdoc": {
				"kind": "dev",
				"methods": {},
				"version": 1
			},
			"evm": {
				"assembly": "    /* \"blockmonkey/ReviewDapp/Test.sol\":58:832  contract Test {... */\n  mstore(0x40, 0x80)\n    /* \"blockmonkey/ReviewDapp/Test.sol\":214:215  1 */\n  0x01\n    /* \"blockmonkey/ReviewDapp/Test.sol\":195:215  uint TotalSupply = 1 */\n  0x00\n  sstore\n    /* \"blockmonkey/ReviewDapp/Test.sol\":58:832  contract Test {... */\n  callvalue\n  dup1\n  iszero\n  tag_1\n  jumpi\n  0x00\n  dup1\n  revert\ntag_1:\n  pop\n  dataSize(sub_0)\n  dup1\n  dataOffset(sub_0)\n  0x00\n  codecopy\n  0x00\n  return\nstop\n\nsub_0: assembly {\n        /* \"blockmonkey/ReviewDapp/Test.sol\":58:832  contract Test {... */\n      mstore(0x40, 0x80)\n      callvalue\n      dup1\n      iszero\n      tag_1\n      jumpi\n      0x00\n      dup1\n      revert\n    tag_1:\n      pop\n      jumpi(tag_2, lt(calldatasize, 0x04))\n      shr(0xe0, calldataload(0x00))\n      dup1\n      0x04d8e033\n      eq\n      tag_3\n      jumpi\n      dup1\n      0x5d28560a\n      eq\n      tag_4\n      jumpi\n      dup1\n      0x9507d39a\n      eq\n      tag_5\n      jumpi\n    tag_2:\n      0x00\n      dup1\n      revert\n        /* \"blockmonkey/ReviewDapp/Test.sol\":221:267  mapping (uint => Review) public Review_mapping */\n    tag_3:\n      tag_6\n      0x04\n      dup1\n      calldatasize\n      sub\n      dup2\n      add\n      swap1\n      tag_7\n      swap2\n      swap1\n      tag_8\n      jump\t// in\n    tag_7:\n      tag_9\n      jump\t// in\n    tag_6:\n      mload(0x40)\n      tag_10\n      swap5\n      swap4\n      swap3\n      swap2\n      swap1\n      tag_11\n      jump\t// in\n    tag_10:\n      mload(0x40)\n      dup1\n      swap2\n      sub\n      swap1\n      return\n        /* \"blockmonkey/ReviewDapp/Test.sol\":274:573  function create(string memory _title, string memory _des, string memory _writer) public {... */\n    tag_4:\n      tag_12\n      0x04\n      dup1\n      calldatasize\n      sub\n      dup2\n      add\n      swap1\n      tag_13\n      swap2\n      swap1\n      tag_14\n      jump\t// in\n    tag_13:\n      tag_15\n      jump\t// in\n    tag_12:\n      stop\n        /* \"blockmonkey/ReviewDapp/Test.sol\":579:830  function get(uint _idx) public view returns(uint, string memory, string memory, string memory){... */\n    tag_5:\n      tag_16\n      0x04\n      dup1\n      calldatasize\n      sub\n      dup2\n      add\n      swap1\n      tag_17\n      swap2\n      swap1\n      tag_8\n      jump\t// in\n    tag_17:\n      tag_18\n      jump\t// in\n    tag_16:\n      mload(0x40)\n      tag_19\n      swap5\n      swap4\n      swap3\n      swap2\n      swap1\n      tag_11\n      jump\t// in\n    tag_19:\n      mload(0x40)\n      dup1\n      swap2\n      sub\n      swap1\n      return\n        /* \"blockmonkey/ReviewDapp/Test.sol\":221:267  mapping (uint => Review) public Review_mapping */\n    tag_9:\n      mstore(0x20, 0x01)\n      dup1\n      0x00\n      mstore\n      keccak256(0x00, 0x40)\n      0x00\n      swap2\n      pop\n      swap1\n      pop\n      dup1\n      0x00\n      add\n      sload\n      swap1\n      dup1\n      0x01\n      add\n      dup1\n      sload\n      tag_20\n      swap1\n      tag_21\n      jump\t// in\n    tag_20:\n      dup1\n      0x1f\n      add\n      0x20\n      dup1\n      swap2\n      div\n      mul\n      0x20\n      add\n      mload(0x40)\n      swap1\n      dup2\n      add\n      0x40\n      mstore\n      dup1\n      swap3\n      swap2\n      swap1\n      dup2\n      dup2\n      mstore\n      0x20\n      add\n      dup3\n      dup1\n      sload\n      tag_22\n      swap1\n      tag_21\n      jump\t// in\n    tag_22:\n      dup1\n      iszero\n      tag_23\n      jumpi\n      dup1\n      0x1f\n      lt\n      tag_24\n      jumpi\n      0x0100\n      dup1\n      dup4\n      sload\n      div\n      mul\n      dup4\n      mstore\n      swap2\n      0x20\n      add\n      swap2\n      jump(tag_23)\n    tag_24:\n      dup3\n      add\n      swap2\n      swap1\n      0x00\n      mstore\n      keccak256(0x00, 0x20)\n      swap1\n    tag_25:\n      dup2\n      sload\n      dup2\n      mstore\n      swap1\n      0x01\n      add\n      swap1\n      0x20\n      add\n      dup1\n      dup4\n      gt\n      tag_25\n      jumpi\n      dup3\n      swap1\n      sub\n      0x1f\n      and\n      dup3\n      add\n      swap2\n    tag_23:\n      pop\n      pop\n      pop\n      pop\n      pop\n      swap1\n      dup1\n      0x02\n      add\n      dup1\n      sload\n      tag_26\n      swap1\n      tag_21\n      jump\t// in\n    tag_26:\n      dup1\n      0x1f\n      add\n      0x20\n      dup1\n      swap2\n      div\n      mul\n      0x20\n      add\n      mload(0x40)\n      swap1\n      dup2\n      add\n      0x40\n      mstore\n      dup1\n      swap3\n      swap2\n      swap1\n      dup2\n      dup2\n      mstore\n      0x20\n      add\n      dup3\n      dup1\n      sload\n      tag_27\n      swap1\n      tag_21\n      jump\t// in\n    tag_27:\n      dup1\n      iszero\n      tag_28\n      jumpi\n      dup1\n      0x1f\n      lt\n      tag_29\n      jumpi\n      0x0100\n      dup1\n      dup4\n      sload\n      div\n      mul\n      dup4\n      mstore\n      swap2\n      0x20\n      add\n      swap2\n      jump(tag_28)\n    tag_29:\n      dup3\n      add\n      swap2\n      swap1\n      0x00\n      mstore\n      keccak256(0x00, 0x20)\n      swap1\n    tag_30:\n      dup2\n      sload\n      dup2\n      mstore\n      swap1\n      0x01\n      add\n      swap1\n      0x20\n      add\n      dup1\n      dup4\n      gt\n      tag_30\n      jumpi\n      dup3\n      swap1\n      sub\n      0x1f\n      and\n      dup3\n      add\n      swap2\n    tag_28:\n      pop\n      pop\n      pop\n      pop\n      pop\n      swap1\n      dup1\n      0x03\n      add\n      dup1\n      sload\n      tag_31\n      swap1\n      tag_21\n      jump\t// in\n    tag_31:\n      dup1\n      0x1f\n      add\n      0x20\n      dup1\n      swap2\n      div\n      mul\n      0x20\n      add\n      mload(0x40)\n      swap1\n      dup2\n      add\n      0x40\n      mstore\n      dup1\n      swap3\n      swap2\n      swap1\n      dup2\n      dup2\n      mstore\n      0x20\n      add\n      dup3\n      dup1\n      sload\n      tag_32\n      swap1\n      tag_21\n      jump\t// in\n    tag_32:\n      dup1\n      iszero\n      tag_33\n      jumpi\n      dup1\n      0x1f\n      lt\n      tag_34\n      jumpi\n      0x0100\n      dup1\n      dup4\n      sload\n      div\n      mul\n      dup4\n      mstore\n      swap2\n      0x20\n      add\n      swap2\n      jump(tag_33)\n    tag_34:\n      dup3\n      add\n      swap2\n      swap1\n      0x00\n      mstore\n      keccak256(0x00, 0x20)\n      swap1\n    tag_35:\n      dup2\n      sload\n      dup2\n      mstore\n      swap1\n      0x01\n      add\n      swap1\n      0x20\n      add\n      dup1\n      dup4\n      gt\n      tag_35\n      jumpi\n      dup3\n      swap1\n      sub\n      0x1f\n      and\n      dup3\n      add\n      swap2\n    tag_33:\n      pop\n      pop\n      pop\n      pop\n      pop\n      swap1\n      pop\n      dup5\n      jump\t// out\n        /* \"blockmonkey/ReviewDapp/Test.sol\":274:573  function create(string memory _title, string memory _des, string memory _writer) public {... */\n    tag_15:\n        /* \"blockmonkey/ReviewDapp/Test.sol\":473:515  Review(TotalSupply, _title, _des, _writer) */\n      mload(0x40)\n      dup1\n      0x80\n      add\n      0x40\n      mstore\n      dup1\n        /* \"blockmonkey/ReviewDapp/Test.sol\":480:491  TotalSupply */\n      sload(0x00)\n        /* \"blockmonkey/ReviewDapp/Test.sol\":473:515  Review(TotalSupply, _title, _des, _writer) */\n      dup2\n      mstore\n      0x20\n      add\n        /* \"blockmonkey/ReviewDapp/Test.sol\":493:499  _title */\n      dup5\n        /* \"blockmonkey/ReviewDapp/Test.sol\":473:515  Review(TotalSupply, _title, _des, _writer) */\n      dup2\n      mstore\n      0x20\n      add\n        /* \"blockmonkey/ReviewDapp/Test.sol\":501:505  _des */\n      dup4\n        /* \"blockmonkey/ReviewDapp/Test.sol\":473:515  Review(TotalSupply, _title, _des, _writer) */\n      dup2\n      mstore\n      0x20\n      add\n        /* \"blockmonkey/ReviewDapp/Test.sol\":507:514  _writer */\n      dup3\n        /* \"blockmonkey/ReviewDapp/Test.sol\":473:515  Review(TotalSupply, _title, _des, _writer) */\n      dup2\n      mstore\n      pop\n        /* \"blockmonkey/ReviewDapp/Test.sol\":443:457  Review_mapping */\n      0x01\n        /* \"blockmonkey/ReviewDapp/Test.sol\":443:470  Review_mapping[TotalSupply] */\n      0x00\n        /* \"blockmonkey/ReviewDapp/Test.sol\":458:469  TotalSupply */\n      dup1\n      sload\n        /* \"blockmonkey/ReviewDapp/Test.sol\":443:470  Review_mapping[TotalSupply] */\n      dup2\n      mstore\n      0x20\n      add\n      swap1\n      dup2\n      mstore\n      0x20\n      add\n      0x00\n      keccak256\n        /* \"blockmonkey/ReviewDapp/Test.sol\":443:515  Review_mapping[TotalSupply] = Review(TotalSupply, _title, _des, _writer) */\n      0x00\n      dup3\n      add\n      mload\n      dup2\n      0x00\n      add\n      sstore\n      0x20\n      dup3\n      add\n      mload\n      dup2\n      0x01\n      add\n      swap1\n      dup1\n      mload\n      swap1\n      0x20\n      add\n      swap1\n      tag_37\n      swap3\n      swap2\n      swap1\n      tag_38\n      jump\t// in\n    tag_37:\n      pop\n      0x40\n      dup3\n      add\n      mload\n      dup2\n      0x02\n      add\n      swap1\n      dup1\n      mload\n      swap1\n      0x20\n      add\n      swap1\n      tag_39\n      swap3\n      swap2\n      swap1\n      tag_38\n      jump\t// in\n    tag_39:\n      pop\n      0x60\n      dup3\n      add\n      mload\n      dup2\n      0x03\n      add\n      swap1\n      dup1\n      mload\n      swap1\n      0x20\n      add\n      swap1\n      tag_40\n      swap3\n      swap2\n      swap1\n      tag_38\n      jump\t// in\n    tag_40:\n      pop\n      swap1\n      pop\n      pop\n        /* \"blockmonkey/ReviewDapp/Test.sol\":553:564  TotalSupply */\n      0x00\n      dup1\n        /* \"blockmonkey/ReviewDapp/Test.sol\":553:566  TotalSupply++ */\n      dup2\n      sload\n      dup1\n      swap3\n      swap2\n      swap1\n      tag_41\n      swap1\n      tag_42\n      jump\t// in\n    tag_41:\n      swap2\n      swap1\n      pop\n      sstore\n      pop\n        /* \"blockmonkey/ReviewDapp/Test.sol\":274:573  function create(string memory _title, string memory _des, string memory _writer) public {... */\n      pop\n      pop\n      pop\n      jump\t// out\n        /* \"blockmonkey/ReviewDapp/Test.sol\":579:830  function get(uint _idx) public view returns(uint, string memory, string memory, string memory){... */\n    tag_18:\n        /* \"blockmonkey/ReviewDapp/Test.sol\":623:627  uint */\n      0x00\n        /* \"blockmonkey/ReviewDapp/Test.sol\":629:642  string memory */\n      0x60\n        /* \"blockmonkey/ReviewDapp/Test.sol\":644:657  string memory */\n      dup1\n        /* \"blockmonkey/ReviewDapp/Test.sol\":659:672  string memory */\n      0x60\n        /* \"blockmonkey/ReviewDapp/Test.sol\":708:722  Review_mapping */\n      0x01\n        /* \"blockmonkey/ReviewDapp/Test.sol\":708:728  Review_mapping[_idx] */\n      0x00\n        /* \"blockmonkey/ReviewDapp/Test.sol\":723:727  _idx */\n      dup7\n        /* \"blockmonkey/ReviewDapp/Test.sol\":708:728  Review_mapping[_idx] */\n      dup2\n      mstore\n      0x20\n      add\n      swap1\n      dup2\n      mstore\n      0x20\n      add\n      0x00\n      keccak256\n        /* \"blockmonkey/ReviewDapp/Test.sol\":708:731  Review_mapping[_idx].id */\n      0x00\n      add\n      sload\n        /* \"blockmonkey/ReviewDapp/Test.sol\":733:747  Review_mapping */\n      0x01\n        /* \"blockmonkey/ReviewDapp/Test.sol\":733:753  Review_mapping[_idx] */\n      0x00\n        /* \"blockmonkey/ReviewDapp/Test.sol\":748:752  _idx */\n      dup8\n        /* \"blockmonkey/ReviewDapp/Test.sol\":733:753  Review_mapping[_idx] */\n      dup2\n      mstore\n      0x20\n      add\n      swap1\n      dup2\n      mstore\n      0x20\n      add\n      0x00\n      keccak256\n        /* \"blockmonkey/ReviewDapp/Test.sol\":733:759  Review_mapping[_idx].title */\n      0x01\n      add\n        /* \"blockmonkey/ReviewDapp/Test.sol\":761:775  Review_mapping */\n      0x01\n        /* \"blockmonkey/ReviewDapp/Test.sol\":761:781  Review_mapping[_idx] */\n      0x00\n        /* \"blockmonkey/ReviewDapp/Test.sol\":776:780  _idx */\n      dup9\n        /* \"blockmonkey/ReviewDapp/Test.sol\":761:781  Review_mapping[_idx] */\n      dup2\n      mstore\n      0x20\n      add\n      swap1\n      dup2\n      mstore\n      0x20\n      add\n      0x00\n      keccak256\n        /* \"blockmonkey/ReviewDapp/Test.sol\":761:793  Review_mapping[_idx].description */\n      0x02\n      add\n        /* \"blockmonkey/ReviewDapp/Test.sol\":795:809  Review_mapping */\n      0x01\n        /* \"blockmonkey/ReviewDapp/Test.sol\":795:815  Review_mapping[_idx] */\n      0x00\n        /* \"blockmonkey/ReviewDapp/Test.sol\":810:814  _idx */\n      dup10\n        /* \"blockmonkey/ReviewDapp/Test.sol\":795:815  Review_mapping[_idx] */\n      dup2\n      mstore\n      0x20\n      add\n      swap1\n      dup2\n      mstore\n      0x20\n      add\n      0x00\n      keccak256\n        /* \"blockmonkey/ReviewDapp/Test.sol\":795:822  Review_mapping[_idx].writer */\n      0x03\n      add\n        /* \"blockmonkey/ReviewDapp/Test.sol\":701:823  return(Review_mapping[_idx].id, Review_mapping[_idx].title, Review_mapping[_idx].description, Review_mapping[_idx].writer) */\n      dup3\n      dup1\n      sload\n      tag_44\n      swap1\n      tag_21\n      jump\t// in\n    tag_44:\n      dup1\n      0x1f\n      add\n      0x20\n      dup1\n      swap2\n      div\n      mul\n      0x20\n      add\n      mload(0x40)\n      swap1\n      dup2\n      add\n      0x40\n      mstore\n      dup1\n      swap3\n      swap2\n      swap1\n      dup2\n      dup2\n      mstore\n      0x20\n      add\n      dup3\n      dup1\n      sload\n      tag_45\n      swap1\n      tag_21\n      jump\t// in\n    tag_45:\n      dup1\n      iszero\n      tag_46\n      jumpi\n      dup1\n      0x1f\n      lt\n      tag_47\n      jumpi\n      0x0100\n      dup1\n      dup4\n      sload\n      div\n      mul\n      dup4\n      mstore\n      swap2\n      0x20\n      add\n      swap2\n      jump(tag_46)\n    tag_47:\n      dup3\n      add\n      swap2\n      swap1\n      0x00\n      mstore\n      keccak256(0x00, 0x20)\n      swap1\n    tag_48:\n      dup2\n      sload\n      dup2\n      mstore\n      swap1\n      0x01\n      add\n      swap1\n      0x20\n      add\n      dup1\n      dup4\n      gt\n      tag_48\n      jumpi\n      dup3\n      swap1\n      sub\n      0x1f\n      and\n      dup3\n      add\n      swap2\n    tag_46:\n      pop\n      pop\n      pop\n      pop\n      pop\n      swap3\n      pop\n      dup2\n      dup1\n      sload\n      tag_49\n      swap1\n      tag_21\n      jump\t// in\n    tag_49:\n      dup1\n      0x1f\n      add\n      0x20\n      dup1\n      swap2\n      div\n      mul\n      0x20\n      add\n      mload(0x40)\n      swap1\n      dup2\n      add\n      0x40\n      mstore\n      dup1\n      swap3\n      swap2\n      swap1\n      dup2\n      dup2\n      mstore\n      0x20\n      add\n      dup3\n      dup1\n      sload\n      tag_50\n      swap1\n      tag_21\n      jump\t// in\n    tag_50:\n      dup1\n      iszero\n      tag_51\n      jumpi\n      dup1\n      0x1f\n      lt\n      tag_52\n      jumpi\n      0x0100\n      dup1\n      dup4\n      sload\n      div\n      mul\n      dup4\n      mstore\n      swap2\n      0x20\n      add\n      swap2\n      jump(tag_51)\n    tag_52:\n      dup3\n      add\n      swap2\n      swap1\n      0x00\n      mstore\n      keccak256(0x00, 0x20)\n      swap1\n    tag_53:\n      dup2\n      sload\n      dup2\n      mstore\n      swap1\n      0x01\n      add\n      swap1\n      0x20\n      add\n      dup1\n      dup4\n      gt\n      tag_53\n      jumpi\n      dup3\n      swap1\n      sub\n      0x1f\n      and\n      dup3\n      add\n      swap2\n    tag_51:\n      pop\n      pop\n      pop\n      pop\n      pop\n      swap2\n      pop\n      dup1\n      dup1\n      sload\n      tag_54\n      swap1\n      tag_21\n      jump\t// in\n    tag_54:\n      dup1\n      0x1f\n      add\n      0x20\n      dup1\n      swap2\n      div\n      mul\n      0x20\n      add\n      mload(0x40)\n      swap1\n      dup2\n      add\n      0x40\n      mstore\n      dup1\n      swap3\n      swap2\n      swap1\n      dup2\n      dup2\n      mstore\n      0x20\n      add\n      dup3\n      dup1\n      sload\n      tag_55\n      swap1\n      tag_21\n      jump\t// in\n    tag_55:\n      dup1\n      iszero\n      tag_56\n      jumpi\n      dup1\n      0x1f\n      lt\n      tag_57\n      jumpi\n      0x0100\n      dup1\n      dup4\n      sload\n      div\n      mul\n      dup4\n      mstore\n      swap2\n      0x20\n      add\n      swap2\n      jump(tag_56)\n    tag_57:\n      dup3\n      add\n      swap2\n      swap1\n      0x00\n      mstore\n      keccak256(0x00, 0x20)\n      swap1\n    tag_58:\n      dup2\n      sload\n      dup2\n      mstore\n      swap1\n      0x01\n      add\n      swap1\n      0x20\n      add\n      dup1\n      dup4\n      gt\n      tag_58\n      jumpi\n      dup3\n      swap1\n      sub\n      0x1f\n      and\n      dup3\n      add\n      swap2\n    tag_56:\n      pop\n      pop\n      pop\n      pop\n      pop\n      swap1\n      pop\n      swap4\n      pop\n      swap4\n      pop\n      swap4\n      pop\n      swap4\n      pop\n        /* \"blockmonkey/ReviewDapp/Test.sol\":579:830  function get(uint _idx) public view returns(uint, string memory, string memory, string memory){... */\n      swap2\n      swap4\n      pop\n      swap2\n      swap4\n      jump\t// out\n    tag_38:\n      dup3\n      dup1\n      sload\n      tag_59\n      swap1\n      tag_21\n      jump\t// in\n    tag_59:\n      swap1\n      0x00\n      mstore\n      keccak256(0x00, 0x20)\n      swap1\n      0x1f\n      add\n      0x20\n      swap1\n      div\n      dup2\n      add\n      swap3\n      dup3\n      tag_61\n      jumpi\n      0x00\n      dup6\n      sstore\n      jump(tag_60)\n    tag_61:\n      dup3\n      0x1f\n      lt\n      tag_62\n      jumpi\n      dup1\n      mload\n      not(0xff)\n      and\n      dup4\n      dup1\n      add\n      or\n      dup6\n      sstore\n      jump(tag_60)\n    tag_62:\n      dup3\n      dup1\n      add\n      0x01\n      add\n      dup6\n      sstore\n      dup3\n      iszero\n      tag_60\n      jumpi\n      swap2\n      dup3\n      add\n    tag_63:\n      dup3\n      dup2\n      gt\n      iszero\n      tag_64\n      jumpi\n      dup3\n      mload\n      dup3\n      sstore\n      swap2\n      0x20\n      add\n      swap2\n      swap1\n      0x01\n      add\n      swap1\n      jump(tag_63)\n    tag_64:\n    tag_60:\n      pop\n      swap1\n      pop\n      tag_65\n      swap2\n      swap1\n      tag_66\n      jump\t// in\n    tag_65:\n      pop\n      swap1\n      jump\t// out\n    tag_66:\n    tag_67:\n      dup1\n      dup3\n      gt\n      iszero\n      tag_68\n      jumpi\n      0x00\n      dup2\n      0x00\n      swap1\n      sstore\n      pop\n      0x01\n      add\n      jump(tag_67)\n    tag_68:\n      pop\n      swap1\n      jump\t// out\n        /* \"#utility.yul\":7:419   */\n    tag_70:\n        /* \"#utility.yul\":85:90   */\n      0x00\n        /* \"#utility.yul\":110:176   */\n      tag_72\n        /* \"#utility.yul\":126:175   */\n      tag_73\n        /* \"#utility.yul\":168:174   */\n      dup5\n        /* \"#utility.yul\":126:175   */\n      tag_74\n      jump\t// in\n    tag_73:\n        /* \"#utility.yul\":110:176   */\n      tag_75\n      jump\t// in\n    tag_72:\n        /* \"#utility.yul\":101:176   */\n      swap1\n      pop\n        /* \"#utility.yul\":199:205   */\n      dup3\n        /* \"#utility.yul\":192:197   */\n      dup2\n        /* \"#utility.yul\":185:206   */\n      mstore\n        /* \"#utility.yul\":237:241   */\n      0x20\n        /* \"#utility.yul\":230:235   */\n      dup2\n        /* \"#utility.yul\":226:242   */\n      add\n        /* \"#utility.yul\":275:278   */\n      dup5\n        /* \"#utility.yul\":266:272   */\n      dup5\n        /* \"#utility.yul\":261:264   */\n      dup5\n        /* \"#utility.yul\":257:273   */\n      add\n        /* \"#utility.yul\":254:279   */\n      gt\n        /* \"#utility.yul\":251:363   */\n      iszero\n      tag_76\n      jumpi\n        /* \"#utility.yul\":282:361   */\n      tag_77\n      tag_78\n      jump\t// in\n    tag_77:\n        /* \"#utility.yul\":251:363   */\n    tag_76:\n        /* \"#utility.yul\":372:413   */\n      tag_79\n        /* \"#utility.yul\":406:412   */\n      dup5\n        /* \"#utility.yul\":401:404   */\n      dup3\n        /* \"#utility.yul\":396:399   */\n      dup6\n        /* \"#utility.yul\":372:413   */\n      tag_80\n      jump\t// in\n    tag_79:\n        /* \"#utility.yul\":91:419   */\n      pop\n        /* \"#utility.yul\":7:419   */\n      swap4\n      swap3\n      pop\n      pop\n      pop\n      jump\t// out\n        /* \"#utility.yul\":439:779   */\n    tag_81:\n        /* \"#utility.yul\":495:500   */\n      0x00\n        /* \"#utility.yul\":544:547   */\n      dup3\n        /* \"#utility.yul\":537:541   */\n      0x1f\n        /* \"#utility.yul\":529:535   */\n      dup4\n        /* \"#utility.yul\":525:542   */\n      add\n        /* \"#utility.yul\":521:548   */\n      slt\n        /* \"#utility.yul\":511:633   */\n      tag_83\n      jumpi\n        /* \"#utility.yul\":552:631   */\n      tag_84\n      tag_85\n      jump\t// in\n    tag_84:\n        /* \"#utility.yul\":511:633   */\n    tag_83:\n        /* \"#utility.yul\":669:675   */\n      dup2\n        /* \"#utility.yul\":656:676   */\n      calldataload\n        /* \"#utility.yul\":694:773   */\n      tag_86\n        /* \"#utility.yul\":769:772   */\n      dup5\n        /* \"#utility.yul\":761:767   */\n      dup3\n        /* \"#utility.yul\":754:758   */\n      0x20\n        /* \"#utility.yul\":746:752   */\n      dup7\n        /* \"#utility.yul\":742:759   */\n      add\n        /* \"#utility.yul\":694:773   */\n      tag_70\n      jump\t// in\n    tag_86:\n        /* \"#utility.yul\":685:773   */\n      swap2\n      pop\n        /* \"#utility.yul\":501:779   */\n      pop\n        /* \"#utility.yul\":439:779   */\n      swap3\n      swap2\n      pop\n      pop\n      jump\t// out\n        /* \"#utility.yul\":785:924   */\n    tag_87:\n        /* \"#utility.yul\":831:836   */\n      0x00\n        /* \"#utility.yul\":869:875   */\n      dup2\n        /* \"#utility.yul\":856:876   */\n      calldataload\n        /* \"#utility.yul\":847:876   */\n      swap1\n      pop\n        /* \"#utility.yul\":885:918   */\n      tag_89\n        /* \"#utility.yul\":912:917   */\n      dup2\n        /* \"#utility.yul\":885:918   */\n      tag_90\n      jump\t// in\n    tag_89:\n        /* \"#utility.yul\":785:924   */\n      swap3\n      swap2\n      pop\n      pop\n      jump\t// out\n        /* \"#utility.yul\":930:2089   */\n    tag_14:\n        /* \"#utility.yul\":1037:1043   */\n      0x00\n        /* \"#utility.yul\":1045:1051   */\n      dup1\n        /* \"#utility.yul\":1053:1059   */\n      0x00\n        /* \"#utility.yul\":1102:1104   */\n      0x60\n        /* \"#utility.yul\":1090:1099   */\n      dup5\n        /* \"#utility.yul\":1081:1088   */\n      dup7\n        /* \"#utility.yul\":1077:1100   */\n      sub\n        /* \"#utility.yul\":1073:1105   */\n      slt\n        /* \"#utility.yul\":1070:1189   */\n      iszero\n      tag_92\n      jumpi\n        /* \"#utility.yul\":1108:1187   */\n      tag_93\n      tag_94\n      jump\t// in\n    tag_93:\n        /* \"#utility.yul\":1070:1189   */\n    tag_92:\n        /* \"#utility.yul\":1256:1257   */\n      0x00\n        /* \"#utility.yul\":1245:1254   */\n      dup5\n        /* \"#utility.yul\":1241:1258   */\n      add\n        /* \"#utility.yul\":1228:1259   */\n      calldataload\n        /* \"#utility.yul\":1286:1304   */\n      0xffffffffffffffff\n        /* \"#utility.yul\":1278:1284   */\n      dup2\n        /* \"#utility.yul\":1275:1305   */\n      gt\n        /* \"#utility.yul\":1272:1389   */\n      iszero\n      tag_95\n      jumpi\n        /* \"#utility.yul\":1308:1387   */\n      tag_96\n      tag_97\n      jump\t// in\n    tag_96:\n        /* \"#utility.yul\":1272:1389   */\n    tag_95:\n        /* \"#utility.yul\":1413:1476   */\n      tag_98\n        /* \"#utility.yul\":1468:1475   */\n      dup7\n        /* \"#utility.yul\":1459:1465   */\n      dup3\n        /* \"#utility.yul\":1448:1457   */\n      dup8\n        /* \"#utility.yul\":1444:1466   */\n      add\n        /* \"#utility.yul\":1413:1476   */\n      tag_81\n      jump\t// in\n    tag_98:\n        /* \"#utility.yul\":1403:1476   */\n      swap4\n      pop\n        /* \"#utility.yul\":1199:1486   */\n      pop\n        /* \"#utility.yul\":1553:1555   */\n      0x20\n        /* \"#utility.yul\":1542:1551   */\n      dup5\n        /* \"#utility.yul\":1538:1556   */\n      add\n        /* \"#utility.yul\":1525:1557   */\n      calldataload\n        /* \"#utility.yul\":1584:1602   */\n      0xffffffffffffffff\n        /* \"#utility.yul\":1576:1582   */\n      dup2\n        /* \"#utility.yul\":1573:1603   */\n      gt\n        /* \"#utility.yul\":1570:1687   */\n      iszero\n      tag_99\n      jumpi\n        /* \"#utility.yul\":1606:1685   */\n      tag_100\n      tag_97\n      jump\t// in\n    tag_100:\n        /* \"#utility.yul\":1570:1687   */\n    tag_99:\n        /* \"#utility.yul\":1711:1774   */\n      tag_101\n        /* \"#utility.yul\":1766:1773   */\n      dup7\n        /* \"#utility.yul\":1757:1763   */\n      dup3\n        /* \"#utility.yul\":1746:1755   */\n      dup8\n        /* \"#utility.yul\":1742:1764   */\n      add\n        /* \"#utility.yul\":1711:1774   */\n      tag_81\n      jump\t// in\n    tag_101:\n        /* \"#utility.yul\":1701:1774   */\n      swap3\n      pop\n        /* \"#utility.yul\":1496:1784   */\n      pop\n        /* \"#utility.yul\":1851:1853   */\n      0x40\n        /* \"#utility.yul\":1840:1849   */\n      dup5\n        /* \"#utility.yul\":1836:1854   */\n      add\n        /* \"#utility.yul\":1823:1855   */\n      calldataload\n        /* \"#utility.yul\":1882:1900   */\n      0xffffffffffffffff\n        /* \"#utility.yul\":1874:1880   */\n      dup2\n        /* \"#utility.yul\":1871:1901   */\n      gt\n        /* \"#utility.yul\":1868:1985   */\n      iszero\n      tag_102\n      jumpi\n        /* \"#utility.yul\":1904:1983   */\n      tag_103\n      tag_97\n      jump\t// in\n    tag_103:\n        /* \"#utility.yul\":1868:1985   */\n    tag_102:\n        /* \"#utility.yul\":2009:2072   */\n      tag_104\n        /* \"#utility.yul\":2064:2071   */\n      dup7\n        /* \"#utility.yul\":2055:2061   */\n      dup3\n        /* \"#utility.yul\":2044:2053   */\n      dup8\n        /* \"#utility.yul\":2040:2062   */\n      add\n        /* \"#utility.yul\":2009:2072   */\n      tag_81\n      jump\t// in\n    tag_104:\n        /* \"#utility.yul\":1999:2072   */\n      swap2\n      pop\n        /* \"#utility.yul\":1794:2082   */\n      pop\n        /* \"#utility.yul\":930:2089   */\n      swap3\n      pop\n      swap3\n      pop\n      swap3\n      jump\t// out\n        /* \"#utility.yul\":2095:2424   */\n    tag_8:\n        /* \"#utility.yul\":2154:2160   */\n      0x00\n        /* \"#utility.yul\":2203:2205   */\n      0x20\n        /* \"#utility.yul\":2191:2200   */\n      dup3\n        /* \"#utility.yul\":2182:2189   */\n      dup5\n        /* \"#utility.yul\":2178:2201   */\n      sub\n        /* \"#utility.yul\":2174:2206   */\n      slt\n        /* \"#utility.yul\":2171:2290   */\n      iszero\n      tag_106\n      jumpi\n        /* \"#utility.yul\":2209:2288   */\n      tag_107\n      tag_94\n      jump\t// in\n    tag_107:\n        /* \"#utility.yul\":2171:2290   */\n    tag_106:\n        /* \"#utility.yul\":2329:2330   */\n      0x00\n        /* \"#utility.yul\":2354:2407   */\n      tag_108\n        /* \"#utility.yul\":2399:2406   */\n      dup5\n        /* \"#utility.yul\":2390:2396   */\n      dup3\n        /* \"#utility.yul\":2379:2388   */\n      dup6\n        /* \"#utility.yul\":2375:2397   */\n      add\n        /* \"#utility.yul\":2354:2407   */\n      tag_87\n      jump\t// in\n    tag_108:\n        /* \"#utility.yul\":2344:2407   */\n      swap2\n      pop\n        /* \"#utility.yul\":2300:2417   */\n      pop\n        /* \"#utility.yul\":2095:2424   */\n      swap3\n      swap2\n      pop\n      pop\n      jump\t// out\n        /* \"#utility.yul\":2430:2794   */\n    tag_109:\n        /* \"#utility.yul\":2518:2521   */\n      0x00\n        /* \"#utility.yul\":2546:2585   */\n      tag_111\n        /* \"#utility.yul\":2579:2584   */\n      dup3\n        /* \"#utility.yul\":2546:2585   */\n      tag_112\n      jump\t// in\n    tag_111:\n        /* \"#utility.yul\":2601:2672   */\n      tag_113\n        /* \"#utility.yul\":2665:2671   */\n      dup2\n        /* \"#utility.yul\":2660:2663   */\n      dup6\n        /* \"#utility.yul\":2601:2672   */\n      tag_114\n      jump\t// in\n    tag_113:\n        /* \"#utility.yul\":2594:2672   */\n      swap4\n      pop\n        /* \"#utility.yul\":2681:2733   */\n      tag_115\n        /* \"#utility.yul\":2726:2732   */\n      dup2\n        /* \"#utility.yul\":2721:2724   */\n      dup6\n        /* \"#utility.yul\":2714:2718   */\n      0x20\n        /* \"#utility.yul\":2707:2712   */\n      dup7\n        /* \"#utility.yul\":2703:2719   */\n      add\n        /* \"#utility.yul\":2681:2733   */\n      tag_116\n      jump\t// in\n    tag_115:\n        /* \"#utility.yul\":2758:2787   */\n      tag_117\n        /* \"#utility.yul\":2780:2786   */\n      dup2\n        /* \"#utility.yul\":2758:2787   */\n      tag_118\n      jump\t// in\n    tag_117:\n        /* \"#utility.yul\":2753:2756   */\n      dup5\n        /* \"#utility.yul\":2749:2788   */\n      add\n        /* \"#utility.yul\":2742:2788   */\n      swap2\n      pop\n        /* \"#utility.yul\":2522:2794   */\n      pop\n        /* \"#utility.yul\":2430:2794   */\n      swap3\n      swap2\n      pop\n      pop\n      jump\t// out\n        /* \"#utility.yul\":2800:2918   */\n    tag_119:\n        /* \"#utility.yul\":2887:2911   */\n      tag_121\n        /* \"#utility.yul\":2905:2910   */\n      dup2\n        /* \"#utility.yul\":2887:2911   */\n      tag_122\n      jump\t// in\n    tag_121:\n        /* \"#utility.yul\":2882:2885   */\n      dup3\n        /* \"#utility.yul\":2875:2912   */\n      mstore\n        /* \"#utility.yul\":2800:2918   */\n      pop\n      pop\n      jump\t// out\n        /* \"#utility.yul\":2924:3750   */\n    tag_11:\n        /* \"#utility.yul\":3161:3165   */\n      0x00\n        /* \"#utility.yul\":3199:3202   */\n      0x80\n        /* \"#utility.yul\":3188:3197   */\n      dup3\n        /* \"#utility.yul\":3184:3203   */\n      add\n        /* \"#utility.yul\":3176:3203   */\n      swap1\n      pop\n        /* \"#utility.yul\":3213:3284   */\n      tag_124\n        /* \"#utility.yul\":3281:3282   */\n      0x00\n        /* \"#utility.yul\":3270:3279   */\n      dup4\n        /* \"#utility.yul\":3266:3283   */\n      add\n        /* \"#utility.yul\":3257:3263   */\n      dup8\n        /* \"#utility.yul\":3213:3284   */\n      tag_119\n      jump\t// in\n    tag_124:\n        /* \"#utility.yul\":3331:3340   */\n      dup2\n        /* \"#utility.yul\":3325:3329   */\n      dup2\n        /* \"#utility.yul\":3321:3341   */\n      sub\n        /* \"#utility.yul\":3316:3318   */\n      0x20\n        /* \"#utility.yul\":3305:3314   */\n      dup4\n        /* \"#utility.yul\":3301:3319   */\n      add\n        /* \"#utility.yul\":3294:3342   */\n      mstore\n        /* \"#utility.yul\":3359:3437   */\n      tag_125\n        /* \"#utility.yul\":3432:3436   */\n      dup2\n        /* \"#utility.yul\":3423:3429   */\n      dup7\n        /* \"#utility.yul\":3359:3437   */\n      tag_109\n      jump\t// in\n    tag_125:\n        /* \"#utility.yul\":3351:3437   */\n      swap1\n      pop\n        /* \"#utility.yul\":3484:3493   */\n      dup2\n        /* \"#utility.yul\":3478:3482   */\n      dup2\n        /* \"#utility.yul\":3474:3494   */\n      sub\n        /* \"#utility.yul\":3469:3471   */\n      0x40\n        /* \"#utility.yul\":3458:3467   */\n      dup4\n        /* \"#utility.yul\":3454:3472   */\n      add\n        /* \"#utility.yul\":3447:3495   */\n      mstore\n        /* \"#utility.yul\":3512:3590   */\n      tag_126\n        /* \"#utility.yul\":3585:3589   */\n      dup2\n        /* \"#utility.yul\":3576:3582   */\n      dup6\n        /* \"#utility.yul\":3512:3590   */\n      tag_109\n      jump\t// in\n    tag_126:\n        /* \"#utility.yul\":3504:3590   */\n      swap1\n      pop\n        /* \"#utility.yul\":3637:3646   */\n      dup2\n        /* \"#utility.yul\":3631:3635   */\n      dup2\n        /* \"#utility.yul\":3627:3647   */\n      sub\n        /* \"#utility.yul\":3622:3624   */\n      0x60\n        /* \"#utility.yul\":3611:3620   */\n      dup4\n        /* \"#utility.yul\":3607:3625   */\n      add\n        /* \"#utility.yul\":3600:3648   */\n      mstore\n        /* \"#utility.yul\":3665:3743   */\n      tag_127\n        /* \"#utility.yul\":3738:3742   */\n      dup2\n        /* \"#utility.yul\":3729:3735   */\n      dup5\n        /* \"#utility.yul\":3665:3743   */\n      tag_109\n      jump\t// in\n    tag_127:\n        /* \"#utility.yul\":3657:3743   */\n      swap1\n      pop\n        /* \"#utility.yul\":2924:3750   */\n      swap6\n      swap5\n      pop\n      pop\n      pop\n      pop\n      pop\n      jump\t// out\n        /* \"#utility.yul\":3756:3885   */\n    tag_75:\n        /* \"#utility.yul\":3790:3796   */\n      0x00\n        /* \"#utility.yul\":3817:3837   */\n      tag_129\n      tag_130\n      jump\t// in\n    tag_129:\n        /* \"#utility.yul\":3807:3837   */\n      swap1\n      pop\n        /* \"#utility.yul\":3846:3879   */\n      tag_131\n        /* \"#utility.yul\":3874:3878   */\n      dup3\n        /* \"#utility.yul\":3866:3872   */\n      dup3\n        /* \"#utility.yul\":3846:3879   */\n      tag_132\n      jump\t// in\n    tag_131:\n        /* \"#utility.yul\":3756:3885   */\n      swap2\n      swap1\n      pop\n      jump\t// out\n        /* \"#utility.yul\":3891:3966   */\n    tag_130:\n        /* \"#utility.yul\":3924:3930   */\n      0x00\n        /* \"#utility.yul\":3957:3959   */\n      0x40\n        /* \"#utility.yul\":3951:3960   */\n      mload\n        /* \"#utility.yul\":3941:3960   */\n      swap1\n      pop\n        /* \"#utility.yul\":3891:3966   */\n      swap1\n      jump\t// out\n        /* \"#utility.yul\":3972:4280   */\n    tag_74:\n        /* \"#utility.yul\":4034:4038   */\n      0x00\n        /* \"#utility.yul\":4124:4142   */\n      0xffffffffffffffff\n        /* \"#utility.yul\":4116:4122   */\n      dup3\n        /* \"#utility.yul\":4113:4143   */\n      gt\n        /* \"#utility.yul\":4110:4166   */\n      iszero\n      tag_135\n      jumpi\n        /* \"#utility.yul\":4146:4164   */\n      tag_136\n      tag_137\n      jump\t// in\n    tag_136:\n        /* \"#utility.yul\":4110:4166   */\n    tag_135:\n        /* \"#utility.yul\":4184:4213   */\n      tag_138\n        /* \"#utility.yul\":4206:4212   */\n      dup3\n        /* \"#utility.yul\":4184:4213   */\n      tag_118\n      jump\t// in\n    tag_138:\n        /* \"#utility.yul\":4176:4213   */\n      swap1\n      pop\n        /* \"#utility.yul\":4268:4272   */\n      0x20\n        /* \"#utility.yul\":4262:4266   */\n      dup2\n        /* \"#utility.yul\":4258:4273   */\n      add\n        /* \"#utility.yul\":4250:4273   */\n      swap1\n      pop\n        /* \"#utility.yul\":3972:4280   */\n      swap2\n      swap1\n      pop\n      jump\t// out\n        /* \"#utility.yul\":4286:4385   */\n    tag_112:\n        /* \"#utility.yul\":4338:4344   */\n      0x00\n        /* \"#utility.yul\":4372:4377   */\n      dup2\n        /* \"#utility.yul\":4366:4378   */\n      mload\n        /* \"#utility.yul\":4356:4378   */\n      swap1\n      pop\n        /* \"#utility.yul\":4286:4385   */\n      swap2\n      swap1\n      pop\n      jump\t// out\n        /* \"#utility.yul\":4391:4560   */\n    tag_114:\n        /* \"#utility.yul\":4475:4486   */\n      0x00\n        /* \"#utility.yul\":4509:4515   */\n      dup3\n        /* \"#utility.yul\":4504:4507   */\n      dup3\n        /* \"#utility.yul\":4497:4516   */\n      mstore\n        /* \"#utility.yul\":4549:4553   */\n      0x20\n        /* \"#utility.yul\":4544:4547   */\n      dup3\n        /* \"#utility.yul\":4540:4554   */\n      add\n        /* \"#utility.yul\":4525:4554   */\n      swap1\n      pop\n        /* \"#utility.yul\":4391:4560   */\n      swap3\n      swap2\n      pop\n      pop\n      jump\t// out\n        /* \"#utility.yul\":4566:4643   */\n    tag_122:\n        /* \"#utility.yul\":4603:4610   */\n      0x00\n        /* \"#utility.yul\":4632:4637   */\n      dup2\n        /* \"#utility.yul\":4621:4637   */\n      swap1\n      pop\n        /* \"#utility.yul\":4566:4643   */\n      swap2\n      swap1\n      pop\n      jump\t// out\n        /* \"#utility.yul\":4649:4803   */\n    tag_80:\n        /* \"#utility.yul\":4733:4739   */\n      dup3\n        /* \"#utility.yul\":4728:4731   */\n      dup2\n        /* \"#utility.yul\":4723:4726   */\n      dup4\n        /* \"#utility.yul\":4710:4740   */\n      calldatacopy\n        /* \"#utility.yul\":4795:4796   */\n      0x00\n        /* \"#utility.yul\":4786:4792   */\n      dup4\n        /* \"#utility.yul\":4781:4784   */\n      dup4\n        /* \"#utility.yul\":4777:4793   */\n      add\n        /* \"#utility.yul\":4770:4797   */\n      mstore\n        /* \"#utility.yul\":4649:4803   */\n      pop\n      pop\n      pop\n      jump\t// out\n        /* \"#utility.yul\":4809:5116   */\n    tag_116:\n        /* \"#utility.yul\":4877:4878   */\n      0x00\n        /* \"#utility.yul\":4887:5000   */\n    tag_144:\n        /* \"#utility.yul\":4901:4907   */\n      dup4\n        /* \"#utility.yul\":4898:4899   */\n      dup2\n        /* \"#utility.yul\":4895:4908   */\n      lt\n        /* \"#utility.yul\":4887:5000   */\n      iszero\n      tag_146\n      jumpi\n        /* \"#utility.yul\":4986:4987   */\n      dup1\n        /* \"#utility.yul\":4981:4984   */\n      dup3\n        /* \"#utility.yul\":4977:4988   */\n      add\n        /* \"#utility.yul\":4971:4989   */\n      mload\n        /* \"#utility.yul\":4967:4968   */\n      dup2\n        /* \"#utility.yul\":4962:4965   */\n      dup5\n        /* \"#utility.yul\":4958:4969   */\n      add\n        /* \"#utility.yul\":4951:4990   */\n      mstore\n        /* \"#utility.yul\":4923:4925   */\n      0x20\n        /* \"#utility.yul\":4920:4921   */\n      dup2\n        /* \"#utility.yul\":4916:4926   */\n      add\n        /* \"#utility.yul\":4911:4926   */\n      swap1\n      pop\n        /* \"#utility.yul\":4887:5000   */\n      jump(tag_144)\n    tag_146:\n        /* \"#utility.yul\":5018:5024   */\n      dup4\n        /* \"#utility.yul\":5015:5016   */\n      dup2\n        /* \"#utility.yul\":5012:5025   */\n      gt\n        /* \"#utility.yul\":5009:5110   */\n      iszero\n      tag_147\n      jumpi\n        /* \"#utility.yul\":5098:5099   */\n      0x00\n        /* \"#utility.yul\":5089:5095   */\n      dup5\n        /* \"#utility.yul\":5084:5087   */\n      dup5\n        /* \"#utility.yul\":5080:5096   */\n      add\n        /* \"#utility.yul\":5073:5100   */\n      mstore\n        /* \"#utility.yul\":5009:5110   */\n    tag_147:\n        /* \"#utility.yul\":4858:5116   */\n      pop\n        /* \"#utility.yul\":4809:5116   */\n      pop\n      pop\n      pop\n      jump\t// out\n        /* \"#utility.yul\":5122:5442   */\n    tag_21:\n        /* \"#utility.yul\":5166:5172   */\n      0x00\n        /* \"#utility.yul\":5203:5204   */\n      0x02\n        /* \"#utility.yul\":5197:5201   */\n      dup3\n        /* \"#utility.yul\":5193:5205   */\n      div\n        /* \"#utility.yul\":5183:5205   */\n      swap1\n      pop\n        /* \"#utility.yul\":5250:5251   */\n      0x01\n        /* \"#utility.yul\":5244:5248   */\n      dup3\n        /* \"#utility.yul\":5240:5252   */\n      and\n        /* \"#utility.yul\":5271:5289   */\n      dup1\n        /* \"#utility.yul\":5261:5342   */\n      tag_149\n      jumpi\n        /* \"#utility.yul\":5327:5331   */\n      0x7f\n        /* \"#utility.yul\":5319:5325   */\n      dup3\n        /* \"#utility.yul\":5315:5332   */\n      and\n        /* \"#utility.yul\":5305:5332   */\n      swap2\n      pop\n        /* \"#utility.yul\":5261:5342   */\n    tag_149:\n        /* \"#utility.yul\":5389:5391   */\n      0x20\n        /* \"#utility.yul\":5381:5387   */\n      dup3\n        /* \"#utility.yul\":5378:5392   */\n      lt\n        /* \"#utility.yul\":5358:5376   */\n      dup2\n        /* \"#utility.yul\":5355:5393   */\n      eq\n        /* \"#utility.yul\":5352:5436   */\n      iszero\n      tag_150\n      jumpi\n        /* \"#utility.yul\":5408:5426   */\n      tag_151\n      tag_152\n      jump\t// in\n    tag_151:\n        /* \"#utility.yul\":5352:5436   */\n    tag_150:\n        /* \"#utility.yul\":5173:5442   */\n      pop\n        /* \"#utility.yul\":5122:5442   */\n      swap2\n      swap1\n      pop\n      jump\t// out\n        /* \"#utility.yul\":5448:5729   */\n    tag_132:\n        /* \"#utility.yul\":5531:5558   */\n      tag_154\n        /* \"#utility.yul\":5553:5557   */\n      dup3\n        /* \"#utility.yul\":5531:5558   */\n      tag_118\n      jump\t// in\n    tag_154:\n        /* \"#utility.yul\":5523:5529   */\n      dup2\n        /* \"#utility.yul\":5519:5559   */\n      add\n        /* \"#utility.yul\":5661:5667   */\n      dup2\n        /* \"#utility.yul\":5649:5659   */\n      dup2\n        /* \"#utility.yul\":5646:5668   */\n      lt\n        /* \"#utility.yul\":5625:5643   */\n      0xffffffffffffffff\n        /* \"#utility.yul\":5613:5623   */\n      dup3\n        /* \"#utility.yul\":5610:5644   */\n      gt\n        /* \"#utility.yul\":5607:5669   */\n      or\n        /* \"#utility.yul\":5604:5692   */\n      iszero\n      tag_155\n      jumpi\n        /* \"#utility.yul\":5672:5690   */\n      tag_156\n      tag_137\n      jump\t// in\n    tag_156:\n        /* \"#utility.yul\":5604:5692   */\n    tag_155:\n        /* \"#utility.yul\":5712:5722   */\n      dup1\n        /* \"#utility.yul\":5708:5710   */\n      0x40\n        /* \"#utility.yul\":5701:5723   */\n      mstore\n        /* \"#utility.yul\":5491:5729   */\n      pop\n        /* \"#utility.yul\":5448:5729   */\n      pop\n      pop\n      jump\t// out\n        /* \"#utility.yul\":5735:5968   */\n    tag_42:\n        /* \"#utility.yul\":5774:5777   */\n      0x00\n        /* \"#utility.yul\":5797:5821   */\n      tag_158\n        /* \"#utility.yul\":5815:5820   */\n      dup3\n        /* \"#utility.yul\":5797:5821   */\n      tag_122\n      jump\t// in\n    tag_158:\n        /* \"#utility.yul\":5788:5821   */\n      swap2\n      pop\n        /* \"#utility.yul\":5843:5909   */\n      0xffffffffffffffffffffffffffffffffffffffffffffffffffffffffffffffff\n        /* \"#utility.yul\":5836:5841   */\n      dup3\n        /* \"#utility.yul\":5833:5910   */\n      eq\n        /* \"#utility.yul\":5830:5933   */\n      iszero\n      tag_159\n      jumpi\n        /* \"#utility.yul\":5913:5931   */\n      tag_160\n      tag_161\n      jump\t// in\n    tag_160:\n        /* \"#utility.yul\":5830:5933   */\n    tag_159:\n        /* \"#utility.yul\":5960:5961   */\n      0x01\n        /* \"#utility.yul\":5953:5958   */\n      dup3\n        /* \"#utility.yul\":5949:5962   */\n      add\n        /* \"#utility.yul\":5942:5962   */\n      swap1\n      pop\n        /* \"#utility.yul\":5735:5968   */\n      swap2\n      swap1\n      pop\n      jump\t// out\n        /* \"#utility.yul\":5974:6154   */\n    tag_161:\n        /* \"#utility.yul\":6022:6099   */\n      0x4e487b7100000000000000000000000000000000000000000000000000000000\n        /* \"#utility.yul\":6019:6020   */\n      0x00\n        /* \"#utility.yul\":6012:6100   */\n      mstore\n        /* \"#utility.yul\":6119:6123   */\n      0x11\n        /* \"#utility.yul\":6116:6117   */\n      0x04\n        /* \"#utility.yul\":6109:6124   */\n      mstore\n        /* \"#utility.yul\":6143:6147   */\n      0x24\n        /* \"#utility.yul\":6140:6141   */\n      0x00\n        /* \"#utility.yul\":6133:6148   */\n      revert\n        /* \"#utility.yul\":6160:6340   */\n    tag_152:\n        /* \"#utility.yul\":6208:6285   */\n      0x4e487b7100000000000000000000000000000000000000000000000000000000\n        /* \"#utility.yul\":6205:6206   */\n      0x00\n        /* \"#utility.yul\":6198:6286   */\n      mstore\n        /* \"#utility.yul\":6305:6309   */\n      0x22\n        /* \"#utility.yul\":6302:6303   */\n      0x04\n        /* \"#utility.yul\":6295:6310   */\n      mstore\n        /* \"#utility.yul\":6329:6333   */\n      0x24\n        /* \"#utility.yul\":6326:6327   */\n      0x00\n        /* \"#utility.yul\":6319:6334   */\n      revert\n        /* \"#utility.yul\":6346:6526   */\n    tag_137:\n        /* \"#utility.yul\":6394:6471   */\n      0x4e487b7100000000000000000000000000000000000000000000000000000000\n        /* \"#utility.yul\":6391:6392   */\n      0x00\n        /* \"#utility.yul\":6384:6472   */\n      mstore\n        /* \"#utility.yul\":6491:6495   */\n      0x41\n        /* \"#utility.yul\":6488:6489   */\n      0x04\n        /* \"#utility.yul\":6481:6496   */\n      mstore\n        /* \"#utility.yul\":6515:6519   */\n      0x24\n        /* \"#utility.yul\":6512:6513   */\n      0x00\n        /* \"#utility.yul\":6505:6520   */\n      revert\n        /* \"#utility.yul\":6532:6649   */\n    tag_85:\n        /* \"#utility.yul\":6641:6642   */\n      0x00\n        /* \"#utility.yul\":6638:6639   */\n      dup1\n        /* \"#utility.yul\":6631:6643   */\n      revert\n        /* \"#utility.yul\":6655:6772   */\n    tag_78:\n        /* \"#utility.yul\":6764:6765   */\n      0x00\n        /* \"#utility.yul\":6761:6762   */\n      dup1\n        /* \"#utility.yul\":6754:6766   */\n      revert\n        /* \"#utility.yul\":6778:6895   */\n    tag_97:\n        /* \"#utility.yul\":6887:6888   */\n      0x00\n        /* \"#utility.yul\":6884:6885   */\n      dup1\n        /* \"#utility.yul\":6877:6889   */\n      revert\n        /* \"#utility.yul\":6901:7018   */\n    tag_94:\n        /* \"#utility.yul\":7010:7011   */\n      0x00\n        /* \"#utility.yul\":7007:7008   */\n      dup1\n        /* \"#utility.yul\":7000:7012   */\n      revert\n        /* \"#utility.yul\":7024:7126   */\n    tag_118:\n        /* \"#utility.yul\":7065:7071   */\n      0x00\n        /* \"#utility.yul\":7116:7118   */\n      0x1f\n        /* \"#utility.yul\":7112:7119   */\n      not\n        /* \"#utility.yul\":7107:7109   */\n      0x1f\n        /* \"#utility.yul\":7100:7105   */\n      dup4\n        /* \"#utility.yul\":7096:7110   */\n      add\n        /* \"#utility.yul\":7092:7120   */\n      and\n        /* \"#utility.yul\":7082:7120   */\n      swap1\n      pop\n        /* \"#utility.yul\":7024:7126   */\n      swap2\n      swap1\n      pop\n      jump\t// out\n        /* \"#utility.yul\":7132:7254   */\n    tag_90:\n        /* \"#utility.yul\":7205:7229   */\n      tag_171\n        /* \"#utility.yul\":7223:7228   */\n      dup2\n        /* \"#utility.yul\":7205:7229   */\n      tag_122\n      jump\t// in\n    tag_171:\n        /* \"#utility.yul\":7198:7203   */\n      dup2\n        /* \"#utility.yul\":7195:7230   */\n      eq\n        /* \"#utility.yul\":7185:7248   */\n      tag_172\n      jumpi\n        /* \"#utility.yul\":7244:7245   */\n      0x00\n        /* \"#utility.yul\":7241:7242   */\n      dup1\n        /* \"#utility.yul\":7234:7246   */\n      revert\n        /* \"#utility.yul\":7185:7248   */\n    tag_172:\n        /* \"#utility.yul\":7132:7254   */\n      pop\n      jump\t// out\n\n    auxdata: 0xa2646970667358221220579681baaa0de2cb46985c5a189d8390a65ca8780a3b131c603c87b038987a6164736f6c63430008070033\n}\n",
				"bytecode": {
					"linkReferences": {},
					"object": "6080604052600160005534801561001557600080fd5b50610a61806100256000396000f3fe608060405234801561001057600080fd5b50600436106100415760003560e01c806304d8e033146100465780635d28560a146100795780639507d39a14610095575b600080fd5b610060600480360381019061005b9190610729565b6100c8565b604051610070949392919061079e565b60405180910390f35b610093600480360381019061008e9190610682565b610290565b005b6100af60048036038101906100aa9190610729565b610347565b6040516100bf949392919061079e565b60405180910390f35b60016020528060005260406000206000915090508060000154908060010180546100f1906108b6565b80601f016020809104026020016040519081016040528092919081815260200182805461011d906108b6565b801561016a5780601f1061013f5761010080835404028352916020019161016a565b820191906000526020600020905b81548152906001019060200180831161014d57829003601f168201915b50505050509080600201805461017f906108b6565b80601f01602080910402602001604051908101604052809291908181526020018280546101ab906108b6565b80156101f85780601f106101cd576101008083540402835291602001916101f8565b820191906000526020600020905b8154815290600101906020018083116101db57829003601f168201915b50505050509080600301805461020d906108b6565b80601f0160208091040260200160405190810160405280929190818152602001828054610239906108b6565b80156102865780601f1061025b57610100808354040283529160200191610286565b820191906000526020600020905b81548152906001019060200180831161026957829003601f168201915b5050505050905084565b604051806080016040528060005481526020018481526020018381526020018281525060016000805481526020019081526020016000206000820151816000015560208201518160010190805190602001906102ed92919061055a565b50604082015181600201908051906020019061030a92919061055a565b50606082015181600301908051906020019061032792919061055a565b5090505060008081548092919061033d90610919565b9190505550505050565b6000606080606060016000868152602001908152602001600020600001546001600087815260200190815260200160002060010160016000888152602001908152602001600020600201600160008981526020019081526020016000206003018280546103b3906108b6565b80601f01602080910402602001604051908101604052809291908181526020018280546103df906108b6565b801561042c5780601f106104015761010080835404028352916020019161042c565b820191906000526020600020905b81548152906001019060200180831161040f57829003601f168201915b5050505050925081805461043f906108b6565b80601f016020809104026020016040519081016040528092919081815260200182805461046b906108b6565b80156104b85780601f1061048d576101008083540402835291602001916104b8565b820191906000526020600020905b81548152906001019060200180831161049b57829003601f168201915b505050505091508080546104cb906108b6565b80601f01602080910402602001604051908101604052809291908181526020018280546104f7906108b6565b80156105445780601f1061051957610100808354040283529160200191610544565b820191906000526020600020905b81548152906001019060200180831161052757829003601f168201915b5050505050905093509350935093509193509193565b828054610566906108b6565b90600052602060002090601f01602090048101928261058857600085556105cf565b82601f106105a157805160ff19168380011785556105cf565b828001600101855582156105cf579182015b828111156105ce5782518255916020019190600101906105b3565b5b5090506105dc91906105e0565b5090565b5b808211156105f95760008160009055506001016105e1565b5090565b600061061061060b8461081d565b6107f8565b90508281526020810184848401111561062c5761062b6109f4565b5b610637848285610874565b509392505050565b600082601f830112610654576106536109ef565b5b81356106648482602086016105fd565b91505092915050565b60008135905061067c81610a14565b92915050565b60008060006060848603121561069b5761069a6109fe565b5b600084013567ffffffffffffffff8111156106b9576106b86109f9565b5b6106c58682870161063f565b935050602084013567ffffffffffffffff8111156106e6576106e56109f9565b5b6106f28682870161063f565b925050604084013567ffffffffffffffff811115610713576107126109f9565b5b61071f8682870161063f565b9150509250925092565b60006020828403121561073f5761073e6109fe565b5b600061074d8482850161066d565b91505092915050565b60006107618261084e565b61076b8185610859565b935061077b818560208601610883565b61078481610a03565b840191505092915050565b6107988161086a565b82525050565b60006080820190506107b3600083018761078f565b81810360208301526107c58186610756565b905081810360408301526107d98185610756565b905081810360608301526107ed8184610756565b905095945050505050565b6000610802610813565b905061080e82826108e8565b919050565b6000604051905090565b600067ffffffffffffffff821115610838576108376109c0565b5b61084182610a03565b9050602081019050919050565b600081519050919050565b600082825260208201905092915050565b6000819050919050565b82818337600083830152505050565b60005b838110156108a1578082015181840152602081019050610886565b838111156108b0576000848401525b50505050565b600060028204905060018216806108ce57607f821691505b602082108114156108e2576108e1610991565b5b50919050565b6108f182610a03565b810181811067ffffffffffffffff821117156109105761090f6109c0565b5b80604052505050565b60006109248261086a565b91507fffffffffffffffffffffffffffffffffffffffffffffffffffffffffffffffff82141561095757610956610962565b5b600182019050919050565b7f4e487b7100000000000000000000000000000000000000000000000000000000600052601160045260246000fd5b7f4e487b7100000000000000000000000000000000000000000000000000000000600052602260045260246000fd5b7f4e487b7100000000000000000000000000000000000000000000000000000000600052604160045260246000fd5b600080fd5b600080fd5b600080fd5b600080fd5b6000601f19601f8301169050919050565b610a1d8161086a565b8114610a2857600080fd5b5056fea2646970667358221220579681baaa0de2cb46985c5a189d8390a65ca8780a3b131c603c87b038987a6164736f6c63430008070033",
					"opcodes": "PUSH1 0x80 PUSH1 0x40 MSTORE PUSH1 0x1 PUSH1 0x0 SSTORE CALLVALUE DUP1 ISZERO PUSH2 0x15 JUMPI PUSH1 0x0 DUP1 REVERT JUMPDEST POP PUSH2 0xA61 DUP1 PUSH2 0x25 PUSH1 0x0 CODECOPY PUSH1 0x0 RETURN INVALID PUSH1 0x80 PUSH1 0x40 MSTORE CALLVALUE DUP1 ISZERO PUSH2 0x10 JUMPI PUSH1 0x0 DUP1 REVERT JUMPDEST POP PUSH1 0x4 CALLDATASIZE LT PUSH2 0x41 JUMPI PUSH1 0x0 CALLDATALOAD PUSH1 0xE0 SHR DUP1 PUSH4 0x4D8E033 EQ PUSH2 0x46 JUMPI DUP1 PUSH4 0x5D28560A EQ PUSH2 0x79 JUMPI DUP1 PUSH4 0x9507D39A EQ PUSH2 0x95 JUMPI JUMPDEST PUSH1 0x0 DUP1 REVERT JUMPDEST PUSH2 0x60 PUSH1 0x4 DUP1 CALLDATASIZE SUB DUP2 ADD SWAP1 PUSH2 0x5B SWAP2 SWAP1 PUSH2 0x729 JUMP JUMPDEST PUSH2 0xC8 JUMP JUMPDEST PUSH1 0x40 MLOAD PUSH2 0x70 SWAP5 SWAP4 SWAP3 SWAP2 SWAP1 PUSH2 0x79E JUMP JUMPDEST PUSH1 0x40 MLOAD DUP1 SWAP2 SUB SWAP1 RETURN JUMPDEST PUSH2 0x93 PUSH1 0x4 DUP1 CALLDATASIZE SUB DUP2 ADD SWAP1 PUSH2 0x8E SWAP2 SWAP1 PUSH2 0x682 JUMP JUMPDEST PUSH2 0x290 JUMP JUMPDEST STOP JUMPDEST PUSH2 0xAF PUSH1 0x4 DUP1 CALLDATASIZE SUB DUP2 ADD SWAP1 PUSH2 0xAA SWAP2 SWAP1 PUSH2 0x729 JUMP JUMPDEST PUSH2 0x347 JUMP JUMPDEST PUSH1 0x40 MLOAD PUSH2 0xBF SWAP5 SWAP4 SWAP3 SWAP2 SWAP1 PUSH2 0x79E JUMP JUMPDEST PUSH1 0x40 MLOAD DUP1 SWAP2 SUB SWAP1 RETURN JUMPDEST PUSH1 0x1 PUSH1 0x20 MSTORE DUP1 PUSH1 0x0 MSTORE PUSH1 0x40 PUSH1 0x0 KECCAK256 PUSH1 0x0 SWAP2 POP SWAP1 POP DUP1 PUSH1 0x0 ADD SLOAD SWAP1 DUP1 PUSH1 0x1 ADD DUP1 SLOAD PUSH2 0xF1 SWAP1 PUSH2 0x8B6 JUMP JUMPDEST DUP1 PUSH1 0x1F ADD PUSH1 0x20 DUP1 SWAP2 DIV MUL PUSH1 0x20 ADD PUSH1 0x40 MLOAD SWAP1 DUP2 ADD PUSH1 0x40 MSTORE DUP1 SWAP3 SWAP2 SWAP1 DUP2 DUP2 MSTORE PUSH1 0x20 ADD DUP3 DUP1 SLOAD PUSH2 0x11D SWAP1 PUSH2 0x8B6 JUMP JUMPDEST DUP1 ISZERO PUSH2 0x16A JUMPI DUP1 PUSH1 0x1F LT PUSH2 0x13F JUMPI PUSH2 0x100 DUP1 DUP4 SLOAD DIV MUL DUP4 MSTORE SWAP2 PUSH1 0x20 ADD SWAP2 PUSH2 0x16A JUMP JUMPDEST DUP3 ADD SWAP2 SWAP1 PUSH1 0x0 MSTORE PUSH1 0x20 PUSH1 0x0 KECCAK256 SWAP1 JUMPDEST DUP2 SLOAD DUP2 MSTORE SWAP1 PUSH1 0x1 ADD SWAP1 PUSH1 0x20 ADD DUP1 DUP4 GT PUSH2 0x14D JUMPI DUP3 SWAP1 SUB PUSH1 0x1F AND DUP3 ADD SWAP2 JUMPDEST POP POP POP POP POP SWAP1 DUP1 PUSH1 0x2 ADD DUP1 SLOAD PUSH2 0x17F SWAP1 PUSH2 0x8B6 JUMP JUMPDEST DUP1 PUSH1 0x1F ADD PUSH1 0x20 DUP1 SWAP2 DIV MUL PUSH1 0x20 ADD PUSH1 0x40 MLOAD SWAP1 DUP2 ADD PUSH1 0x40 MSTORE DUP1 SWAP3 SWAP2 SWAP1 DUP2 DUP2 MSTORE PUSH1 0x20 ADD DUP3 DUP1 SLOAD PUSH2 0x1AB SWAP1 PUSH2 0x8B6 JUMP JUMPDEST DUP1 ISZERO PUSH2 0x1F8 JUMPI DUP1 PUSH1 0x1F LT PUSH2 0x1CD JUMPI PUSH2 0x100 DUP1 DUP4 SLOAD DIV MUL DUP4 MSTORE SWAP2 PUSH1 0x20 ADD SWAP2 PUSH2 0x1F8 JUMP JUMPDEST DUP3 ADD SWAP2 SWAP1 PUSH1 0x0 MSTORE PUSH1 0x20 PUSH1 0x0 KECCAK256 SWAP1 JUMPDEST DUP2 SLOAD DUP2 MSTORE SWAP1 PUSH1 0x1 ADD SWAP1 PUSH1 0x20 ADD DUP1 DUP4 GT PUSH2 0x1DB JUMPI DUP3 SWAP1 SUB PUSH1 0x1F AND DUP3 ADD SWAP2 JUMPDEST POP POP POP POP POP SWAP1 DUP1 PUSH1 0x3 ADD DUP1 SLOAD PUSH2 0x20D SWAP1 PUSH2 0x8B6 JUMP JUMPDEST DUP1 PUSH1 0x1F ADD PUSH1 0x20 DUP1 SWAP2 DIV MUL PUSH1 0x20 ADD PUSH1 0x40 MLOAD SWAP1 DUP2 ADD PUSH1 0x40 MSTORE DUP1 SWAP3 SWAP2 SWAP1 DUP2 DUP2 MSTORE PUSH1 0x20 ADD DUP3 DUP1 SLOAD PUSH2 0x239 SWAP1 PUSH2 0x8B6 JUMP JUMPDEST DUP1 ISZERO PUSH2 0x286 JUMPI DUP1 PUSH1 0x1F LT PUSH2 0x25B JUMPI PUSH2 0x100 DUP1 DUP4 SLOAD DIV MUL DUP4 MSTORE SWAP2 PUSH1 0x20 ADD SWAP2 PUSH2 0x286 JUMP JUMPDEST DUP3 ADD SWAP2 SWAP1 PUSH1 0x0 MSTORE PUSH1 0x20 PUSH1 0x0 KECCAK256 SWAP1 JUMPDEST DUP2 SLOAD DUP2 MSTORE SWAP1 PUSH1 0x1 ADD SWAP1 PUSH1 0x20 ADD DUP1 DUP4 GT PUSH2 0x269 JUMPI DUP3 SWAP1 SUB PUSH1 0x1F AND DUP3 ADD SWAP2 JUMPDEST POP POP POP POP POP SWAP1 POP DUP5 JUMP JUMPDEST PUSH1 0x40 MLOAD DUP1 PUSH1 0x80 ADD PUSH1 0x40 MSTORE DUP1 PUSH1 0x0 SLOAD DUP2 MSTORE PUSH1 0x20 ADD DUP5 DUP2 MSTORE PUSH1 0x20 ADD DUP4 DUP2 MSTORE PUSH1 0x20 ADD DUP3 DUP2 MSTORE POP PUSH1 0x1 PUSH1 0x0 DUP1 SLOAD DUP2 MSTORE PUSH1 0x20 ADD SWAP1 DUP2 MSTORE PUSH1 0x20 ADD PUSH1 0x0 KECCAK256 PUSH1 0x0 DUP3 ADD MLOAD DUP2 PUSH1 0x0 ADD SSTORE PUSH1 0x20 DUP3 ADD MLOAD DUP2 PUSH1 0x1 ADD SWAP1 DUP1 MLOAD SWAP1 PUSH1 0x20 ADD SWAP1 PUSH2 0x2ED SWAP3 SWAP2 SWAP1 PUSH2 0x55A JUMP JUMPDEST POP PUSH1 0x40 DUP3 ADD MLOAD DUP2 PUSH1 0x2 ADD SWAP1 DUP1 MLOAD SWAP1 PUSH1 0x20 ADD SWAP1 PUSH2 0x30A SWAP3 SWAP2 SWAP1 PUSH2 0x55A JUMP JUMPDEST POP PUSH1 0x60 DUP3 ADD MLOAD DUP2 PUSH1 0x3 ADD SWAP1 DUP1 MLOAD SWAP1 PUSH1 0x20 ADD SWAP1 PUSH2 0x327 SWAP3 SWAP2 SWAP1 PUSH2 0x55A JUMP JUMPDEST POP SWAP1 POP POP PUSH1 0x0 DUP1 DUP2 SLOAD DUP1 SWAP3 SWAP2 SWAP1 PUSH2 0x33D SWAP1 PUSH2 0x919 JUMP JUMPDEST SWAP2 SWAP1 POP SSTORE POP POP POP POP JUMP JUMPDEST PUSH1 0x0 PUSH1 0x60 DUP1 PUSH1 0x60 PUSH1 0x1 PUSH1 0x0 DUP7 DUP2 MSTORE PUSH1 0x20 ADD SWAP1 DUP2 MSTORE PUSH1 0x20 ADD PUSH1 0x0 KECCAK256 PUSH1 0x0 ADD SLOAD PUSH1 0x1 PUSH1 0x0 DUP8 DUP2 MSTORE PUSH1 0x20 ADD SWAP1 DUP2 MSTORE PUSH1 0x20 ADD PUSH1 0x0 KECCAK256 PUSH1 0x1 ADD PUSH1 0x1 PUSH1 0x0 DUP9 DUP2 MSTORE PUSH1 0x20 ADD SWAP1 DUP2 MSTORE PUSH1 0x20 ADD PUSH1 0x0 KECCAK256 PUSH1 0x2 ADD PUSH1 0x1 PUSH1 0x0 DUP10 DUP2 MSTORE PUSH1 0x20 ADD SWAP1 DUP2 MSTORE PUSH1 0x20 ADD PUSH1 0x0 KECCAK256 PUSH1 0x3 ADD DUP3 DUP1 SLOAD PUSH2 0x3B3 SWAP1 PUSH2 0x8B6 JUMP JUMPDEST DUP1 PUSH1 0x1F ADD PUSH1 0x20 DUP1 SWAP2 DIV MUL PUSH1 0x20 ADD PUSH1 0x40 MLOAD SWAP1 DUP2 ADD PUSH1 0x40 MSTORE DUP1 SWAP3 SWAP2 SWAP1 DUP2 DUP2 MSTORE PUSH1 0x20 ADD DUP3 DUP1 SLOAD PUSH2 0x3DF SWAP1 PUSH2 0x8B6 JUMP JUMPDEST DUP1 ISZERO PUSH2 0x42C JUMPI DUP1 PUSH1 0x1F LT PUSH2 0x401 JUMPI PUSH2 0x100 DUP1 DUP4 SLOAD DIV MUL DUP4 MSTORE SWAP2 PUSH1 0x20 ADD SWAP2 PUSH2 0x42C JUMP JUMPDEST DUP3 ADD SWAP2 SWAP1 PUSH1 0x0 MSTORE PUSH1 0x20 PUSH1 0x0 KECCAK256 SWAP1 JUMPDEST DUP2 SLOAD DUP2 MSTORE SWAP1 PUSH1 0x1 ADD SWAP1 PUSH1 0x20 ADD DUP1 DUP4 GT PUSH2 0x40F JUMPI DUP3 SWAP1 SUB PUSH1 0x1F AND DUP3 ADD SWAP2 JUMPDEST POP POP POP POP POP SWAP3 POP DUP2 DUP1 SLOAD PUSH2 0x43F SWAP1 PUSH2 0x8B6 JUMP JUMPDEST DUP1 PUSH1 0x1F ADD PUSH1 0x20 DUP1 SWAP2 DIV MUL PUSH1 0x20 ADD PUSH1 0x40 MLOAD SWAP1 DUP2 ADD PUSH1 0x40 MSTORE DUP1 SWAP3 SWAP2 SWAP1 DUP2 DUP2 MSTORE PUSH1 0x20 ADD DUP3 DUP1 SLOAD PUSH2 0x46B SWAP1 PUSH2 0x8B6 JUMP JUMPDEST DUP1 ISZERO PUSH2 0x4B8 JUMPI DUP1 PUSH1 0x1F LT PUSH2 0x48D JUMPI PUSH2 0x100 DUP1 DUP4 SLOAD DIV MUL DUP4 MSTORE SWAP2 PUSH1 0x20 ADD SWAP2 PUSH2 0x4B8 JUMP JUMPDEST DUP3 ADD SWAP2 SWAP1 PUSH1 0x0 MSTORE PUSH1 0x20 PUSH1 0x0 KECCAK256 SWAP1 JUMPDEST DUP2 SLOAD DUP2 MSTORE SWAP1 PUSH1 0x1 ADD SWAP1 PUSH1 0x20 ADD DUP1 DUP4 GT PUSH2 0x49B JUMPI DUP3 SWAP1 SUB PUSH1 0x1F AND DUP3 ADD SWAP2 JUMPDEST POP POP POP POP POP SWAP2 POP DUP1 DUP1 SLOAD PUSH2 0x4CB SWAP1 PUSH2 0x8B6 JUMP JUMPDEST DUP1 PUSH1 0x1F ADD PUSH1 0x20 DUP1 SWAP2 DIV MUL PUSH1 0x20 ADD PUSH1 0x40 MLOAD SWAP1 DUP2 ADD PUSH1 0x40 MSTORE DUP1 SWAP3 SWAP2 SWAP1 DUP2 DUP2 MSTORE PUSH1 0x20 ADD DUP3 DUP1 SLOAD PUSH2 0x4F7 SWAP1 PUSH2 0x8B6 JUMP JUMPDEST DUP1 ISZERO PUSH2 0x544 JUMPI DUP1 PUSH1 0x1F LT PUSH2 0x519 JUMPI PUSH2 0x100 DUP1 DUP4 SLOAD DIV MUL DUP4 MSTORE SWAP2 PUSH1 0x20 ADD SWAP2 PUSH2 0x544 JUMP JUMPDEST DUP3 ADD SWAP2 SWAP1 PUSH1 0x0 MSTORE PUSH1 0x20 PUSH1 0x0 KECCAK256 SWAP1 JUMPDEST DUP2 SLOAD DUP2 MSTORE SWAP1 PUSH1 0x1 ADD SWAP1 PUSH1 0x20 ADD DUP1 DUP4 GT PUSH2 0x527 JUMPI DUP3 SWAP1 SUB PUSH1 0x1F AND DUP3 ADD SWAP2 JUMPDEST POP POP POP POP POP SWAP1 POP SWAP4 POP SWAP4 POP SWAP4 POP SWAP4 POP SWAP2 SWAP4 POP SWAP2 SWAP4 JUMP JUMPDEST DUP3 DUP1 SLOAD PUSH2 0x566 SWAP1 PUSH2 0x8B6 JUMP JUMPDEST SWAP1 PUSH1 0x0 MSTORE PUSH1 0x20 PUSH1 0x0 KECCAK256 SWAP1 PUSH1 0x1F ADD PUSH1 0x20 SWAP1 DIV DUP2 ADD SWAP3 DUP3 PUSH2 0x588 JUMPI PUSH1 0x0 DUP6 SSTORE PUSH2 0x5CF JUMP JUMPDEST DUP3 PUSH1 0x1F LT PUSH2 0x5A1 JUMPI DUP1 MLOAD PUSH1 0xFF NOT AND DUP4 DUP1 ADD OR DUP6 SSTORE PUSH2 0x5CF JUMP JUMPDEST DUP3 DUP1 ADD PUSH1 0x1 ADD DUP6 SSTORE DUP3 ISZERO PUSH2 0x5CF JUMPI SWAP2 DUP3 ADD JUMPDEST DUP3 DUP2 GT ISZERO PUSH2 0x5CE JUMPI DUP3 MLOAD DUP3 SSTORE SWAP2 PUSH1 0x20 ADD SWAP2 SWAP1 PUSH1 0x1 ADD SWAP1 PUSH2 0x5B3 JUMP JUMPDEST JUMPDEST POP SWAP1 POP PUSH2 0x5DC SWAP2 SWAP1 PUSH2 0x5E0 JUMP JUMPDEST POP SWAP1 JUMP JUMPDEST JUMPDEST DUP1 DUP3 GT ISZERO PUSH2 0x5F9 JUMPI PUSH1 0x0 DUP2 PUSH1 0x0 SWAP1 SSTORE POP PUSH1 0x1 ADD PUSH2 0x5E1 JUMP JUMPDEST POP SWAP1 JUMP JUMPDEST PUSH1 0x0 PUSH2 0x610 PUSH2 0x60B DUP5 PUSH2 0x81D JUMP JUMPDEST PUSH2 0x7F8 JUMP JUMPDEST SWAP1 POP DUP3 DUP2 MSTORE PUSH1 0x20 DUP2 ADD DUP5 DUP5 DUP5 ADD GT ISZERO PUSH2 0x62C JUMPI PUSH2 0x62B PUSH2 0x9F4 JUMP JUMPDEST JUMPDEST PUSH2 0x637 DUP5 DUP3 DUP6 PUSH2 0x874 JUMP JUMPDEST POP SWAP4 SWAP3 POP POP POP JUMP JUMPDEST PUSH1 0x0 DUP3 PUSH1 0x1F DUP4 ADD SLT PUSH2 0x654 JUMPI PUSH2 0x653 PUSH2 0x9EF JUMP JUMPDEST JUMPDEST DUP2 CALLDATALOAD PUSH2 0x664 DUP5 DUP3 PUSH1 0x20 DUP7 ADD PUSH2 0x5FD JUMP JUMPDEST SWAP2 POP POP SWAP3 SWAP2 POP POP JUMP JUMPDEST PUSH1 0x0 DUP2 CALLDATALOAD SWAP1 POP PUSH2 0x67C DUP2 PUSH2 0xA14 JUMP JUMPDEST SWAP3 SWAP2 POP POP JUMP JUMPDEST PUSH1 0x0 DUP1 PUSH1 0x0 PUSH1 0x60 DUP5 DUP7 SUB SLT ISZERO PUSH2 0x69B JUMPI PUSH2 0x69A PUSH2 0x9FE JUMP JUMPDEST JUMPDEST PUSH1 0x0 DUP5 ADD CALLDATALOAD PUSH8 0xFFFFFFFFFFFFFFFF DUP2 GT ISZERO PUSH2 0x6B9 JUMPI PUSH2 0x6B8 PUSH2 0x9F9 JUMP JUMPDEST JUMPDEST PUSH2 0x6C5 DUP7 DUP3 DUP8 ADD PUSH2 0x63F JUMP JUMPDEST SWAP4 POP POP PUSH1 0x20 DUP5 ADD CALLDATALOAD PUSH8 0xFFFFFFFFFFFFFFFF DUP2 GT ISZERO PUSH2 0x6E6 JUMPI PUSH2 0x6E5 PUSH2 0x9F9 JUMP JUMPDEST JUMPDEST PUSH2 0x6F2 DUP7 DUP3 DUP8 ADD PUSH2 0x63F JUMP JUMPDEST SWAP3 POP POP PUSH1 0x40 DUP5 ADD CALLDATALOAD PUSH8 0xFFFFFFFFFFFFFFFF DUP2 GT ISZERO PUSH2 0x713 JUMPI PUSH2 0x712 PUSH2 0x9F9 JUMP JUMPDEST JUMPDEST PUSH2 0x71F DUP7 DUP3 DUP8 ADD PUSH2 0x63F JUMP JUMPDEST SWAP2 POP POP SWAP3 POP SWAP3 POP SWAP3 JUMP JUMPDEST PUSH1 0x0 PUSH1 0x20 DUP3 DUP5 SUB SLT ISZERO PUSH2 0x73F JUMPI PUSH2 0x73E PUSH2 0x9FE JUMP JUMPDEST JUMPDEST PUSH1 0x0 PUSH2 0x74D DUP5 DUP3 DUP6 ADD PUSH2 0x66D JUMP JUMPDEST SWAP2 POP POP SWAP3 SWAP2 POP POP JUMP JUMPDEST PUSH1 0x0 PUSH2 0x761 DUP3 PUSH2 0x84E JUMP JUMPDEST PUSH2 0x76B DUP2 DUP6 PUSH2 0x859 JUMP JUMPDEST SWAP4 POP PUSH2 0x77B DUP2 DUP6 PUSH1 0x20 DUP7 ADD PUSH2 0x883 JUMP JUMPDEST PUSH2 0x784 DUP2 PUSH2 0xA03 JUMP JUMPDEST DUP5 ADD SWAP2 POP POP SWAP3 SWAP2 POP POP JUMP JUMPDEST PUSH2 0x798 DUP2 PUSH2 0x86A JUMP JUMPDEST DUP3 MSTORE POP POP JUMP JUMPDEST PUSH1 0x0 PUSH1 0x80 DUP3 ADD SWAP1 POP PUSH2 0x7B3 PUSH1 0x0 DUP4 ADD DUP8 PUSH2 0x78F JUMP JUMPDEST DUP2 DUP2 SUB PUSH1 0x20 DUP4 ADD MSTORE PUSH2 0x7C5 DUP2 DUP7 PUSH2 0x756 JUMP JUMPDEST SWAP1 POP DUP2 DUP2 SUB PUSH1 0x40 DUP4 ADD MSTORE PUSH2 0x7D9 DUP2 DUP6 PUSH2 0x756 JUMP JUMPDEST SWAP1 POP DUP2 DUP2 SUB PUSH1 0x60 DUP4 ADD MSTORE PUSH2 0x7ED DUP2 DUP5 PUSH2 0x756 JUMP JUMPDEST SWAP1 POP SWAP6 SWAP5 POP POP POP POP POP JUMP JUMPDEST PUSH1 0x0 PUSH2 0x802 PUSH2 0x813 JUMP JUMPDEST SWAP1 POP PUSH2 0x80E DUP3 DUP3 PUSH2 0x8E8 JUMP JUMPDEST SWAP2 SWAP1 POP JUMP JUMPDEST PUSH1 0x0 PUSH1 0x40 MLOAD SWAP1 POP SWAP1 JUMP JUMPDEST PUSH1 0x0 PUSH8 0xFFFFFFFFFFFFFFFF DUP3 GT ISZERO PUSH2 0x838 JUMPI PUSH2 0x837 PUSH2 0x9C0 JUMP JUMPDEST JUMPDEST PUSH2 0x841 DUP3 PUSH2 0xA03 JUMP JUMPDEST SWAP1 POP PUSH1 0x20 DUP2 ADD SWAP1 POP SWAP2 SWAP1 POP JUMP JUMPDEST PUSH1 0x0 DUP2 MLOAD SWAP1 POP SWAP2 SWAP1 POP JUMP JUMPDEST PUSH1 0x0 DUP3 DUP3 MSTORE PUSH1 0x20 DUP3 ADD SWAP1 POP SWAP3 SWAP2 POP POP JUMP JUMPDEST PUSH1 0x0 DUP2 SWAP1 POP SWAP2 SWAP1 POP JUMP JUMPDEST DUP3 DUP2 DUP4 CALLDATACOPY PUSH1 0x0 DUP4 DUP4 ADD MSTORE POP POP POP JUMP JUMPDEST PUSH1 0x0 JUMPDEST DUP4 DUP2 LT ISZERO PUSH2 0x8A1 JUMPI DUP1 DUP3 ADD MLOAD DUP2 DUP5 ADD MSTORE PUSH1 0x20 DUP2 ADD SWAP1 POP PUSH2 0x886 JUMP JUMPDEST DUP4 DUP2 GT ISZERO PUSH2 0x8B0 JUMPI PUSH1 0x0 DUP5 DUP5 ADD MSTORE JUMPDEST POP POP POP POP JUMP JUMPDEST PUSH1 0x0 PUSH1 0x2 DUP3 DIV SWAP1 POP PUSH1 0x1 DUP3 AND DUP1 PUSH2 0x8CE JUMPI PUSH1 0x7F DUP3 AND SWAP2 POP JUMPDEST PUSH1 0x20 DUP3 LT DUP2 EQ ISZERO PUSH2 0x8E2 JUMPI PUSH2 0x8E1 PUSH2 0x991 JUMP JUMPDEST JUMPDEST POP SWAP2 SWAP1 POP JUMP JUMPDEST PUSH2 0x8F1 DUP3 PUSH2 0xA03 JUMP JUMPDEST DUP2 ADD DUP2 DUP2 LT PUSH8 0xFFFFFFFFFFFFFFFF DUP3 GT OR ISZERO PUSH2 0x910 JUMPI PUSH2 0x90F PUSH2 0x9C0 JUMP JUMPDEST JUMPDEST DUP1 PUSH1 0x40 MSTORE POP POP POP JUMP JUMPDEST PUSH1 0x0 PUSH2 0x924 DUP3 PUSH2 0x86A JUMP JUMPDEST SWAP2 POP PUSH32 0xFFFFFFFFFFFFFFFFFFFFFFFFFFFFFFFFFFFFFFFFFFFFFFFFFFFFFFFFFFFFFFFF DUP3 EQ ISZERO PUSH2 0x957 JUMPI PUSH2 0x956 PUSH2 0x962 JUMP JUMPDEST JUMPDEST PUSH1 0x1 DUP3 ADD SWAP1 POP SWAP2 SWAP1 POP JUMP JUMPDEST PUSH32 0x4E487B7100000000000000000000000000000000000000000000000000000000 PUSH1 0x0 MSTORE PUSH1 0x11 PUSH1 0x4 MSTORE PUSH1 0x24 PUSH1 0x0 REVERT JUMPDEST PUSH32 0x4E487B7100000000000000000000000000000000000000000000000000000000 PUSH1 0x0 MSTORE PUSH1 0x22 PUSH1 0x4 MSTORE PUSH1 0x24 PUSH1 0x0 REVERT JUMPDEST PUSH32 0x4E487B7100000000000000000000000000000000000000000000000000000000 PUSH1 0x0 MSTORE PUSH1 0x41 PUSH1 0x4 MSTORE PUSH1 0x24 PUSH1 0x0 REVERT JUMPDEST PUSH1 0x0 DUP1 REVERT JUMPDEST PUSH1 0x0 DUP1 REVERT JUMPDEST PUSH1 0x0 DUP1 REVERT JUMPDEST PUSH1 0x0 DUP1 REVERT JUMPDEST PUSH1 0x0 PUSH1 0x1F NOT PUSH1 0x1F DUP4 ADD AND SWAP1 POP SWAP2 SWAP1 POP JUMP JUMPDEST PUSH2 0xA1D DUP2 PUSH2 0x86A JUMP JUMPDEST DUP2 EQ PUSH2 0xA28 JUMPI PUSH1 0x0 DUP1 REVERT JUMPDEST POP JUMP INVALID LOG2 PUSH5 0x6970667358 0x22 SLT KECCAK256 JUMPI SWAP7 DUP2 0xBA 0xAA 0xD 0xE2 0xCB CHAINID SWAP9 0x5C GAS XOR SWAP14 DUP4 SWAP1 0xA6 0x5C 0xA8 PUSH25 0xA3B131C603C87B038987A6164736F6C634300080700330000 "
				},
				"gasEstimates": {
					"creation": {
						"codeDepositCost": "531400",
						"executionCost": "22674",
						"totalCost": "554074"
					},
					"external": {
						"Review_mapping(uint256)": "infinite",
						"create(string,string,string)": "infinite",
						"get(uint256)": "infinite"
					}
				},
				"methodIdentifiers": {
					"Review_mapping(uint256)": "04d8e033",
					"create(string,string,string)": "5d28560a",
					"get(uint256)": "9507d39a"
				}
			},
			"userdoc": {
				"kind": "user",
				"methods": {},
				"version": 1
			}
		}
	}
}