{
	"blockmonkey/ReviewDapp/Test.sol": {
		"Test": {
			"abi": [
				{
					"inputs": [
						{
							"internalType": "uint256",
							"name": "",
							"type": "uint256"
						}
					],
					"name": "Review_mapping",
					"outputs": [
						{
							"internalType": "uint256",
							"name": "id",
							"type": "uint256"
						},
						{
							"internalType": "string",
							"name": "title",
							"type": "string"
						},
						{
							"internalType": "string",
							"name": "description",
							"type": "string"
						},
						{
							"internalType": "string",
							"name": "writer",
							"type": "string"
						}
					],
					"stateMutability": "view",
					"type": "function"
				},
				{
					"inputs": [
						{
							"internalType": "string",
							"name": "_title",
							"type": "string"
						},
						{
							"internalType": "string",
							"name": "_des",
							"type": "string"
						},
						{
							"internalType": "string",
							"name": "_writer",
							"type": "string"
						}
					],
					"name": "create",
					"outputs": [],
					"stateMutability": "nonpayable",
					"type": "function"
				},
				{
					"inputs": [
						{
							"internalType": "uint256",
							"name": "_idx",
							"type": "uint256"
						}
					],
					"name": "get",
					"outputs": [
						{
							"internalType": "uint256",
							"name": "",
							"type": "uint256"
						},
						{
							"internalType": "string",
							"name": "",
							"type": "string"
						},
						{
							"internalType": "string",
							"name": "",
							"type": "string"
						},
						{
							"internalType": "string",
							"name": "",
							"type": "string"
						}
					],
					"stateMutability": "view",
					"type": "function"
				},
				{
					"inputs": [],
					"name": "getIdx",
					"outputs": [
						{
							"internalType": "uint256",
							"name": "",
							"type": "uint256"
						}
					],
					"stateMutability": "view",
					"type": "function"
				}
			],
			"devdoc": {
				"kind": "dev",
				"methods": {},
				"version": 1
			},
			"evm": {
				"assembly": "    /* \"blockmonkey/ReviewDapp/Test.sol\":58:916  contract Test {... */\n  mstore(0x40, 0x80)\n    /* \"blockmonkey/ReviewDapp/Test.sol\":214:215  1 */\n  0x01\n    /* \"blockmonkey/ReviewDapp/Test.sol\":195:215  uint TotalSupply = 1 */\n  0x00\n  sstore\n    /* \"blockmonkey/ReviewDapp/Test.sol\":58:916  contract Test {... */\n  callvalue\n  dup1\n  iszero\n  tag_1\n  jumpi\n  0x00\n  dup1\n  revert\ntag_1:\n  pop\n  dataSize(sub_0)\n  dup1\n  dataOffset(sub_0)\n  0x00\n  codecopy\n  0x00\n  return\nstop\n\nsub_0: assembly {\n        /* \"blockmonkey/ReviewDapp/Test.sol\":58:916  contract Test {... */\n      mstore(0x40, 0x80)\n      callvalue\n      dup1\n      iszero\n      tag_1\n      jumpi\n      0x00\n      dup1\n      revert\n    tag_1:\n      pop\n      jumpi(tag_2, lt(calldatasize, 0x04))\n      shr(0xe0, calldataload(0x00))\n      dup1\n      0x04d8e033\n      eq\n      tag_3\n      jumpi\n      dup1\n      0x5d28560a\n      eq\n      tag_4\n      jumpi\n      dup1\n      0x6a8aac7a\n      eq\n      tag_5\n      jumpi\n      dup1\n      0x9507d39a\n      eq\n      tag_6\n      jumpi\n    tag_2:\n      0x00\n      dup1\n      revert\n        /* \"blockmonkey/ReviewDapp/Test.sol\":221:267  mapping (uint => Review) public Review_mapping */\n    tag_3:\n      tag_7\n      0x04\n      dup1\n      calldatasize\n      sub\n      dup2\n      add\n      swap1\n      tag_8\n      swap2\n      swap1\n      tag_9\n      jump\t// in\n    tag_8:\n      tag_10\n      jump\t// in\n    tag_7:\n      mload(0x40)\n      tag_11\n      swap5\n      swap4\n      swap3\n      swap2\n      swap1\n      tag_12\n      jump\t// in\n    tag_11:\n      mload(0x40)\n      dup1\n      swap2\n      sub\n      swap1\n      return\n        /* \"blockmonkey/ReviewDapp/Test.sol\":274:573  function create(string memory _title, string memory _des, string memory _writer) public {... */\n    tag_4:\n      tag_13\n      0x04\n      dup1\n      calldatasize\n      sub\n      dup2\n      add\n      swap1\n      tag_14\n      swap2\n      swap1\n      tag_15\n      jump\t// in\n    tag_14:\n      tag_16\n      jump\t// in\n    tag_13:\n      stop\n        /* \"blockmonkey/ReviewDapp/Test.sol\":836:914  function getIdx() public view returns(uint){... */\n    tag_5:\n      tag_17\n      tag_18\n      jump\t// in\n    tag_17:\n      mload(0x40)\n      tag_19\n      swap2\n      swap1\n      tag_20\n      jump\t// in\n    tag_19:\n      mload(0x40)\n      dup1\n      swap2\n      sub\n      swap1\n      return\n        /* \"blockmonkey/ReviewDapp/Test.sol\":579:830  function get(uint _idx) public view returns(uint, string memory, string memory, string memory){... */\n    tag_6:\n      tag_21\n      0x04\n      dup1\n      calldatasize\n      sub\n      dup2\n      add\n      swap1\n      tag_22\n      swap2\n      swap1\n      tag_9\n      jump\t// in\n    tag_22:\n      tag_23\n      jump\t// in\n    tag_21:\n      mload(0x40)\n      tag_24\n      swap5\n      swap4\n      swap3\n      swap2\n      swap1\n      tag_12\n      jump\t// in\n    tag_24:\n      mload(0x40)\n      dup1\n      swap2\n      sub\n      swap1\n      return\n        /* \"blockmonkey/ReviewDapp/Test.sol\":221:267  mapping (uint => Review) public Review_mapping */\n    tag_10:\n      mstore(0x20, 0x01)\n      dup1\n      0x00\n      mstore\n      keccak256(0x00, 0x40)\n      0x00\n      swap2\n      pop\n      swap1\n      pop\n      dup1\n      0x00\n      add\n      sload\n      swap1\n      dup1\n      0x01\n      add\n      dup1\n      sload\n      tag_25\n      swap1\n      tag_26\n      jump\t// in\n    tag_25:\n      dup1\n      0x1f\n      add\n      0x20\n      dup1\n      swap2\n      div\n      mul\n      0x20\n      add\n      mload(0x40)\n      swap1\n      dup2\n      add\n      0x40\n      mstore\n      dup1\n      swap3\n      swap2\n      swap1\n      dup2\n      dup2\n      mstore\n      0x20\n      add\n      dup3\n      dup1\n      sload\n      tag_27\n      swap1\n      tag_26\n      jump\t// in\n    tag_27:\n      dup1\n      iszero\n      tag_28\n      jumpi\n      dup1\n      0x1f\n      lt\n      tag_29\n      jumpi\n      0x0100\n      dup1\n      dup4\n      sload\n      div\n      mul\n      dup4\n      mstore\n      swap2\n      0x20\n      add\n      swap2\n      jump(tag_28)\n    tag_29:\n      dup3\n      add\n      swap2\n      swap1\n      0x00\n      mstore\n      keccak256(0x00, 0x20)\n      swap1\n    tag_30:\n      dup2\n      sload\n      dup2\n      mstore\n      swap1\n      0x01\n      add\n      swap1\n      0x20\n      add\n      dup1\n      dup4\n      gt\n      tag_30\n      jumpi\n      dup3\n      swap1\n      sub\n      0x1f\n      and\n      dup3\n      add\n      swap2\n    tag_28:\n      pop\n      pop\n      pop\n      pop\n      pop\n      swap1\n      dup1\n      0x02\n      add\n      dup1\n      sload\n      tag_31\n      swap1\n      tag_26\n      jump\t// in\n    tag_31:\n      dup1\n      0x1f\n      add\n      0x20\n      dup1\n      swap2\n      div\n      mul\n      0x20\n      add\n      mload(0x40)\n      swap1\n      dup2\n      add\n      0x40\n      mstore\n      dup1\n      swap3\n      swap2\n      swap1\n      dup2\n      dup2\n      mstore\n      0x20\n      add\n      dup3\n      dup1\n      sload\n      tag_32\n      swap1\n      tag_26\n      jump\t// in\n    tag_32:\n      dup1\n      iszero\n      tag_33\n      jumpi\n      dup1\n      0x1f\n      lt\n      tag_34\n      jumpi\n      0x0100\n      dup1\n      dup4\n      sload\n      div\n      mul\n      dup4\n      mstore\n      swap2\n      0x20\n      add\n      swap2\n      jump(tag_33)\n    tag_34:\n      dup3\n      add\n      swap2\n      swap1\n      0x00\n      mstore\n      keccak256(0x00, 0x20)\n      swap1\n    tag_35:\n      dup2\n      sload\n      dup2\n      mstore\n      swap1\n      0x01\n      add\n      swap1\n      0x20\n      add\n      dup1\n      dup4\n      gt\n      tag_35\n      jumpi\n      dup3\n      swap1\n      sub\n      0x1f\n      and\n      dup3\n      add\n      swap2\n    tag_33:\n      pop\n      pop\n      pop\n      pop\n      pop\n      swap1\n      dup1\n      0x03\n      add\n      dup1\n      sload\n      tag_36\n      swap1\n      tag_26\n      jump\t// in\n    tag_36:\n      dup1\n      0x1f\n      add\n      0x20\n      dup1\n      swap2\n      div\n      mul\n      0x20\n      add\n      mload(0x40)\n      swap1\n      dup2\n      add\n      0x40\n      mstore\n      dup1\n      swap3\n      swap2\n      swap1\n      dup2\n      dup2\n      mstore\n      0x20\n      add\n      dup3\n      dup1\n      sload\n      tag_37\n      swap1\n      tag_26\n      jump\t// in\n    tag_37:\n      dup1\n      iszero\n      tag_38\n      jumpi\n      dup1\n      0x1f\n      lt\n      tag_39\n      jumpi\n      0x0100\n      dup1\n      dup4\n      sload\n      div\n      mul\n      dup4\n      mstore\n      swap2\n      0x20\n      add\n      swap2\n      jump(tag_38)\n    tag_39:\n      dup3\n      add\n      swap2\n      swap1\n      0x00\n      mstore\n      keccak256(0x00, 0x20)\n      swap1\n    tag_40:\n      dup2\n      sload\n      dup2\n      mstore\n      swap1\n      0x01\n      add\n      swap1\n      0x20\n      add\n      dup1\n      dup4\n      gt\n      tag_40\n      jumpi\n      dup3\n      swap1\n      sub\n      0x1f\n      and\n      dup3\n      add\n      swap2\n    tag_38:\n      pop\n      pop\n      pop\n      pop\n      pop\n      swap1\n      pop\n      dup5\n      jump\t// out\n        /* \"blockmonkey/ReviewDapp/Test.sol\":274:573  function create(string memory _title, string memory _des, string memory _writer) public {... */\n    tag_16:\n        /* \"blockmonkey/ReviewDapp/Test.sol\":473:515  Review(TotalSupply, _title, _des, _writer) */\n      mload(0x40)\n      dup1\n      0x80\n      add\n      0x40\n      mstore\n      dup1\n        /* \"blockmonkey/ReviewDapp/Test.sol\":480:491  TotalSupply */\n      sload(0x00)\n        /* \"blockmonkey/ReviewDapp/Test.sol\":473:515  Review(TotalSupply, _title, _des, _writer) */\n      dup2\n      mstore\n      0x20\n      add\n        /* \"blockmonkey/ReviewDapp/Test.sol\":493:499  _title */\n      dup5\n        /* \"blockmonkey/ReviewDapp/Test.sol\":473:515  Review(TotalSupply, _title, _des, _writer) */\n      dup2\n      mstore\n      0x20\n      add\n        /* \"blockmonkey/ReviewDapp/Test.sol\":501:505  _des */\n      dup4\n        /* \"blockmonkey/ReviewDapp/Test.sol\":473:515  Review(TotalSupply, _title, _des, _writer) */\n      dup2\n      mstore\n      0x20\n      add\n        /* \"blockmonkey/ReviewDapp/Test.sol\":507:514  _writer */\n      dup3\n        /* \"blockmonkey/ReviewDapp/Test.sol\":473:515  Review(TotalSupply, _title, _des, _writer) */\n      dup2\n      mstore\n      pop\n        /* \"blockmonkey/ReviewDapp/Test.sol\":443:457  Review_mapping */\n      0x01\n        /* \"blockmonkey/ReviewDapp/Test.sol\":443:470  Review_mapping[TotalSupply] */\n      0x00\n        /* \"blockmonkey/ReviewDapp/Test.sol\":458:469  TotalSupply */\n      dup1\n      sload\n        /* \"blockmonkey/ReviewDapp/Test.sol\":443:470  Review_mapping[TotalSupply] */\n      dup2\n      mstore\n      0x20\n      add\n      swap1\n      dup2\n      mstore\n      0x20\n      add\n      0x00\n      keccak256\n        /* \"blockmonkey/ReviewDapp/Test.sol\":443:515  Review_mapping[TotalSupply] = Review(TotalSupply, _title, _des, _writer) */\n      0x00\n      dup3\n      add\n      mload\n      dup2\n      0x00\n      add\n      sstore\n      0x20\n      dup3\n      add\n      mload\n      dup2\n      0x01\n      add\n      swap1\n      dup1\n      mload\n      swap1\n      0x20\n      add\n      swap1\n      tag_42\n      swap3\n      swap2\n      swap1\n      tag_43\n      jump\t// in\n    tag_42:\n      pop\n      0x40\n      dup3\n      add\n      mload\n      dup2\n      0x02\n      add\n      swap1\n      dup1\n      mload\n      swap1\n      0x20\n      add\n      swap1\n      tag_44\n      swap3\n      swap2\n      swap1\n      tag_43\n      jump\t// in\n    tag_44:\n      pop\n      0x60\n      dup3\n      add\n      mload\n      dup2\n      0x03\n      add\n      swap1\n      dup1\n      mload\n      swap1\n      0x20\n      add\n      swap1\n      tag_45\n      swap3\n      swap2\n      swap1\n      tag_43\n      jump\t// in\n    tag_45:\n      pop\n      swap1\n      pop\n      pop\n        /* \"blockmonkey/ReviewDapp/Test.sol\":553:564  TotalSupply */\n      0x00\n      dup1\n        /* \"blockmonkey/ReviewDapp/Test.sol\":553:566  TotalSupply++ */\n      dup2\n      sload\n      dup1\n      swap3\n      swap2\n      swap1\n      tag_46\n      swap1\n      tag_47\n      jump\t// in\n    tag_46:\n      swap2\n      swap1\n      pop\n      sstore\n      pop\n        /* \"blockmonkey/ReviewDapp/Test.sol\":274:573  function create(string memory _title, string memory _des, string memory _writer) public {... */\n      pop\n      pop\n      pop\n      jump\t// out\n        /* \"blockmonkey/ReviewDapp/Test.sol\":836:914  function getIdx() public view returns(uint){... */\n    tag_18:\n        /* \"blockmonkey/ReviewDapp/Test.sol\":874:878  uint */\n      0x00\n        /* \"blockmonkey/ReviewDapp/Test.sol\":896:907  TotalSupply */\n      dup1\n      sload\n        /* \"blockmonkey/ReviewDapp/Test.sol\":889:907  return TotalSupply */\n      swap1\n      pop\n        /* \"blockmonkey/ReviewDapp/Test.sol\":836:914  function getIdx() public view returns(uint){... */\n      swap1\n      jump\t// out\n        /* \"blockmonkey/ReviewDapp/Test.sol\":579:830  function get(uint _idx) public view returns(uint, string memory, string memory, string memory){... */\n    tag_23:\n        /* \"blockmonkey/ReviewDapp/Test.sol\":623:627  uint */\n      0x00\n        /* \"blockmonkey/ReviewDapp/Test.sol\":629:642  string memory */\n      0x60\n        /* \"blockmonkey/ReviewDapp/Test.sol\":644:657  string memory */\n      dup1\n        /* \"blockmonkey/ReviewDapp/Test.sol\":659:672  string memory */\n      0x60\n        /* \"blockmonkey/ReviewDapp/Test.sol\":708:722  Review_mapping */\n      0x01\n        /* \"blockmonkey/ReviewDapp/Test.sol\":708:728  Review_mapping[_idx] */\n      0x00\n        /* \"blockmonkey/ReviewDapp/Test.sol\":723:727  _idx */\n      dup7\n        /* \"blockmonkey/ReviewDapp/Test.sol\":708:728  Review_mapping[_idx] */\n      dup2\n      mstore\n      0x20\n      add\n      swap1\n      dup2\n      mstore\n      0x20\n      add\n      0x00\n      keccak256\n        /* \"blockmonkey/ReviewDapp/Test.sol\":708:731  Review_mapping[_idx].id */\n      0x00\n      add\n      sload\n        /* \"blockmonkey/ReviewDapp/Test.sol\":733:747  Review_mapping */\n      0x01\n        /* \"blockmonkey/ReviewDapp/Test.sol\":733:753  Review_mapping[_idx] */\n      0x00\n        /* \"blockmonkey/ReviewDapp/Test.sol\":748:752  _idx */\n      dup8\n        /* \"blockmonkey/ReviewDapp/Test.sol\":733:753  Review_mapping[_idx] */\n      dup2\n      mstore\n      0x20\n      add\n      swap1\n      dup2\n      mstore\n      0x20\n      add\n      0x00\n      keccak256\n        /* \"blockmonkey/ReviewDapp/Test.sol\":733:759  Review_mapping[_idx].title */\n      0x01\n      add\n        /* \"blockmonkey/ReviewDapp/Test.sol\":761:775  Review_mapping */\n      0x01\n        /* \"blockmonkey/ReviewDapp/Test.sol\":761:781  Review_mapping[_idx] */\n      0x00\n        /* \"blockmonkey/ReviewDapp/Test.sol\":776:780  _idx */\n      dup9\n        /* \"blockmonkey/ReviewDapp/Test.sol\":761:781  Review_mapping[_idx] */\n      dup2\n      mstore\n      0x20\n      add\n      swap1\n      dup2\n      mstore\n      0x20\n      add\n      0x00\n      keccak256\n        /* \"blockmonkey/ReviewDapp/Test.sol\":761:793  Review_mapping[_idx].description */\n      0x02\n      add\n        /* \"blockmonkey/ReviewDapp/Test.sol\":795:809  Review_mapping */\n      0x01\n        /* \"blockmonkey/ReviewDapp/Test.sol\":795:815  Review_mapping[_idx] */\n      0x00\n        /* \"blockmonkey/ReviewDapp/Test.sol\":810:814  _idx */\n      dup10\n        /* \"blockmonkey/ReviewDapp/Test.sol\":795:815  Review_mapping[_idx] */\n      dup2\n      mstore\n      0x20\n      add\n      swap1\n      dup2\n      mstore\n      0x20\n      add\n      0x00\n      keccak256\n        /* \"blockmonkey/ReviewDapp/Test.sol\":795:822  Review_mapping[_idx].writer */\n      0x03\n      add\n        /* \"blockmonkey/ReviewDapp/Test.sol\":701:823  return(Review_mapping[_idx].id, Review_mapping[_idx].title, Review_mapping[_idx].description, Review_mapping[_idx].writer) */\n      dup3\n      dup1\n      sload\n      tag_50\n      swap1\n      tag_26\n      jump\t// in\n    tag_50:\n      dup1\n      0x1f\n      add\n      0x20\n      dup1\n      swap2\n      div\n      mul\n      0x20\n      add\n      mload(0x40)\n      swap1\n      dup2\n      add\n      0x40\n      mstore\n      dup1\n      swap3\n      swap2\n      swap1\n      dup2\n      dup2\n      mstore\n      0x20\n      add\n      dup3\n      dup1\n      sload\n      tag_51\n      swap1\n      tag_26\n      jump\t// in\n    tag_51:\n      dup1\n      iszero\n      tag_52\n      jumpi\n      dup1\n      0x1f\n      lt\n      tag_53\n      jumpi\n      0x0100\n      dup1\n      dup4\n      sload\n      div\n      mul\n      dup4\n      mstore\n      swap2\n      0x20\n      add\n      swap2\n      jump(tag_52)\n    tag_53:\n      dup3\n      add\n      swap2\n      swap1\n      0x00\n      mstore\n      keccak256(0x00, 0x20)\n      swap1\n    tag_54:\n      dup2\n      sload\n      dup2\n      mstore\n      swap1\n      0x01\n      add\n      swap1\n      0x20\n      add\n      dup1\n      dup4\n      gt\n      tag_54\n      jumpi\n      dup3\n      swap1\n      sub\n      0x1f\n      and\n      dup3\n      add\n      swap2\n    tag_52:\n      pop\n      pop\n      pop\n      pop\n      pop\n      swap3\n      pop\n      dup2\n      dup1\n      sload\n      tag_55\n      swap1\n      tag_26\n      jump\t// in\n    tag_55:\n      dup1\n      0x1f\n      add\n      0x20\n      dup1\n      swap2\n      div\n      mul\n      0x20\n      add\n      mload(0x40)\n      swap1\n      dup2\n      add\n      0x40\n      mstore\n      dup1\n      swap3\n      swap2\n      swap1\n      dup2\n      dup2\n      mstore\n      0x20\n      add\n      dup3\n      dup1\n      sload\n      tag_56\n      swap1\n      tag_26\n      jump\t// in\n    tag_56:\n      dup1\n      iszero\n      tag_57\n      jumpi\n      dup1\n      0x1f\n      lt\n      tag_58\n      jumpi\n      0x0100\n      dup1\n      dup4\n      sload\n      div\n      mul\n      dup4\n      mstore\n      swap2\n      0x20\n      add\n      swap2\n      jump(tag_57)\n    tag_58:\n      dup3\n      add\n      swap2\n      swap1\n      0x00\n      mstore\n      keccak256(0x00, 0x20)\n      swap1\n    tag_59:\n      dup2\n      sload\n      dup2\n      mstore\n      swap1\n      0x01\n      add\n      swap1\n      0x20\n      add\n      dup1\n      dup4\n      gt\n      tag_59\n      jumpi\n      dup3\n      swap1\n      sub\n      0x1f\n      and\n      dup3\n      add\n      swap2\n    tag_57:\n      pop\n      pop\n      pop\n      pop\n      pop\n      swap2\n      pop\n      dup1\n      dup1\n      sload\n      tag_60\n      swap1\n      tag_26\n      jump\t// in\n    tag_60:\n      dup1\n      0x1f\n      add\n      0x20\n      dup1\n      swap2\n      div\n      mul\n      0x20\n      add\n      mload(0x40)\n      swap1\n      dup2\n      add\n      0x40\n      mstore\n      dup1\n      swap3\n      swap2\n      swap1\n      dup2\n      dup2\n      mstore\n      0x20\n      add\n      dup3\n      dup1\n      sload\n      tag_61\n      swap1\n      tag_26\n      jump\t// in\n    tag_61:\n      dup1\n      iszero\n      tag_62\n      jumpi\n      dup1\n      0x1f\n      lt\n      tag_63\n      jumpi\n      0x0100\n      dup1\n      dup4\n      sload\n      div\n      mul\n      dup4\n      mstore\n      swap2\n      0x20\n      add\n      swap2\n      jump(tag_62)\n    tag_63:\n      dup3\n      add\n      swap2\n      swap1\n      0x00\n      mstore\n      keccak256(0x00, 0x20)\n      swap1\n    tag_64:\n      dup2\n      sload\n      dup2\n      mstore\n      swap1\n      0x01\n      add\n      swap1\n      0x20\n      add\n      dup1\n      dup4\n      gt\n      tag_64\n      jumpi\n      dup3\n      swap1\n      sub\n      0x1f\n      and\n      dup3\n      add\n      swap2\n    tag_62:\n      pop\n      pop\n      pop\n      pop\n      pop\n      swap1\n      pop\n      swap4\n      pop\n      swap4\n      pop\n      swap4\n      pop\n      swap4\n      pop\n        /* \"blockmonkey/ReviewDapp/Test.sol\":579:830  function get(uint _idx) public view returns(uint, string memory, string memory, string memory){... */\n      swap2\n      swap4\n      pop\n      swap2\n      swap4\n      jump\t// out\n    tag_43:\n      dup3\n      dup1\n      sload\n      tag_65\n      swap1\n      tag_26\n      jump\t// in\n    tag_65:\n      swap1\n      0x00\n      mstore\n      keccak256(0x00, 0x20)\n      swap1\n      0x1f\n      add\n      0x20\n      swap1\n      div\n      dup2\n      add\n      swap3\n      dup3\n      tag_67\n      jumpi\n      0x00\n      dup6\n      sstore\n      jump(tag_66)\n    tag_67:\n      dup3\n      0x1f\n      lt\n      tag_68\n      jumpi\n      dup1\n      mload\n      not(0xff)\n      and\n      dup4\n      dup1\n      add\n      or\n      dup6\n      sstore\n      jump(tag_66)\n    tag_68:\n      dup3\n      dup1\n      add\n      0x01\n      add\n      dup6\n      sstore\n      dup3\n      iszero\n      tag_66\n      jumpi\n      swap2\n      dup3\n      add\n    tag_69:\n      dup3\n      dup2\n      gt\n      iszero\n      tag_70\n      jumpi\n      dup3\n      mload\n      dup3\n      sstore\n      swap2\n      0x20\n      add\n      swap2\n      swap1\n      0x01\n      add\n      swap1\n      jump(tag_69)\n    tag_70:\n    tag_66:\n      pop\n      swap1\n      pop\n      tag_71\n      swap2\n      swap1\n      tag_72\n      jump\t// in\n    tag_71:\n      pop\n      swap1\n      jump\t// out\n    tag_72:\n    tag_73:\n      dup1\n      dup3\n      gt\n      iszero\n      tag_74\n      jumpi\n      0x00\n      dup2\n      0x00\n      swap1\n      sstore\n      pop\n      0x01\n      add\n      jump(tag_73)\n    tag_74:\n      pop\n      swap1\n      jump\t// out\n        /* \"#utility.yul\":7:419   */\n    tag_76:\n        /* \"#utility.yul\":85:90   */\n      0x00\n        /* \"#utility.yul\":110:176   */\n      tag_78\n        /* \"#utility.yul\":126:175   */\n      tag_79\n        /* \"#utility.yul\":168:174   */\n      dup5\n        /* \"#utility.yul\":126:175   */\n      tag_80\n      jump\t// in\n    tag_79:\n        /* \"#utility.yul\":110:176   */\n      tag_81\n      jump\t// in\n    tag_78:\n        /* \"#utility.yul\":101:176   */\n      swap1\n      pop\n        /* \"#utility.yul\":199:205   */\n      dup3\n        /* \"#utility.yul\":192:197   */\n      dup2\n        /* \"#utility.yul\":185:206   */\n      mstore\n        /* \"#utility.yul\":237:241   */\n      0x20\n        /* \"#utility.yul\":230:235   */\n      dup2\n        /* \"#utility.yul\":226:242   */\n      add\n        /* \"#utility.yul\":275:278   */\n      dup5\n        /* \"#utility.yul\":266:272   */\n      dup5\n        /* \"#utility.yul\":261:264   */\n      dup5\n        /* \"#utility.yul\":257:273   */\n      add\n        /* \"#utility.yul\":254:279   */\n      gt\n        /* \"#utility.yul\":251:363   */\n      iszero\n      tag_82\n      jumpi\n        /* \"#utility.yul\":282:361   */\n      tag_83\n      tag_84\n      jump\t// in\n    tag_83:\n        /* \"#utility.yul\":251:363   */\n    tag_82:\n        /* \"#utility.yul\":372:413   */\n      tag_85\n        /* \"#utility.yul\":406:412   */\n      dup5\n        /* \"#utility.yul\":401:404   */\n      dup3\n        /* \"#utility.yul\":396:399   */\n      dup6\n        /* \"#utility.yul\":372:413   */\n      tag_86\n      jump\t// in\n    tag_85:\n        /* \"#utility.yul\":91:419   */\n      pop\n        /* \"#utility.yul\":7:419   */\n      swap4\n      swap3\n      pop\n      pop\n      pop\n      jump\t// out\n        /* \"#utility.yul\":439:779   */\n    tag_87:\n        /* \"#utility.yul\":495:500   */\n      0x00\n        /* \"#utility.yul\":544:547   */\n      dup3\n        /* \"#utility.yul\":537:541   */\n      0x1f\n        /* \"#utility.yul\":529:535   */\n      dup4\n        /* \"#utility.yul\":525:542   */\n      add\n        /* \"#utility.yul\":521:548   */\n      slt\n        /* \"#utility.yul\":511:633   */\n      tag_89\n      jumpi\n        /* \"#utility.yul\":552:631   */\n      tag_90\n      tag_91\n      jump\t// in\n    tag_90:\n        /* \"#utility.yul\":511:633   */\n    tag_89:\n        /* \"#utility.yul\":669:675   */\n      dup2\n        /* \"#utility.yul\":656:676   */\n      calldataload\n        /* \"#utility.yul\":694:773   */\n      tag_92\n        /* \"#utility.yul\":769:772   */\n      dup5\n        /* \"#utility.yul\":761:767   */\n      dup3\n        /* \"#utility.yul\":754:758   */\n      0x20\n        /* \"#utility.yul\":746:752   */\n      dup7\n        /* \"#utility.yul\":742:759   */\n      add\n        /* \"#utility.yul\":694:773   */\n      tag_76\n      jump\t// in\n    tag_92:\n        /* \"#utility.yul\":685:773   */\n      swap2\n      pop\n        /* \"#utility.yul\":501:779   */\n      pop\n        /* \"#utility.yul\":439:779   */\n      swap3\n      swap2\n      pop\n      pop\n      jump\t// out\n        /* \"#utility.yul\":785:924   */\n    tag_93:\n        /* \"#utility.yul\":831:836   */\n      0x00\n        /* \"#utility.yul\":869:875   */\n      dup2\n        /* \"#utility.yul\":856:876   */\n      calldataload\n        /* \"#utility.yul\":847:876   */\n      swap1\n      pop\n        /* \"#utility.yul\":885:918   */\n      tag_95\n        /* \"#utility.yul\":912:917   */\n      dup2\n        /* \"#utility.yul\":885:918   */\n      tag_96\n      jump\t// in\n    tag_95:\n        /* \"#utility.yul\":785:924   */\n      swap3\n      swap2\n      pop\n      pop\n      jump\t// out\n        /* \"#utility.yul\":930:2089   */\n    tag_15:\n        /* \"#utility.yul\":1037:1043   */\n      0x00\n        /* \"#utility.yul\":1045:1051   */\n      dup1\n        /* \"#utility.yul\":1053:1059   */\n      0x00\n        /* \"#utility.yul\":1102:1104   */\n      0x60\n        /* \"#utility.yul\":1090:1099   */\n      dup5\n        /* \"#utility.yul\":1081:1088   */\n      dup7\n        /* \"#utility.yul\":1077:1100   */\n      sub\n        /* \"#utility.yul\":1073:1105   */\n      slt\n        /* \"#utility.yul\":1070:1189   */\n      iszero\n      tag_98\n      jumpi\n        /* \"#utility.yul\":1108:1187   */\n      tag_99\n      tag_100\n      jump\t// in\n    tag_99:\n        /* \"#utility.yul\":1070:1189   */\n    tag_98:\n        /* \"#utility.yul\":1256:1257   */\n      0x00\n        /* \"#utility.yul\":1245:1254   */\n      dup5\n        /* \"#utility.yul\":1241:1258   */\n      add\n        /* \"#utility.yul\":1228:1259   */\n      calldataload\n        /* \"#utility.yul\":1286:1304   */\n      0xffffffffffffffff\n        /* \"#utility.yul\":1278:1284   */\n      dup2\n        /* \"#utility.yul\":1275:1305   */\n      gt\n        /* \"#utility.yul\":1272:1389   */\n      iszero\n      tag_101\n      jumpi\n        /* \"#utility.yul\":1308:1387   */\n      tag_102\n      tag_103\n      jump\t// in\n    tag_102:\n        /* \"#utility.yul\":1272:1389   */\n    tag_101:\n        /* \"#utility.yul\":1413:1476   */\n      tag_104\n        /* \"#utility.yul\":1468:1475   */\n      dup7\n        /* \"#utility.yul\":1459:1465   */\n      dup3\n        /* \"#utility.yul\":1448:1457   */\n      dup8\n        /* \"#utility.yul\":1444:1466   */\n      add\n        /* \"#utility.yul\":1413:1476   */\n      tag_87\n      jump\t// in\n    tag_104:\n        /* \"#utility.yul\":1403:1476   */\n      swap4\n      pop\n        /* \"#utility.yul\":1199:1486   */\n      pop\n        /* \"#utility.yul\":1553:1555   */\n      0x20\n        /* \"#utility.yul\":1542:1551   */\n      dup5\n        /* \"#utility.yul\":1538:1556   */\n      add\n        /* \"#utility.yul\":1525:1557   */\n      calldataload\n        /* \"#utility.yul\":1584:1602   */\n      0xffffffffffffffff\n        /* \"#utility.yul\":1576:1582   */\n      dup2\n        /* \"#utility.yul\":1573:1603   */\n      gt\n        /* \"#utility.yul\":1570:1687   */\n      iszero\n      tag_105\n      jumpi\n        /* \"#utility.yul\":1606:1685   */\n      tag_106\n      tag_103\n      jump\t// in\n    tag_106:\n        /* \"#utility.yul\":1570:1687   */\n    tag_105:\n        /* \"#utility.yul\":1711:1774   */\n      tag_107\n        /* \"#utility.yul\":1766:1773   */\n      dup7\n        /* \"#utility.yul\":1757:1763   */\n      dup3\n        /* \"#utility.yul\":1746:1755   */\n      dup8\n        /* \"#utility.yul\":1742:1764   */\n      add\n        /* \"#utility.yul\":1711:1774   */\n      tag_87\n      jump\t// in\n    tag_107:\n        /* \"#utility.yul\":1701:1774   */\n      swap3\n      pop\n        /* \"#utility.yul\":1496:1784   */\n      pop\n        /* \"#utility.yul\":1851:1853   */\n      0x40\n        /* \"#utility.yul\":1840:1849   */\n      dup5\n        /* \"#utility.yul\":1836:1854   */\n      add\n        /* \"#utility.yul\":1823:1855   */\n      calldataload\n        /* \"#utility.yul\":1882:1900   */\n      0xffffffffffffffff\n        /* \"#utility.yul\":1874:1880   */\n      dup2\n        /* \"#utility.yul\":1871:1901   */\n      gt\n        /* \"#utility.yul\":1868:1985   */\n      iszero\n      tag_108\n      jumpi\n        /* \"#utility.yul\":1904:1983   */\n      tag_109\n      tag_103\n      jump\t// in\n    tag_109:\n        /* \"#utility.yul\":1868:1985   */\n    tag_108:\n        /* \"#utility.yul\":2009:2072   */\n      tag_110\n        /* \"#utility.yul\":2064:2071   */\n      dup7\n        /* \"#utility.yul\":2055:2061   */\n      dup3\n        /* \"#utility.yul\":2044:2053   */\n      dup8\n        /* \"#utility.yul\":2040:2062   */\n      add\n        /* \"#utility.yul\":2009:2072   */\n      tag_87\n      jump\t// in\n    tag_110:\n        /* \"#utility.yul\":1999:2072   */\n      swap2\n      pop\n        /* \"#utility.yul\":1794:2082   */\n      pop\n        /* \"#utility.yul\":930:2089   */\n      swap3\n      pop\n      swap3\n      pop\n      swap3\n      jump\t// out\n        /* \"#utility.yul\":2095:2424   */\n    tag_9:\n        /* \"#utility.yul\":2154:2160   */\n      0x00\n        /* \"#utility.yul\":2203:2205   */\n      0x20\n        /* \"#utility.yul\":2191:2200   */\n      dup3\n        /* \"#utility.yul\":2182:2189   */\n      dup5\n        /* \"#utility.yul\":2178:2201   */\n      sub\n        /* \"#utility.yul\":2174:2206   */\n      slt\n        /* \"#utility.yul\":2171:2290   */\n      iszero\n      tag_112\n      jumpi\n        /* \"#utility.yul\":2209:2288   */\n      tag_113\n      tag_100\n      jump\t// in\n    tag_113:\n        /* \"#utility.yul\":2171:2290   */\n    tag_112:\n        /* \"#utility.yul\":2329:2330   */\n      0x00\n        /* \"#utility.yul\":2354:2407   */\n      tag_114\n        /* \"#utility.yul\":2399:2406   */\n      dup5\n        /* \"#utility.yul\":2390:2396   */\n      dup3\n        /* \"#utility.yul\":2379:2388   */\n      dup6\n        /* \"#utility.yul\":2375:2397   */\n      add\n        /* \"#utility.yul\":2354:2407   */\n      tag_93\n      jump\t// in\n    tag_114:\n        /* \"#utility.yul\":2344:2407   */\n      swap2\n      pop\n        /* \"#utility.yul\":2300:2417   */\n      pop\n        /* \"#utility.yul\":2095:2424   */\n      swap3\n      swap2\n      pop\n      pop\n      jump\t// out\n        /* \"#utility.yul\":2430:2794   */\n    tag_115:\n        /* \"#utility.yul\":2518:2521   */\n      0x00\n        /* \"#utility.yul\":2546:2585   */\n      tag_117\n        /* \"#utility.yul\":2579:2584   */\n      dup3\n        /* \"#utility.yul\":2546:2585   */\n      tag_118\n      jump\t// in\n    tag_117:\n        /* \"#utility.yul\":2601:2672   */\n      tag_119\n        /* \"#utility.yul\":2665:2671   */\n      dup2\n        /* \"#utility.yul\":2660:2663   */\n      dup6\n        /* \"#utility.yul\":2601:2672   */\n      tag_120\n      jump\t// in\n    tag_119:\n        /* \"#utility.yul\":2594:2672   */\n      swap4\n      pop\n        /* \"#utility.yul\":2681:2733   */\n      tag_121\n        /* \"#utility.yul\":2726:2732   */\n      dup2\n        /* \"#utility.yul\":2721:2724   */\n      dup6\n        /* \"#utility.yul\":2714:2718   */\n      0x20\n        /* \"#utility.yul\":2707:2712   */\n      dup7\n        /* \"#utility.yul\":2703:2719   */\n      add\n        /* \"#utility.yul\":2681:2733   */\n      tag_122\n      jump\t// in\n    tag_121:\n        /* \"#utility.yul\":2758:2787   */\n      tag_123\n        /* \"#utility.yul\":2780:2786   */\n      dup2\n        /* \"#utility.yul\":2758:2787   */\n      tag_124\n      jump\t// in\n    tag_123:\n        /* \"#utility.yul\":2753:2756   */\n      dup5\n        /* \"#utility.yul\":2749:2788   */\n      add\n        /* \"#utility.yul\":2742:2788   */\n      swap2\n      pop\n        /* \"#utility.yul\":2522:2794   */\n      pop\n        /* \"#utility.yul\":2430:2794   */\n      swap3\n      swap2\n      pop\n      pop\n      jump\t// out\n        /* \"#utility.yul\":2800:2918   */\n    tag_125:\n        /* \"#utility.yul\":2887:2911   */\n      tag_127\n        /* \"#utility.yul\":2905:2910   */\n      dup2\n        /* \"#utility.yul\":2887:2911   */\n      tag_128\n      jump\t// in\n    tag_127:\n        /* \"#utility.yul\":2882:2885   */\n      dup3\n        /* \"#utility.yul\":2875:2912   */\n      mstore\n        /* \"#utility.yul\":2800:2918   */\n      pop\n      pop\n      jump\t// out\n        /* \"#utility.yul\":2924:3146   */\n    tag_20:\n        /* \"#utility.yul\":3017:3021   */\n      0x00\n        /* \"#utility.yul\":3055:3057   */\n      0x20\n        /* \"#utility.yul\":3044:3053   */\n      dup3\n        /* \"#utility.yul\":3040:3058   */\n      add\n        /* \"#utility.yul\":3032:3058   */\n      swap1\n      pop\n        /* \"#utility.yul\":3068:3139   */\n      tag_130\n        /* \"#utility.yul\":3136:3137   */\n      0x00\n        /* \"#utility.yul\":3125:3134   */\n      dup4\n        /* \"#utility.yul\":3121:3138   */\n      add\n        /* \"#utility.yul\":3112:3118   */\n      dup5\n        /* \"#utility.yul\":3068:3139   */\n      tag_125\n      jump\t// in\n    tag_130:\n        /* \"#utility.yul\":2924:3146   */\n      swap3\n      swap2\n      pop\n      pop\n      jump\t// out\n        /* \"#utility.yul\":3152:3978   */\n    tag_12:\n        /* \"#utility.yul\":3389:3393   */\n      0x00\n        /* \"#utility.yul\":3427:3430   */\n      0x80\n        /* \"#utility.yul\":3416:3425   */\n      dup3\n        /* \"#utility.yul\":3412:3431   */\n      add\n        /* \"#utility.yul\":3404:3431   */\n      swap1\n      pop\n        /* \"#utility.yul\":3441:3512   */\n      tag_132\n        /* \"#utility.yul\":3509:3510   */\n      0x00\n        /* \"#utility.yul\":3498:3507   */\n      dup4\n        /* \"#utility.yul\":3494:3511   */\n      add\n        /* \"#utility.yul\":3485:3491   */\n      dup8\n        /* \"#utility.yul\":3441:3512   */\n      tag_125\n      jump\t// in\n    tag_132:\n        /* \"#utility.yul\":3559:3568   */\n      dup2\n        /* \"#utility.yul\":3553:3557   */\n      dup2\n        /* \"#utility.yul\":3549:3569   */\n      sub\n        /* \"#utility.yul\":3544:3546   */\n      0x20\n        /* \"#utility.yul\":3533:3542   */\n      dup4\n        /* \"#utility.yul\":3529:3547   */\n      add\n        /* \"#utility.yul\":3522:3570   */\n      mstore\n        /* \"#utility.yul\":3587:3665   */\n      tag_133\n        /* \"#utility.yul\":3660:3664   */\n      dup2\n        /* \"#utility.yul\":3651:3657   */\n      dup7\n        /* \"#utility.yul\":3587:3665   */\n      tag_115\n      jump\t// in\n    tag_133:\n        /* \"#utility.yul\":3579:3665   */\n      swap1\n      pop\n        /* \"#utility.yul\":3712:3721   */\n      dup2\n        /* \"#utility.yul\":3706:3710   */\n      dup2\n        /* \"#utility.yul\":3702:3722   */\n      sub\n        /* \"#utility.yul\":3697:3699   */\n      0x40\n        /* \"#utility.yul\":3686:3695   */\n      dup4\n        /* \"#utility.yul\":3682:3700   */\n      add\n        /* \"#utility.yul\":3675:3723   */\n      mstore\n        /* \"#utility.yul\":3740:3818   */\n      tag_134\n        /* \"#utility.yul\":3813:3817   */\n      dup2\n        /* \"#utility.yul\":3804:3810   */\n      dup6\n        /* \"#utility.yul\":3740:3818   */\n      tag_115\n      jump\t// in\n    tag_134:\n        /* \"#utility.yul\":3732:3818   */\n      swap1\n      pop\n        /* \"#utility.yul\":3865:3874   */\n      dup2\n        /* \"#utility.yul\":3859:3863   */\n      dup2\n        /* \"#utility.yul\":3855:3875   */\n      sub\n        /* \"#utility.yul\":3850:3852   */\n      0x60\n        /* \"#utility.yul\":3839:3848   */\n      dup4\n        /* \"#utility.yul\":3835:3853   */\n      add\n        /* \"#utility.yul\":3828:3876   */\n      mstore\n        /* \"#utility.yul\":3893:3971   */\n      tag_135\n        /* \"#utility.yul\":3966:3970   */\n      dup2\n        /* \"#utility.yul\":3957:3963   */\n      dup5\n        /* \"#utility.yul\":3893:3971   */\n      tag_115\n      jump\t// in\n    tag_135:\n        /* \"#utility.yul\":3885:3971   */\n      swap1\n      pop\n        /* \"#utility.yul\":3152:3978   */\n      swap6\n      swap5\n      pop\n      pop\n      pop\n      pop\n      pop\n      jump\t// out\n        /* \"#utility.yul\":3984:4113   */\n    tag_81:\n        /* \"#utility.yul\":4018:4024   */\n      0x00\n        /* \"#utility.yul\":4045:4065   */\n      tag_137\n      tag_138\n      jump\t// in\n    tag_137:\n        /* \"#utility.yul\":4035:4065   */\n      swap1\n      pop\n        /* \"#utility.yul\":4074:4107   */\n      tag_139\n        /* \"#utility.yul\":4102:4106   */\n      dup3\n        /* \"#utility.yul\":4094:4100   */\n      dup3\n        /* \"#utility.yul\":4074:4107   */\n      tag_140\n      jump\t// in\n    tag_139:\n        /* \"#utility.yul\":3984:4113   */\n      swap2\n      swap1\n      pop\n      jump\t// out\n        /* \"#utility.yul\":4119:4194   */\n    tag_138:\n        /* \"#utility.yul\":4152:4158   */\n      0x00\n        /* \"#utility.yul\":4185:4187   */\n      0x40\n        /* \"#utility.yul\":4179:4188   */\n      mload\n        /* \"#utility.yul\":4169:4188   */\n      swap1\n      pop\n        /* \"#utility.yul\":4119:4194   */\n      swap1\n      jump\t// out\n        /* \"#utility.yul\":4200:4508   */\n    tag_80:\n        /* \"#utility.yul\":4262:4266   */\n      0x00\n        /* \"#utility.yul\":4352:4370   */\n      0xffffffffffffffff\n        /* \"#utility.yul\":4344:4350   */\n      dup3\n        /* \"#utility.yul\":4341:4371   */\n      gt\n        /* \"#utility.yul\":4338:4394   */\n      iszero\n      tag_143\n      jumpi\n        /* \"#utility.yul\":4374:4392   */\n      tag_144\n      tag_145\n      jump\t// in\n    tag_144:\n        /* \"#utility.yul\":4338:4394   */\n    tag_143:\n        /* \"#utility.yul\":4412:4441   */\n      tag_146\n        /* \"#utility.yul\":4434:4440   */\n      dup3\n        /* \"#utility.yul\":4412:4441   */\n      tag_124\n      jump\t// in\n    tag_146:\n        /* \"#utility.yul\":4404:4441   */\n      swap1\n      pop\n        /* \"#utility.yul\":4496:4500   */\n      0x20\n        /* \"#utility.yul\":4490:4494   */\n      dup2\n        /* \"#utility.yul\":4486:4501   */\n      add\n        /* \"#utility.yul\":4478:4501   */\n      swap1\n      pop\n        /* \"#utility.yul\":4200:4508   */\n      swap2\n      swap1\n      pop\n      jump\t// out\n        /* \"#utility.yul\":4514:4613   */\n    tag_118:\n        /* \"#utility.yul\":4566:4572   */\n      0x00\n        /* \"#utility.yul\":4600:4605   */\n      dup2\n        /* \"#utility.yul\":4594:4606   */\n      mload\n        /* \"#utility.yul\":4584:4606   */\n      swap1\n      pop\n        /* \"#utility.yul\":4514:4613   */\n      swap2\n      swap1\n      pop\n      jump\t// out\n        /* \"#utility.yul\":4619:4788   */\n    tag_120:\n        /* \"#utility.yul\":4703:4714   */\n      0x00\n        /* \"#utility.yul\":4737:4743   */\n      dup3\n        /* \"#utility.yul\":4732:4735   */\n      dup3\n        /* \"#utility.yul\":4725:4744   */\n      mstore\n        /* \"#utility.yul\":4777:4781   */\n      0x20\n        /* \"#utility.yul\":4772:4775   */\n      dup3\n        /* \"#utility.yul\":4768:4782   */\n      add\n        /* \"#utility.yul\":4753:4782   */\n      swap1\n      pop\n        /* \"#utility.yul\":4619:4788   */\n      swap3\n      swap2\n      pop\n      pop\n      jump\t// out\n        /* \"#utility.yul\":4794:4871   */\n    tag_128:\n        /* \"#utility.yul\":4831:4838   */\n      0x00\n        /* \"#utility.yul\":4860:4865   */\n      dup2\n        /* \"#utility.yul\":4849:4865   */\n      swap1\n      pop\n        /* \"#utility.yul\":4794:4871   */\n      swap2\n      swap1\n      pop\n      jump\t// out\n        /* \"#utility.yul\":4877:5031   */\n    tag_86:\n        /* \"#utility.yul\":4961:4967   */\n      dup3\n        /* \"#utility.yul\":4956:4959   */\n      dup2\n        /* \"#utility.yul\":4951:4954   */\n      dup4\n        /* \"#utility.yul\":4938:4968   */\n      calldatacopy\n        /* \"#utility.yul\":5023:5024   */\n      0x00\n        /* \"#utility.yul\":5014:5020   */\n      dup4\n        /* \"#utility.yul\":5009:5012   */\n      dup4\n        /* \"#utility.yul\":5005:5021   */\n      add\n        /* \"#utility.yul\":4998:5025   */\n      mstore\n        /* \"#utility.yul\":4877:5031   */\n      pop\n      pop\n      pop\n      jump\t// out\n        /* \"#utility.yul\":5037:5344   */\n    tag_122:\n        /* \"#utility.yul\":5105:5106   */\n      0x00\n        /* \"#utility.yul\":5115:5228   */\n    tag_152:\n        /* \"#utility.yul\":5129:5135   */\n      dup4\n        /* \"#utility.yul\":5126:5127   */\n      dup2\n        /* \"#utility.yul\":5123:5136   */\n      lt\n        /* \"#utility.yul\":5115:5228   */\n      iszero\n      tag_154\n      jumpi\n        /* \"#utility.yul\":5214:5215   */\n      dup1\n        /* \"#utility.yul\":5209:5212   */\n      dup3\n        /* \"#utility.yul\":5205:5216   */\n      add\n        /* \"#utility.yul\":5199:5217   */\n      mload\n        /* \"#utility.yul\":5195:5196   */\n      dup2\n        /* \"#utility.yul\":5190:5193   */\n      dup5\n        /* \"#utility.yul\":5186:5197   */\n      add\n        /* \"#utility.yul\":5179:5218   */\n      mstore\n        /* \"#utility.yul\":5151:5153   */\n      0x20\n        /* \"#utility.yul\":5148:5149   */\n      dup2\n        /* \"#utility.yul\":5144:5154   */\n      add\n        /* \"#utility.yul\":5139:5154   */\n      swap1\n      pop\n        /* \"#utility.yul\":5115:5228   */\n      jump(tag_152)\n    tag_154:\n        /* \"#utility.yul\":5246:5252   */\n      dup4\n        /* \"#utility.yul\":5243:5244   */\n      dup2\n        /* \"#utility.yul\":5240:5253   */\n      gt\n        /* \"#utility.yul\":5237:5338   */\n      iszero\n      tag_155\n      jumpi\n        /* \"#utility.yul\":5326:5327   */\n      0x00\n        /* \"#utility.yul\":5317:5323   */\n      dup5\n        /* \"#utility.yul\":5312:5315   */\n      dup5\n        /* \"#utility.yul\":5308:5324   */\n      add\n        /* \"#utility.yul\":5301:5328   */\n      mstore\n        /* \"#utility.yul\":5237:5338   */\n    tag_155:\n        /* \"#utility.yul\":5086:5344   */\n      pop\n        /* \"#utility.yul\":5037:5344   */\n      pop\n      pop\n      pop\n      jump\t// out\n        /* \"#utility.yul\":5350:5670   */\n    tag_26:\n        /* \"#utility.yul\":5394:5400   */\n      0x00\n        /* \"#utility.yul\":5431:5432   */\n      0x02\n        /* \"#utility.yul\":5425:5429   */\n      dup3\n        /* \"#utility.yul\":5421:5433   */\n      div\n        /* \"#utility.yul\":5411:5433   */\n      swap1\n      pop\n        /* \"#utility.yul\":5478:5479   */\n      0x01\n        /* \"#utility.yul\":5472:5476   */\n      dup3\n        /* \"#utility.yul\":5468:5480   */\n      and\n        /* \"#utility.yul\":5499:5517   */\n      dup1\n        /* \"#utility.yul\":5489:5570   */\n      tag_157\n      jumpi\n        /* \"#utility.yul\":5555:5559   */\n      0x7f\n        /* \"#utility.yul\":5547:5553   */\n      dup3\n        /* \"#utility.yul\":5543:5560   */\n      and\n        /* \"#utility.yul\":5533:5560   */\n      swap2\n      pop\n        /* \"#utility.yul\":5489:5570   */\n    tag_157:\n        /* \"#utility.yul\":5617:5619   */\n      0x20\n        /* \"#utility.yul\":5609:5615   */\n      dup3\n        /* \"#utility.yul\":5606:5620   */\n      lt\n        /* \"#utility.yul\":5586:5604   */\n      dup2\n        /* \"#utility.yul\":5583:5621   */\n      eq\n        /* \"#utility.yul\":5580:5664   */\n      iszero\n      tag_158\n      jumpi\n        /* \"#utility.yul\":5636:5654   */\n      tag_159\n      tag_160\n      jump\t// in\n    tag_159:\n        /* \"#utility.yul\":5580:5664   */\n    tag_158:\n        /* \"#utility.yul\":5401:5670   */\n      pop\n        /* \"#utility.yul\":5350:5670   */\n      swap2\n      swap1\n      pop\n      jump\t// out\n        /* \"#utility.yul\":5676:5957   */\n    tag_140:\n        /* \"#utility.yul\":5759:5786   */\n      tag_162\n        /* \"#utility.yul\":5781:5785   */\n      dup3\n        /* \"#utility.yul\":5759:5786   */\n      tag_124\n      jump\t// in\n    tag_162:\n        /* \"#utility.yul\":5751:5757   */\n      dup2\n        /* \"#utility.yul\":5747:5787   */\n      add\n        /* \"#utility.yul\":5889:5895   */\n      dup2\n        /* \"#utility.yul\":5877:5887   */\n      dup2\n        /* \"#utility.yul\":5874:5896   */\n      lt\n        /* \"#utility.yul\":5853:5871   */\n      0xffffffffffffffff\n        /* \"#utility.yul\":5841:5851   */\n      dup3\n        /* \"#utility.yul\":5838:5872   */\n      gt\n        /* \"#utility.yul\":5835:5897   */\n      or\n        /* \"#utility.yul\":5832:5920   */\n      iszero\n      tag_163\n      jumpi\n        /* \"#utility.yul\":5900:5918   */\n      tag_164\n      tag_145\n      jump\t// in\n    tag_164:\n        /* \"#utility.yul\":5832:5920   */\n    tag_163:\n        /* \"#utility.yul\":5940:5950   */\n      dup1\n        /* \"#utility.yul\":5936:5938   */\n      0x40\n        /* \"#utility.yul\":5929:5951   */\n      mstore\n        /* \"#utility.yul\":5719:5957   */\n      pop\n        /* \"#utility.yul\":5676:5957   */\n      pop\n      pop\n      jump\t// out\n        /* \"#utility.yul\":5963:6196   */\n    tag_47:\n        /* \"#utility.yul\":6002:6005   */\n      0x00\n        /* \"#utility.yul\":6025:6049   */\n      tag_166\n        /* \"#utility.yul\":6043:6048   */\n      dup3\n        /* \"#utility.yul\":6025:6049   */\n      tag_128\n      jump\t// in\n    tag_166:\n        /* \"#utility.yul\":6016:6049   */\n      swap2\n      pop\n        /* \"#utility.yul\":6071:6137   */\n      0xffffffffffffffffffffffffffffffffffffffffffffffffffffffffffffffff\n        /* \"#utility.yul\":6064:6069   */\n      dup3\n        /* \"#utility.yul\":6061:6138   */\n      eq\n        /* \"#utility.yul\":6058:6161   */\n      iszero\n      tag_167\n      jumpi\n        /* \"#utility.yul\":6141:6159   */\n      tag_168\n      tag_169\n      jump\t// in\n    tag_168:\n        /* \"#utility.yul\":6058:6161   */\n    tag_167:\n        /* \"#utility.yul\":6188:6189   */\n      0x01\n        /* \"#utility.yul\":6181:6186   */\n      dup3\n        /* \"#utility.yul\":6177:6190   */\n      add\n        /* \"#utility.yul\":6170:6190   */\n      swap1\n      pop\n        /* \"#utility.yul\":5963:6196   */\n      swap2\n      swap1\n      pop\n      jump\t// out\n        /* \"#utility.yul\":6202:6382   */\n    tag_169:\n        /* \"#utility.yul\":6250:6327   */\n      0x4e487b7100000000000000000000000000000000000000000000000000000000\n        /* \"#utility.yul\":6247:6248   */\n      0x00\n        /* \"#utility.yul\":6240:6328   */\n      mstore\n        /* \"#utility.yul\":6347:6351   */\n      0x11\n        /* \"#utility.yul\":6344:6345   */\n      0x04\n        /* \"#utility.yul\":6337:6352   */\n      mstore\n        /* \"#utility.yul\":6371:6375   */\n      0x24\n        /* \"#utility.yul\":6368:6369   */\n      0x00\n        /* \"#utility.yul\":6361:6376   */\n      revert\n        /* \"#utility.yul\":6388:6568   */\n    tag_160:\n        /* \"#utility.yul\":6436:6513   */\n      0x4e487b7100000000000000000000000000000000000000000000000000000000\n        /* \"#utility.yul\":6433:6434   */\n      0x00\n        /* \"#utility.yul\":6426:6514   */\n      mstore\n        /* \"#utility.yul\":6533:6537   */\n      0x22\n        /* \"#utility.yul\":6530:6531   */\n      0x04\n        /* \"#utility.yul\":6523:6538   */\n      mstore\n        /* \"#utility.yul\":6557:6561   */\n      0x24\n        /* \"#utility.yul\":6554:6555   */\n      0x00\n        /* \"#utility.yul\":6547:6562   */\n      revert\n        /* \"#utility.yul\":6574:6754   */\n    tag_145:\n        /* \"#utility.yul\":6622:6699   */\n      0x4e487b7100000000000000000000000000000000000000000000000000000000\n        /* \"#utility.yul\":6619:6620   */\n      0x00\n        /* \"#utility.yul\":6612:6700   */\n      mstore\n        /* \"#utility.yul\":6719:6723   */\n      0x41\n        /* \"#utility.yul\":6716:6717   */\n      0x04\n        /* \"#utility.yul\":6709:6724   */\n      mstore\n        /* \"#utility.yul\":6743:6747   */\n      0x24\n        /* \"#utility.yul\":6740:6741   */\n      0x00\n        /* \"#utility.yul\":6733:6748   */\n      revert\n        /* \"#utility.yul\":6760:6877   */\n    tag_91:\n        /* \"#utility.yul\":6869:6870   */\n      0x00\n        /* \"#utility.yul\":6866:6867   */\n      dup1\n        /* \"#utility.yul\":6859:6871   */\n      revert\n        /* \"#utility.yul\":6883:7000   */\n    tag_84:\n        /* \"#utility.yul\":6992:6993   */\n      0x00\n        /* \"#utility.yul\":6989:6990   */\n      dup1\n        /* \"#utility.yul\":6982:6994   */\n      revert\n        /* \"#utility.yul\":7006:7123   */\n    tag_103:\n        /* \"#utility.yul\":7115:7116   */\n      0x00\n        /* \"#utility.yul\":7112:7113   */\n      dup1\n        /* \"#utility.yul\":7105:7117   */\n      revert\n        /* \"#utility.yul\":7129:7246   */\n    tag_100:\n        /* \"#utility.yul\":7238:7239   */\n      0x00\n        /* \"#utility.yul\":7235:7236   */\n      dup1\n        /* \"#utility.yul\":7228:7240   */\n      revert\n        /* \"#utility.yul\":7252:7354   */\n    tag_124:\n        /* \"#utility.yul\":7293:7299   */\n      0x00\n        /* \"#utility.yul\":7344:7346   */\n      0x1f\n        /* \"#utility.yul\":7340:7347   */\n      not\n        /* \"#utility.yul\":7335:7337   */\n      0x1f\n        /* \"#utility.yul\":7328:7333   */\n      dup4\n        /* \"#utility.yul\":7324:7338   */\n      add\n        /* \"#utility.yul\":7320:7348   */\n      and\n        /* \"#utility.yul\":7310:7348   */\n      swap1\n      pop\n        /* \"#utility.yul\":7252:7354   */\n      swap2\n      swap1\n      pop\n      jump\t// out\n        /* \"#utility.yul\":7360:7482   */\n    tag_96:\n        /* \"#utility.yul\":7433:7457   */\n      tag_179\n        /* \"#utility.yul\":7451:7456   */\n      dup2\n        /* \"#utility.yul\":7433:7457   */\n      tag_128\n      jump\t// in\n    tag_179:\n        /* \"#utility.yul\":7426:7431   */\n      dup2\n        /* \"#utility.yul\":7423:7458   */\n      eq\n        /* \"#utility.yul\":7413:7476   */\n      tag_180\n      jumpi\n        /* \"#utility.yul\":7472:7473   */\n      0x00\n        /* \"#utility.yul\":7469:7470   */\n      dup1\n        /* \"#utility.yul\":7462:7474   */\n      revert\n        /* \"#utility.yul\":7413:7476   */\n    tag_180:\n        /* \"#utility.yul\":7360:7482   */\n      pop\n      jump\t// out\n\n    auxdata: 0xa26469706673582212203de7d3235622f1ff1cc263d55884f13bd2f240ae3ce69ae9ebb4fc50d9b78ee164736f6c63430008070033\n}\n",
				"bytecode": {
					"linkReferences": {},
					"object": "6080604052600160005534801561001557600080fd5b50610aae806100256000396000f3fe608060405234801561001057600080fd5b506004361061004c5760003560e01c806304d8e033146100515780635d28560a146100845780636a8aac7a146100a05780639507d39a146100be575b600080fd5b61006b6004803603810190610066919061075b565b6100f1565b60405161007b94939291906107eb565b60405180910390f35b61009e600480360381019061009991906106b4565b6102b9565b005b6100a8610370565b6040516100b591906107d0565b60405180910390f35b6100d860048036038101906100d3919061075b565b610379565b6040516100e894939291906107eb565b60405180910390f35b600160205280600052604060002060009150905080600001549080600101805461011a90610903565b80601f016020809104026020016040519081016040528092919081815260200182805461014690610903565b80156101935780601f1061016857610100808354040283529160200191610193565b820191906000526020600020905b81548152906001019060200180831161017657829003601f168201915b5050505050908060020180546101a890610903565b80601f01602080910402602001604051908101604052809291908181526020018280546101d490610903565b80156102215780601f106101f657610100808354040283529160200191610221565b820191906000526020600020905b81548152906001019060200180831161020457829003601f168201915b50505050509080600301805461023690610903565b80601f016020809104026020016040519081016040528092919081815260200182805461026290610903565b80156102af5780601f10610284576101008083540402835291602001916102af565b820191906000526020600020905b81548152906001019060200180831161029257829003601f168201915b5050505050905084565b6040518060800160405280600054815260200184815260200183815260200182815250600160008054815260200190815260200160002060008201518160000155602082015181600101908051906020019061031692919061058c565b50604082015181600201908051906020019061033392919061058c565b50606082015181600301908051906020019061035092919061058c565b5090505060008081548092919061036690610966565b9190505550505050565b60008054905090565b6000606080606060016000868152602001908152602001600020600001546001600087815260200190815260200160002060010160016000888152602001908152602001600020600201600160008981526020019081526020016000206003018280546103e590610903565b80601f016020809104026020016040519081016040528092919081815260200182805461041190610903565b801561045e5780601f106104335761010080835404028352916020019161045e565b820191906000526020600020905b81548152906001019060200180831161044157829003601f168201915b5050505050925081805461047190610903565b80601f016020809104026020016040519081016040528092919081815260200182805461049d90610903565b80156104ea5780601f106104bf576101008083540402835291602001916104ea565b820191906000526020600020905b8154815290600101906020018083116104cd57829003601f168201915b505050505091508080546104fd90610903565b80601f016020809104026020016040519081016040528092919081815260200182805461052990610903565b80156105765780601f1061054b57610100808354040283529160200191610576565b820191906000526020600020905b81548152906001019060200180831161055957829003601f168201915b5050505050905093509350935093509193509193565b82805461059890610903565b90600052602060002090601f0160209004810192826105ba5760008555610601565b82601f106105d357805160ff1916838001178555610601565b82800160010185558215610601579182015b828111156106005782518255916020019190600101906105e5565b5b50905061060e9190610612565b5090565b5b8082111561062b576000816000905550600101610613565b5090565b600061064261063d8461086a565b610845565b90508281526020810184848401111561065e5761065d610a41565b5b6106698482856108c1565b509392505050565b600082601f83011261068657610685610a3c565b5b813561069684826020860161062f565b91505092915050565b6000813590506106ae81610a61565b92915050565b6000806000606084860312156106cd576106cc610a4b565b5b600084013567ffffffffffffffff8111156106eb576106ea610a46565b5b6106f786828701610671565b935050602084013567ffffffffffffffff81111561071857610717610a46565b5b61072486828701610671565b925050604084013567ffffffffffffffff81111561074557610744610a46565b5b61075186828701610671565b9150509250925092565b60006020828403121561077157610770610a4b565b5b600061077f8482850161069f565b91505092915050565b60006107938261089b565b61079d81856108a6565b93506107ad8185602086016108d0565b6107b681610a50565b840191505092915050565b6107ca816108b7565b82525050565b60006020820190506107e560008301846107c1565b92915050565b600060808201905061080060008301876107c1565b81810360208301526108128186610788565b905081810360408301526108268185610788565b9050818103606083015261083a8184610788565b905095945050505050565b600061084f610860565b905061085b8282610935565b919050565b6000604051905090565b600067ffffffffffffffff82111561088557610884610a0d565b5b61088e82610a50565b9050602081019050919050565b600081519050919050565b600082825260208201905092915050565b6000819050919050565b82818337600083830152505050565b60005b838110156108ee5780820151818401526020810190506108d3565b838111156108fd576000848401525b50505050565b6000600282049050600182168061091b57607f821691505b6020821081141561092f5761092e6109de565b5b50919050565b61093e82610a50565b810181811067ffffffffffffffff8211171561095d5761095c610a0d565b5b80604052505050565b6000610971826108b7565b91507fffffffffffffffffffffffffffffffffffffffffffffffffffffffffffffffff8214156109a4576109a36109af565b5b600182019050919050565b7f4e487b7100000000000000000000000000000000000000000000000000000000600052601160045260246000fd5b7f4e487b7100000000000000000000000000000000000000000000000000000000600052602260045260246000fd5b7f4e487b7100000000000000000000000000000000000000000000000000000000600052604160045260246000fd5b600080fd5b600080fd5b600080fd5b600080fd5b6000601f19601f8301169050919050565b610a6a816108b7565b8114610a7557600080fd5b5056fea26469706673582212203de7d3235622f1ff1cc263d55884f13bd2f240ae3ce69ae9ebb4fc50d9b78ee164736f6c63430008070033",
					"opcodes": "PUSH1 0x80 PUSH1 0x40 MSTORE PUSH1 0x1 PUSH1 0x0 SSTORE CALLVALUE DUP1 ISZERO PUSH2 0x15 JUMPI PUSH1 0x0 DUP1 REVERT JUMPDEST POP PUSH2 0xAAE DUP1 PUSH2 0x25 PUSH1 0x0 CODECOPY PUSH1 0x0 RETURN INVALID PUSH1 0x80 PUSH1 0x40 MSTORE CALLVALUE DUP1 ISZERO PUSH2 0x10 JUMPI PUSH1 0x0 DUP1 REVERT JUMPDEST POP PUSH1 0x4 CALLDATASIZE LT PUSH2 0x4C JUMPI PUSH1 0x0 CALLDATALOAD PUSH1 0xE0 SHR DUP1 PUSH4 0x4D8E033 EQ PUSH2 0x51 JUMPI DUP1 PUSH4 0x5D28560A EQ PUSH2 0x84 JUMPI DUP1 PUSH4 0x6A8AAC7A EQ PUSH2 0xA0 JUMPI DUP1 PUSH4 0x9507D39A EQ PUSH2 0xBE JUMPI JUMPDEST PUSH1 0x0 DUP1 REVERT JUMPDEST PUSH2 0x6B PUSH1 0x4 DUP1 CALLDATASIZE SUB DUP2 ADD SWAP1 PUSH2 0x66 SWAP2 SWAP1 PUSH2 0x75B JUMP JUMPDEST PUSH2 0xF1 JUMP JUMPDEST PUSH1 0x40 MLOAD PUSH2 0x7B SWAP5 SWAP4 SWAP3 SWAP2 SWAP1 PUSH2 0x7EB JUMP JUMPDEST PUSH1 0x40 MLOAD DUP1 SWAP2 SUB SWAP1 RETURN JUMPDEST PUSH2 0x9E PUSH1 0x4 DUP1 CALLDATASIZE SUB DUP2 ADD SWAP1 PUSH2 0x99 SWAP2 SWAP1 PUSH2 0x6B4 JUMP JUMPDEST PUSH2 0x2B9 JUMP JUMPDEST STOP JUMPDEST PUSH2 0xA8 PUSH2 0x370 JUMP JUMPDEST PUSH1 0x40 MLOAD PUSH2 0xB5 SWAP2 SWAP1 PUSH2 0x7D0 JUMP JUMPDEST PUSH1 0x40 MLOAD DUP1 SWAP2 SUB SWAP1 RETURN JUMPDEST PUSH2 0xD8 PUSH1 0x4 DUP1 CALLDATASIZE SUB DUP2 ADD SWAP1 PUSH2 0xD3 SWAP2 SWAP1 PUSH2 0x75B JUMP JUMPDEST PUSH2 0x379 JUMP JUMPDEST PUSH1 0x40 MLOAD PUSH2 0xE8 SWAP5 SWAP4 SWAP3 SWAP2 SWAP1 PUSH2 0x7EB JUMP JUMPDEST PUSH1 0x40 MLOAD DUP1 SWAP2 SUB SWAP1 RETURN JUMPDEST PUSH1 0x1 PUSH1 0x20 MSTORE DUP1 PUSH1 0x0 MSTORE PUSH1 0x40 PUSH1 0x0 KECCAK256 PUSH1 0x0 SWAP2 POP SWAP1 POP DUP1 PUSH1 0x0 ADD SLOAD SWAP1 DUP1 PUSH1 0x1 ADD DUP1 SLOAD PUSH2 0x11A SWAP1 PUSH2 0x903 JUMP JUMPDEST DUP1 PUSH1 0x1F ADD PUSH1 0x20 DUP1 SWAP2 DIV MUL PUSH1 0x20 ADD PUSH1 0x40 MLOAD SWAP1 DUP2 ADD PUSH1 0x40 MSTORE DUP1 SWAP3 SWAP2 SWAP1 DUP2 DUP2 MSTORE PUSH1 0x20 ADD DUP3 DUP1 SLOAD PUSH2 0x146 SWAP1 PUSH2 0x903 JUMP JUMPDEST DUP1 ISZERO PUSH2 0x193 JUMPI DUP1 PUSH1 0x1F LT PUSH2 0x168 JUMPI PUSH2 0x100 DUP1 DUP4 SLOAD DIV MUL DUP4 MSTORE SWAP2 PUSH1 0x20 ADD SWAP2 PUSH2 0x193 JUMP JUMPDEST DUP3 ADD SWAP2 SWAP1 PUSH1 0x0 MSTORE PUSH1 0x20 PUSH1 0x0 KECCAK256 SWAP1 JUMPDEST DUP2 SLOAD DUP2 MSTORE SWAP1 PUSH1 0x1 ADD SWAP1 PUSH1 0x20 ADD DUP1 DUP4 GT PUSH2 0x176 JUMPI DUP3 SWAP1 SUB PUSH1 0x1F AND DUP3 ADD SWAP2 JUMPDEST POP POP POP POP POP SWAP1 DUP1 PUSH1 0x2 ADD DUP1 SLOAD PUSH2 0x1A8 SWAP1 PUSH2 0x903 JUMP JUMPDEST DUP1 PUSH1 0x1F ADD PUSH1 0x20 DUP1 SWAP2 DIV MUL PUSH1 0x20 ADD PUSH1 0x40 MLOAD SWAP1 DUP2 ADD PUSH1 0x40 MSTORE DUP1 SWAP3 SWAP2 SWAP1 DUP2 DUP2 MSTORE PUSH1 0x20 ADD DUP3 DUP1 SLOAD PUSH2 0x1D4 SWAP1 PUSH2 0x903 JUMP JUMPDEST DUP1 ISZERO PUSH2 0x221 JUMPI DUP1 PUSH1 0x1F LT PUSH2 0x1F6 JUMPI PUSH2 0x100 DUP1 DUP4 SLOAD DIV MUL DUP4 MSTORE SWAP2 PUSH1 0x20 ADD SWAP2 PUSH2 0x221 JUMP JUMPDEST DUP3 ADD SWAP2 SWAP1 PUSH1 0x0 MSTORE PUSH1 0x20 PUSH1 0x0 KECCAK256 SWAP1 JUMPDEST DUP2 SLOAD DUP2 MSTORE SWAP1 PUSH1 0x1 ADD SWAP1 PUSH1 0x20 ADD DUP1 DUP4 GT PUSH2 0x204 JUMPI DUP3 SWAP1 SUB PUSH1 0x1F AND DUP3 ADD SWAP2 JUMPDEST POP POP POP POP POP SWAP1 DUP1 PUSH1 0x3 ADD DUP1 SLOAD PUSH2 0x236 SWAP1 PUSH2 0x903 JUMP JUMPDEST DUP1 PUSH1 0x1F ADD PUSH1 0x20 DUP1 SWAP2 DIV MUL PUSH1 0x20 ADD PUSH1 0x40 MLOAD SWAP1 DUP2 ADD PUSH1 0x40 MSTORE DUP1 SWAP3 SWAP2 SWAP1 DUP2 DUP2 MSTORE PUSH1 0x20 ADD DUP3 DUP1 SLOAD PUSH2 0x262 SWAP1 PUSH2 0x903 JUMP JUMPDEST DUP1 ISZERO PUSH2 0x2AF JUMPI DUP1 PUSH1 0x1F LT PUSH2 0x284 JUMPI PUSH2 0x100 DUP1 DUP4 SLOAD DIV MUL DUP4 MSTORE SWAP2 PUSH1 0x20 ADD SWAP2 PUSH2 0x2AF JUMP JUMPDEST DUP3 ADD SWAP2 SWAP1 PUSH1 0x0 MSTORE PUSH1 0x20 PUSH1 0x0 KECCAK256 SWAP1 JUMPDEST DUP2 SLOAD DUP2 MSTORE SWAP1 PUSH1 0x1 ADD SWAP1 PUSH1 0x20 ADD DUP1 DUP4 GT PUSH2 0x292 JUMPI DUP3 SWAP1 SUB PUSH1 0x1F AND DUP3 ADD SWAP2 JUMPDEST POP POP POP POP POP SWAP1 POP DUP5 JUMP JUMPDEST PUSH1 0x40 MLOAD DUP1 PUSH1 0x80 ADD PUSH1 0x40 MSTORE DUP1 PUSH1 0x0 SLOAD DUP2 MSTORE PUSH1 0x20 ADD DUP5 DUP2 MSTORE PUSH1 0x20 ADD DUP4 DUP2 MSTORE PUSH1 0x20 ADD DUP3 DUP2 MSTORE POP PUSH1 0x1 PUSH1 0x0 DUP1 SLOAD DUP2 MSTORE PUSH1 0x20 ADD SWAP1 DUP2 MSTORE PUSH1 0x20 ADD PUSH1 0x0 KECCAK256 PUSH1 0x0 DUP3 ADD MLOAD DUP2 PUSH1 0x0 ADD SSTORE PUSH1 0x20 DUP3 ADD MLOAD DUP2 PUSH1 0x1 ADD SWAP1 DUP1 MLOAD SWAP1 PUSH1 0x20 ADD SWAP1 PUSH2 0x316 SWAP3 SWAP2 SWAP1 PUSH2 0x58C JUMP JUMPDEST POP PUSH1 0x40 DUP3 ADD MLOAD DUP2 PUSH1 0x2 ADD SWAP1 DUP1 MLOAD SWAP1 PUSH1 0x20 ADD SWAP1 PUSH2 0x333 SWAP3 SWAP2 SWAP1 PUSH2 0x58C JUMP JUMPDEST POP PUSH1 0x60 DUP3 ADD MLOAD DUP2 PUSH1 0x3 ADD SWAP1 DUP1 MLOAD SWAP1 PUSH1 0x20 ADD SWAP1 PUSH2 0x350 SWAP3 SWAP2 SWAP1 PUSH2 0x58C JUMP JUMPDEST POP SWAP1 POP POP PUSH1 0x0 DUP1 DUP2 SLOAD DUP1 SWAP3 SWAP2 SWAP1 PUSH2 0x366 SWAP1 PUSH2 0x966 JUMP JUMPDEST SWAP2 SWAP1 POP SSTORE POP POP POP POP JUMP JUMPDEST PUSH1 0x0 DUP1 SLOAD SWAP1 POP SWAP1 JUMP JUMPDEST PUSH1 0x0 PUSH1 0x60 DUP1 PUSH1 0x60 PUSH1 0x1 PUSH1 0x0 DUP7 DUP2 MSTORE PUSH1 0x20 ADD SWAP1 DUP2 MSTORE PUSH1 0x20 ADD PUSH1 0x0 KECCAK256 PUSH1 0x0 ADD SLOAD PUSH1 0x1 PUSH1 0x0 DUP8 DUP2 MSTORE PUSH1 0x20 ADD SWAP1 DUP2 MSTORE PUSH1 0x20 ADD PUSH1 0x0 KECCAK256 PUSH1 0x1 ADD PUSH1 0x1 PUSH1 0x0 DUP9 DUP2 MSTORE PUSH1 0x20 ADD SWAP1 DUP2 MSTORE PUSH1 0x20 ADD PUSH1 0x0 KECCAK256 PUSH1 0x2 ADD PUSH1 0x1 PUSH1 0x0 DUP10 DUP2 MSTORE PUSH1 0x20 ADD SWAP1 DUP2 MSTORE PUSH1 0x20 ADD PUSH1 0x0 KECCAK256 PUSH1 0x3 ADD DUP3 DUP1 SLOAD PUSH2 0x3E5 SWAP1 PUSH2 0x903 JUMP JUMPDEST DUP1 PUSH1 0x1F ADD PUSH1 0x20 DUP1 SWAP2 DIV MUL PUSH1 0x20 ADD PUSH1 0x40 MLOAD SWAP1 DUP2 ADD PUSH1 0x40 MSTORE DUP1 SWAP3 SWAP2 SWAP1 DUP2 DUP2 MSTORE PUSH1 0x20 ADD DUP3 DUP1 SLOAD PUSH2 0x411 SWAP1 PUSH2 0x903 JUMP JUMPDEST DUP1 ISZERO PUSH2 0x45E JUMPI DUP1 PUSH1 0x1F LT PUSH2 0x433 JUMPI PUSH2 0x100 DUP1 DUP4 SLOAD DIV MUL DUP4 MSTORE SWAP2 PUSH1 0x20 ADD SWAP2 PUSH2 0x45E JUMP JUMPDEST DUP3 ADD SWAP2 SWAP1 PUSH1 0x0 MSTORE PUSH1 0x20 PUSH1 0x0 KECCAK256 SWAP1 JUMPDEST DUP2 SLOAD DUP2 MSTORE SWAP1 PUSH1 0x1 ADD SWAP1 PUSH1 0x20 ADD DUP1 DUP4 GT PUSH2 0x441 JUMPI DUP3 SWAP1 SUB PUSH1 0x1F AND DUP3 ADD SWAP2 JUMPDEST POP POP POP POP POP SWAP3 POP DUP2 DUP1 SLOAD PUSH2 0x471 SWAP1 PUSH2 0x903 JUMP JUMPDEST DUP1 PUSH1 0x1F ADD PUSH1 0x20 DUP1 SWAP2 DIV MUL PUSH1 0x20 ADD PUSH1 0x40 MLOAD SWAP1 DUP2 ADD PUSH1 0x40 MSTORE DUP1 SWAP3 SWAP2 SWAP1 DUP2 DUP2 MSTORE PUSH1 0x20 ADD DUP3 DUP1 SLOAD PUSH2 0x49D SWAP1 PUSH2 0x903 JUMP JUMPDEST DUP1 ISZERO PUSH2 0x4EA JUMPI DUP1 PUSH1 0x1F LT PUSH2 0x4BF JUMPI PUSH2 0x100 DUP1 DUP4 SLOAD DIV MUL DUP4 MSTORE SWAP2 PUSH1 0x20 ADD SWAP2 PUSH2 0x4EA JUMP JUMPDEST DUP3 ADD SWAP2 SWAP1 PUSH1 0x0 MSTORE PUSH1 0x20 PUSH1 0x0 KECCAK256 SWAP1 JUMPDEST DUP2 SLOAD DUP2 MSTORE SWAP1 PUSH1 0x1 ADD SWAP1 PUSH1 0x20 ADD DUP1 DUP4 GT PUSH2 0x4CD JUMPI DUP3 SWAP1 SUB PUSH1 0x1F AND DUP3 ADD SWAP2 JUMPDEST POP POP POP POP POP SWAP2 POP DUP1 DUP1 SLOAD PUSH2 0x4FD SWAP1 PUSH2 0x903 JUMP JUMPDEST DUP1 PUSH1 0x1F ADD PUSH1 0x20 DUP1 SWAP2 DIV MUL PUSH1 0x20 ADD PUSH1 0x40 MLOAD SWAP1 DUP2 ADD PUSH1 0x40 MSTORE DUP1 SWAP3 SWAP2 SWAP1 DUP2 DUP2 MSTORE PUSH1 0x20 ADD DUP3 DUP1 SLOAD PUSH2 0x529 SWAP1 PUSH2 0x903 JUMP JUMPDEST DUP1 ISZERO PUSH2 0x576 JUMPI DUP1 PUSH1 0x1F LT PUSH2 0x54B JUMPI PUSH2 0x100 DUP1 DUP4 SLOAD DIV MUL DUP4 MSTORE SWAP2 PUSH1 0x20 ADD SWAP2 PUSH2 0x576 JUMP JUMPDEST DUP3 ADD SWAP2 SWAP1 PUSH1 0x0 MSTORE PUSH1 0x20 PUSH1 0x0 KECCAK256 SWAP1 JUMPDEST DUP2 SLOAD DUP2 MSTORE SWAP1 PUSH1 0x1 ADD SWAP1 PUSH1 0x20 ADD DUP1 DUP4 GT PUSH2 0x559 JUMPI DUP3 SWAP1 SUB PUSH1 0x1F AND DUP3 ADD SWAP2 JUMPDEST POP POP POP POP POP SWAP1 POP SWAP4 POP SWAP4 POP SWAP4 POP SWAP4 POP SWAP2 SWAP4 POP SWAP2 SWAP4 JUMP JUMPDEST DUP3 DUP1 SLOAD PUSH2 0x598 SWAP1 PUSH2 0x903 JUMP JUMPDEST SWAP1 PUSH1 0x0 MSTORE PUSH1 0x20 PUSH1 0x0 KECCAK256 SWAP1 PUSH1 0x1F ADD PUSH1 0x20 SWAP1 DIV DUP2 ADD SWAP3 DUP3 PUSH2 0x5BA JUMPI PUSH1 0x0 DUP6 SSTORE PUSH2 0x601 JUMP JUMPDEST DUP3 PUSH1 0x1F LT PUSH2 0x5D3 JUMPI DUP1 MLOAD PUSH1 0xFF NOT AND DUP4 DUP1 ADD OR DUP6 SSTORE PUSH2 0x601 JUMP JUMPDEST DUP3 DUP1 ADD PUSH1 0x1 ADD DUP6 SSTORE DUP3 ISZERO PUSH2 0x601 JUMPI SWAP2 DUP3 ADD JUMPDEST DUP3 DUP2 GT ISZERO PUSH2 0x600 JUMPI DUP3 MLOAD DUP3 SSTORE SWAP2 PUSH1 0x20 ADD SWAP2 SWAP1 PUSH1 0x1 ADD SWAP1 PUSH2 0x5E5 JUMP JUMPDEST JUMPDEST POP SWAP1 POP PUSH2 0x60E SWAP2 SWAP1 PUSH2 0x612 JUMP JUMPDEST POP SWAP1 JUMP JUMPDEST JUMPDEST DUP1 DUP3 GT ISZERO PUSH2 0x62B JUMPI PUSH1 0x0 DUP2 PUSH1 0x0 SWAP1 SSTORE POP PUSH1 0x1 ADD PUSH2 0x613 JUMP JUMPDEST POP SWAP1 JUMP JUMPDEST PUSH1 0x0 PUSH2 0x642 PUSH2 0x63D DUP5 PUSH2 0x86A JUMP JUMPDEST PUSH2 0x845 JUMP JUMPDEST SWAP1 POP DUP3 DUP2 MSTORE PUSH1 0x20 DUP2 ADD DUP5 DUP5 DUP5 ADD GT ISZERO PUSH2 0x65E JUMPI PUSH2 0x65D PUSH2 0xA41 JUMP JUMPDEST JUMPDEST PUSH2 0x669 DUP5 DUP3 DUP6 PUSH2 0x8C1 JUMP JUMPDEST POP SWAP4 SWAP3 POP POP POP JUMP JUMPDEST PUSH1 0x0 DUP3 PUSH1 0x1F DUP4 ADD SLT PUSH2 0x686 JUMPI PUSH2 0x685 PUSH2 0xA3C JUMP JUMPDEST JUMPDEST DUP2 CALLDATALOAD PUSH2 0x696 DUP5 DUP3 PUSH1 0x20 DUP7 ADD PUSH2 0x62F JUMP JUMPDEST SWAP2 POP POP SWAP3 SWAP2 POP POP JUMP JUMPDEST PUSH1 0x0 DUP2 CALLDATALOAD SWAP1 POP PUSH2 0x6AE DUP2 PUSH2 0xA61 JUMP JUMPDEST SWAP3 SWAP2 POP POP JUMP JUMPDEST PUSH1 0x0 DUP1 PUSH1 0x0 PUSH1 0x60 DUP5 DUP7 SUB SLT ISZERO PUSH2 0x6CD JUMPI PUSH2 0x6CC PUSH2 0xA4B JUMP JUMPDEST JUMPDEST PUSH1 0x0 DUP5 ADD CALLDATALOAD PUSH8 0xFFFFFFFFFFFFFFFF DUP2 GT ISZERO PUSH2 0x6EB JUMPI PUSH2 0x6EA PUSH2 0xA46 JUMP JUMPDEST JUMPDEST PUSH2 0x6F7 DUP7 DUP3 DUP8 ADD PUSH2 0x671 JUMP JUMPDEST SWAP4 POP POP PUSH1 0x20 DUP5 ADD CALLDATALOAD PUSH8 0xFFFFFFFFFFFFFFFF DUP2 GT ISZERO PUSH2 0x718 JUMPI PUSH2 0x717 PUSH2 0xA46 JUMP JUMPDEST JUMPDEST PUSH2 0x724 DUP7 DUP3 DUP8 ADD PUSH2 0x671 JUMP JUMPDEST SWAP3 POP POP PUSH1 0x40 DUP5 ADD CALLDATALOAD PUSH8 0xFFFFFFFFFFFFFFFF DUP2 GT ISZERO PUSH2 0x745 JUMPI PUSH2 0x744 PUSH2 0xA46 JUMP JUMPDEST JUMPDEST PUSH2 0x751 DUP7 DUP3 DUP8 ADD PUSH2 0x671 JUMP JUMPDEST SWAP2 POP POP SWAP3 POP SWAP3 POP SWAP3 JUMP JUMPDEST PUSH1 0x0 PUSH1 0x20 DUP3 DUP5 SUB SLT ISZERO PUSH2 0x771 JUMPI PUSH2 0x770 PUSH2 0xA4B JUMP JUMPDEST JUMPDEST PUSH1 0x0 PUSH2 0x77F DUP5 DUP3 DUP6 ADD PUSH2 0x69F JUMP JUMPDEST SWAP2 POP POP SWAP3 SWAP2 POP POP JUMP JUMPDEST PUSH1 0x0 PUSH2 0x793 DUP3 PUSH2 0x89B JUMP JUMPDEST PUSH2 0x79D DUP2 DUP6 PUSH2 0x8A6 JUMP JUMPDEST SWAP4 POP PUSH2 0x7AD DUP2 DUP6 PUSH1 0x20 DUP7 ADD PUSH2 0x8D0 JUMP JUMPDEST PUSH2 0x7B6 DUP2 PUSH2 0xA50 JUMP JUMPDEST DUP5 ADD SWAP2 POP POP SWAP3 SWAP2 POP POP JUMP JUMPDEST PUSH2 0x7CA DUP2 PUSH2 0x8B7 JUMP JUMPDEST DUP3 MSTORE POP POP JUMP JUMPDEST PUSH1 0x0 PUSH1 0x20 DUP3 ADD SWAP1 POP PUSH2 0x7E5 PUSH1 0x0 DUP4 ADD DUP5 PUSH2 0x7C1 JUMP JUMPDEST SWAP3 SWAP2 POP POP JUMP JUMPDEST PUSH1 0x0 PUSH1 0x80 DUP3 ADD SWAP1 POP PUSH2 0x800 PUSH1 0x0 DUP4 ADD DUP8 PUSH2 0x7C1 JUMP JUMPDEST DUP2 DUP2 SUB PUSH1 0x20 DUP4 ADD MSTORE PUSH2 0x812 DUP2 DUP7 PUSH2 0x788 JUMP JUMPDEST SWAP1 POP DUP2 DUP2 SUB PUSH1 0x40 DUP4 ADD MSTORE PUSH2 0x826 DUP2 DUP6 PUSH2 0x788 JUMP JUMPDEST SWAP1 POP DUP2 DUP2 SUB PUSH1 0x60 DUP4 ADD MSTORE PUSH2 0x83A DUP2 DUP5 PUSH2 0x788 JUMP JUMPDEST SWAP1 POP SWAP6 SWAP5 POP POP POP POP POP JUMP JUMPDEST PUSH1 0x0 PUSH2 0x84F PUSH2 0x860 JUMP JUMPDEST SWAP1 POP PUSH2 0x85B DUP3 DUP3 PUSH2 0x935 JUMP JUMPDEST SWAP2 SWAP1 POP JUMP JUMPDEST PUSH1 0x0 PUSH1 0x40 MLOAD SWAP1 POP SWAP1 JUMP JUMPDEST PUSH1 0x0 PUSH8 0xFFFFFFFFFFFFFFFF DUP3 GT ISZERO PUSH2 0x885 JUMPI PUSH2 0x884 PUSH2 0xA0D JUMP JUMPDEST JUMPDEST PUSH2 0x88E DUP3 PUSH2 0xA50 JUMP JUMPDEST SWAP1 POP PUSH1 0x20 DUP2 ADD SWAP1 POP SWAP2 SWAP1 POP JUMP JUMPDEST PUSH1 0x0 DUP2 MLOAD SWAP1 POP SWAP2 SWAP1 POP JUMP JUMPDEST PUSH1 0x0 DUP3 DUP3 MSTORE PUSH1 0x20 DUP3 ADD SWAP1 POP SWAP3 SWAP2 POP POP JUMP JUMPDEST PUSH1 0x0 DUP2 SWAP1 POP SWAP2 SWAP1 POP JUMP JUMPDEST DUP3 DUP2 DUP4 CALLDATACOPY PUSH1 0x0 DUP4 DUP4 ADD MSTORE POP POP POP JUMP JUMPDEST PUSH1 0x0 JUMPDEST DUP4 DUP2 LT ISZERO PUSH2 0x8EE JUMPI DUP1 DUP3 ADD MLOAD DUP2 DUP5 ADD MSTORE PUSH1 0x20 DUP2 ADD SWAP1 POP PUSH2 0x8D3 JUMP JUMPDEST DUP4 DUP2 GT ISZERO PUSH2 0x8FD JUMPI PUSH1 0x0 DUP5 DUP5 ADD MSTORE JUMPDEST POP POP POP POP JUMP JUMPDEST PUSH1 0x0 PUSH1 0x2 DUP3 DIV SWAP1 POP PUSH1 0x1 DUP3 AND DUP1 PUSH2 0x91B JUMPI PUSH1 0x7F DUP3 AND SWAP2 POP JUMPDEST PUSH1 0x20 DUP3 LT DUP2 EQ ISZERO PUSH2 0x92F JUMPI PUSH2 0x92E PUSH2 0x9DE JUMP JUMPDEST JUMPDEST POP SWAP2 SWAP1 POP JUMP JUMPDEST PUSH2 0x93E DUP3 PUSH2 0xA50 JUMP JUMPDEST DUP2 ADD DUP2 DUP2 LT PUSH8 0xFFFFFFFFFFFFFFFF DUP3 GT OR ISZERO PUSH2 0x95D JUMPI PUSH2 0x95C PUSH2 0xA0D JUMP JUMPDEST JUMPDEST DUP1 PUSH1 0x40 MSTORE POP POP POP JUMP JUMPDEST PUSH1 0x0 PUSH2 0x971 DUP3 PUSH2 0x8B7 JUMP JUMPDEST SWAP2 POP PUSH32 0xFFFFFFFFFFFFFFFFFFFFFFFFFFFFFFFFFFFFFFFFFFFFFFFFFFFFFFFFFFFFFFFF DUP3 EQ ISZERO PUSH2 0x9A4 JUMPI PUSH2 0x9A3 PUSH2 0x9AF JUMP JUMPDEST JUMPDEST PUSH1 0x1 DUP3 ADD SWAP1 POP SWAP2 SWAP1 POP JUMP JUMPDEST PUSH32 0x4E487B7100000000000000000000000000000000000000000000000000000000 PUSH1 0x0 MSTORE PUSH1 0x11 PUSH1 0x4 MSTORE PUSH1 0x24 PUSH1 0x0 REVERT JUMPDEST PUSH32 0x4E487B7100000000000000000000000000000000000000000000000000000000 PUSH1 0x0 MSTORE PUSH1 0x22 PUSH1 0x4 MSTORE PUSH1 0x24 PUSH1 0x0 REVERT JUMPDEST PUSH32 0x4E487B7100000000000000000000000000000000000000000000000000000000 PUSH1 0x0 MSTORE PUSH1 0x41 PUSH1 0x4 MSTORE PUSH1 0x24 PUSH1 0x0 REVERT JUMPDEST PUSH1 0x0 DUP1 REVERT JUMPDEST PUSH1 0x0 DUP1 REVERT JUMPDEST PUSH1 0x0 DUP1 REVERT JUMPDEST PUSH1 0x0 DUP1 REVERT JUMPDEST PUSH1 0x0 PUSH1 0x1F NOT PUSH1 0x1F DUP4 ADD AND SWAP1 POP SWAP2 SWAP1 POP JUMP JUMPDEST PUSH2 0xA6A DUP2 PUSH2 0x8B7 JUMP JUMPDEST DUP2 EQ PUSH2 0xA75 JUMPI PUSH1 0x0 DUP1 REVERT JUMPDEST POP JUMP INVALID LOG2 PUSH5 0x6970667358 0x22 SLT KECCAK256 RETURNDATASIZE 0xE7 0xD3 0x23 JUMP 0x22 CALL SELFDESTRUCT SHR 0xC2 PUSH4 0xD55884F1 EXTCODESIZE 0xD2 CALLCODE BLOCKHASH 0xAE EXTCODECOPY 0xE6 SWAP11 0xE9 0xEB 0xB4 0xFC POP 0xD9 0xB7 DUP15 0xE1 PUSH5 0x736F6C6343 STOP ADDMOD SMOD STOP CALLER "
				},
				"gasEstimates": {
					"creation": {
						"codeDepositCost": "546800",
						"executionCost": "22687",
						"totalCost": "569487"
					},
					"external": {
						"Review_mapping(uint256)": "infinite",
						"create(string,string,string)": "infinite",
						"get(uint256)": "infinite",
						"getIdx()": "2459"
					}
				},
				"methodIdentifiers": {
					"Review_mapping(uint256)": "04d8e033",
					"create(string,string,string)": "5d28560a",
					"get(uint256)": "9507d39a",
					"getIdx()": "6a8aac7a"
				}
			},
			"userdoc": {
				"kind": "user",
				"methods": {},
				"version": 1
			}
		}
	}
}