{
	"blockmonkey/ReviewDapp/Test.sol": {
		"Test": {
			"abi": [
				{
					"inputs": [
						{
							"internalType": "uint256",
							"name": "",
							"type": "uint256"
						}
					],
					"name": "Review_mapping",
					"outputs": [
						{
							"internalType": "uint256",
							"name": "id",
							"type": "uint256"
						},
						{
							"internalType": "string",
							"name": "title",
							"type": "string"
						},
						{
							"internalType": "string",
							"name": "description",
							"type": "string"
						},
						{
							"internalType": "string",
							"name": "writer",
							"type": "string"
						}
					],
					"stateMutability": "view",
					"type": "function"
				},
				{
					"inputs": [
						{
							"internalType": "string",
							"name": "_title",
							"type": "string"
						},
						{
							"internalType": "string",
							"name": "_des",
							"type": "string"
						},
						{
							"internalType": "string",
							"name": "_writer",
							"type": "string"
						}
					],
					"name": "create",
					"outputs": [],
					"stateMutability": "nonpayable",
					"type": "function"
				}
			],
			"devdoc": {
				"kind": "dev",
				"methods": {},
				"version": 1
			},
			"evm": {
				"assembly": "    /* \"blockmonkey/ReviewDapp/Test.sol\":58:784  contract Test {... */\n  mstore(0x40, 0x80)\n    /* \"blockmonkey/ReviewDapp/Test.sol\":214:215  1 */\n  0x01\n    /* \"blockmonkey/ReviewDapp/Test.sol\":195:215  uint TotalSupply = 1 */\n  0x00\n  sstore\n    /* \"blockmonkey/ReviewDapp/Test.sol\":58:784  contract Test {... */\n  callvalue\n  dup1\n  iszero\n  tag_1\n  jumpi\n  0x00\n  dup1\n  revert\ntag_1:\n  pop\n  dataSize(sub_0)\n  dup1\n  dataOffset(sub_0)\n  0x00\n  codecopy\n  0x00\n  return\nstop\n\nsub_0: assembly {\n        /* \"blockmonkey/ReviewDapp/Test.sol\":58:784  contract Test {... */\n      mstore(0x40, 0x80)\n      callvalue\n      dup1\n      iszero\n      tag_1\n      jumpi\n      0x00\n      dup1\n      revert\n    tag_1:\n      pop\n      jumpi(tag_2, lt(calldatasize, 0x04))\n      shr(0xe0, calldataload(0x00))\n      dup1\n      0x04d8e033\n      eq\n      tag_3\n      jumpi\n      dup1\n      0x5d28560a\n      eq\n      tag_4\n      jumpi\n    tag_2:\n      0x00\n      dup1\n      revert\n        /* \"blockmonkey/ReviewDapp/Test.sol\":221:267  mapping (uint => Review) public Review_mapping */\n    tag_3:\n      tag_5\n      0x04\n      dup1\n      calldatasize\n      sub\n      dup2\n      add\n      swap1\n      tag_6\n      swap2\n      swap1\n      tag_7\n      jump\t// in\n    tag_6:\n      tag_8\n      jump\t// in\n    tag_5:\n      mload(0x40)\n      tag_9\n      swap5\n      swap4\n      swap3\n      swap2\n      swap1\n      tag_10\n      jump\t// in\n    tag_9:\n      mload(0x40)\n      dup1\n      swap2\n      sub\n      swap1\n      return\n        /* \"blockmonkey/ReviewDapp/Test.sol\":274:781  function create(string memory _title, string memory _des, string memory _writer) public {... */\n    tag_4:\n      tag_11\n      0x04\n      dup1\n      calldatasize\n      sub\n      dup2\n      add\n      swap1\n      tag_12\n      swap2\n      swap1\n      tag_13\n      jump\t// in\n    tag_12:\n      tag_14\n      jump\t// in\n    tag_11:\n      stop\n        /* \"blockmonkey/ReviewDapp/Test.sol\":221:267  mapping (uint => Review) public Review_mapping */\n    tag_8:\n      mstore(0x20, 0x01)\n      dup1\n      0x00\n      mstore\n      keccak256(0x00, 0x40)\n      0x00\n      swap2\n      pop\n      swap1\n      pop\n      dup1\n      0x00\n      add\n      sload\n      swap1\n      dup1\n      0x01\n      add\n      dup1\n      sload\n      tag_15\n      swap1\n      tag_16\n      jump\t// in\n    tag_15:\n      dup1\n      0x1f\n      add\n      0x20\n      dup1\n      swap2\n      div\n      mul\n      0x20\n      add\n      mload(0x40)\n      swap1\n      dup2\n      add\n      0x40\n      mstore\n      dup1\n      swap3\n      swap2\n      swap1\n      dup2\n      dup2\n      mstore\n      0x20\n      add\n      dup3\n      dup1\n      sload\n      tag_17\n      swap1\n      tag_16\n      jump\t// in\n    tag_17:\n      dup1\n      iszero\n      tag_18\n      jumpi\n      dup1\n      0x1f\n      lt\n      tag_19\n      jumpi\n      0x0100\n      dup1\n      dup4\n      sload\n      div\n      mul\n      dup4\n      mstore\n      swap2\n      0x20\n      add\n      swap2\n      jump(tag_18)\n    tag_19:\n      dup3\n      add\n      swap2\n      swap1\n      0x00\n      mstore\n      keccak256(0x00, 0x20)\n      swap1\n    tag_20:\n      dup2\n      sload\n      dup2\n      mstore\n      swap1\n      0x01\n      add\n      swap1\n      0x20\n      add\n      dup1\n      dup4\n      gt\n      tag_20\n      jumpi\n      dup3\n      swap1\n      sub\n      0x1f\n      and\n      dup3\n      add\n      swap2\n    tag_18:\n      pop\n      pop\n      pop\n      pop\n      pop\n      swap1\n      dup1\n      0x02\n      add\n      dup1\n      sload\n      tag_21\n      swap1\n      tag_16\n      jump\t// in\n    tag_21:\n      dup1\n      0x1f\n      add\n      0x20\n      dup1\n      swap2\n      div\n      mul\n      0x20\n      add\n      mload(0x40)\n      swap1\n      dup2\n      add\n      0x40\n      mstore\n      dup1\n      swap3\n      swap2\n      swap1\n      dup2\n      dup2\n      mstore\n      0x20\n      add\n      dup3\n      dup1\n      sload\n      tag_22\n      swap1\n      tag_16\n      jump\t// in\n    tag_22:\n      dup1\n      iszero\n      tag_23\n      jumpi\n      dup1\n      0x1f\n      lt\n      tag_24\n      jumpi\n      0x0100\n      dup1\n      dup4\n      sload\n      div\n      mul\n      dup4\n      mstore\n      swap2\n      0x20\n      add\n      swap2\n      jump(tag_23)\n    tag_24:\n      dup3\n      add\n      swap2\n      swap1\n      0x00\n      mstore\n      keccak256(0x00, 0x20)\n      swap1\n    tag_25:\n      dup2\n      sload\n      dup2\n      mstore\n      swap1\n      0x01\n      add\n      swap1\n      0x20\n      add\n      dup1\n      dup4\n      gt\n      tag_25\n      jumpi\n      dup3\n      swap1\n      sub\n      0x1f\n      and\n      dup3\n      add\n      swap2\n    tag_23:\n      pop\n      pop\n      pop\n      pop\n      pop\n      swap1\n      dup1\n      0x03\n      add\n      dup1\n      sload\n      tag_26\n      swap1\n      tag_16\n      jump\t// in\n    tag_26:\n      dup1\n      0x1f\n      add\n      0x20\n      dup1\n      swap2\n      div\n      mul\n      0x20\n      add\n      mload(0x40)\n      swap1\n      dup2\n      add\n      0x40\n      mstore\n      dup1\n      swap3\n      swap2\n      swap1\n      dup2\n      dup2\n      mstore\n      0x20\n      add\n      dup3\n      dup1\n      sload\n      tag_27\n      swap1\n      tag_16\n      jump\t// in\n    tag_27:\n      dup1\n      iszero\n      tag_28\n      jumpi\n      dup1\n      0x1f\n      lt\n      tag_29\n      jumpi\n      0x0100\n      dup1\n      dup4\n      sload\n      div\n      mul\n      dup4\n      mstore\n      swap2\n      0x20\n      add\n      swap2\n      jump(tag_28)\n    tag_29:\n      dup3\n      add\n      swap2\n      swap1\n      0x00\n      mstore\n      keccak256(0x00, 0x20)\n      swap1\n    tag_30:\n      dup2\n      sload\n      dup2\n      mstore\n      swap1\n      0x01\n      add\n      swap1\n      0x20\n      add\n      dup1\n      dup4\n      gt\n      tag_30\n      jumpi\n      dup3\n      swap1\n      sub\n      0x1f\n      and\n      dup3\n      add\n      swap2\n    tag_28:\n      pop\n      pop\n      pop\n      pop\n      pop\n      swap1\n      pop\n      dup5\n      jump\t// out\n        /* \"blockmonkey/ReviewDapp/Test.sol\":274:781  function create(string memory _title, string memory _des, string memory _writer) public {... */\n    tag_14:\n        /* \"blockmonkey/ReviewDapp/Test.sol\":425:426  9 */\n      0x09\n        /* \"blockmonkey/ReviewDapp/Test.sol\":408:414  _title */\n      dup4\n        /* \"blockmonkey/ReviewDapp/Test.sol\":402:422  bytes(_title).length */\n      mload\n        /* \"blockmonkey/ReviewDapp/Test.sol\":402:426  bytes(_title).length > 9 */\n      gt\n        /* \"blockmonkey/ReviewDapp/Test.sol\":394:449  require(bytes(_title).length > 9, \"Title is too short\") */\n      tag_32\n      jumpi\n      mload(0x40)\n      0x08c379a000000000000000000000000000000000000000000000000000000000\n      dup2\n      mstore\n      0x04\n      add\n      tag_33\n      swap1\n      tag_34\n      jump\t// in\n    tag_33:\n      mload(0x40)\n      dup1\n      swap2\n      sub\n      swap1\n      revert\n    tag_32:\n        /* \"blockmonkey/ReviewDapp/Test.sol\":529:530  9 */\n      0x09\n        /* \"blockmonkey/ReviewDapp/Test.sol\":514:518  _des */\n      dup3\n        /* \"blockmonkey/ReviewDapp/Test.sol\":508:526  bytes(_des).length */\n      mload\n        /* \"blockmonkey/ReviewDapp/Test.sol\":508:530  bytes(_des).length > 9 */\n      gt\n        /* \"blockmonkey/ReviewDapp/Test.sol\":500:559  require(bytes(_des).length > 9, \"Description is too short\") */\n      tag_35\n      jumpi\n      mload(0x40)\n      0x08c379a000000000000000000000000000000000000000000000000000000000\n      dup2\n      mstore\n      0x04\n      add\n      tag_36\n      swap1\n      tag_37\n      jump\t// in\n    tag_36:\n      mload(0x40)\n      dup1\n      swap2\n      sub\n      swap1\n      revert\n    tag_35:\n        /* \"blockmonkey/ReviewDapp/Test.sol\":619:641  address[] memory liked */\n      0x60\n        /* \"blockmonkey/ReviewDapp/Test.sol\":681:723  Review(TotalSupply, _title, _des, _writer) */\n      mload(0x40)\n      dup1\n      0x80\n      add\n      0x40\n      mstore\n      dup1\n        /* \"blockmonkey/ReviewDapp/Test.sol\":688:699  TotalSupply */\n      sload(0x00)\n        /* \"blockmonkey/ReviewDapp/Test.sol\":681:723  Review(TotalSupply, _title, _des, _writer) */\n      dup2\n      mstore\n      0x20\n      add\n        /* \"blockmonkey/ReviewDapp/Test.sol\":701:707  _title */\n      dup6\n        /* \"blockmonkey/ReviewDapp/Test.sol\":681:723  Review(TotalSupply, _title, _des, _writer) */\n      dup2\n      mstore\n      0x20\n      add\n        /* \"blockmonkey/ReviewDapp/Test.sol\":709:713  _des */\n      dup5\n        /* \"blockmonkey/ReviewDapp/Test.sol\":681:723  Review(TotalSupply, _title, _des, _writer) */\n      dup2\n      mstore\n      0x20\n      add\n        /* \"blockmonkey/ReviewDapp/Test.sol\":715:722  _writer */\n      dup4\n        /* \"blockmonkey/ReviewDapp/Test.sol\":681:723  Review(TotalSupply, _title, _des, _writer) */\n      dup2\n      mstore\n      pop\n        /* \"blockmonkey/ReviewDapp/Test.sol\":651:665  Review_mapping */\n      0x01\n        /* \"blockmonkey/ReviewDapp/Test.sol\":651:678  Review_mapping[TotalSupply] */\n      0x00\n        /* \"blockmonkey/ReviewDapp/Test.sol\":666:677  TotalSupply */\n      dup1\n      sload\n        /* \"blockmonkey/ReviewDapp/Test.sol\":651:678  Review_mapping[TotalSupply] */\n      dup2\n      mstore\n      0x20\n      add\n      swap1\n      dup2\n      mstore\n      0x20\n      add\n      0x00\n      keccak256\n        /* \"blockmonkey/ReviewDapp/Test.sol\":651:723  Review_mapping[TotalSupply] = Review(TotalSupply, _title, _des, _writer) */\n      0x00\n      dup3\n      add\n      mload\n      dup2\n      0x00\n      add\n      sstore\n      0x20\n      dup3\n      add\n      mload\n      dup2\n      0x01\n      add\n      swap1\n      dup1\n      mload\n      swap1\n      0x20\n      add\n      swap1\n      tag_38\n      swap3\n      swap2\n      swap1\n      tag_39\n      jump\t// in\n    tag_38:\n      pop\n      0x40\n      dup3\n      add\n      mload\n      dup2\n      0x02\n      add\n      swap1\n      dup1\n      mload\n      swap1\n      0x20\n      add\n      swap1\n      tag_40\n      swap3\n      swap2\n      swap1\n      tag_39\n      jump\t// in\n    tag_40:\n      pop\n      0x60\n      dup3\n      add\n      mload\n      dup2\n      0x03\n      add\n      swap1\n      dup1\n      mload\n      swap1\n      0x20\n      add\n      swap1\n      tag_41\n      swap3\n      swap2\n      swap1\n      tag_39\n      jump\t// in\n    tag_41:\n      pop\n      swap1\n      pop\n      pop\n        /* \"blockmonkey/ReviewDapp/Test.sol\":761:772  TotalSupply */\n      0x00\n      dup1\n        /* \"blockmonkey/ReviewDapp/Test.sol\":761:774  TotalSupply++ */\n      dup2\n      sload\n      dup1\n      swap3\n      swap2\n      swap1\n      tag_42\n      swap1\n      tag_43\n      jump\t// in\n    tag_42:\n      swap2\n      swap1\n      pop\n      sstore\n      pop\n        /* \"blockmonkey/ReviewDapp/Test.sol\":362:781  {... */\n      pop\n        /* \"blockmonkey/ReviewDapp/Test.sol\":274:781  function create(string memory _title, string memory _des, string memory _writer) public {... */\n      pop\n      pop\n      pop\n      jump\t// out\n    tag_39:\n      dup3\n      dup1\n      sload\n      tag_44\n      swap1\n      tag_16\n      jump\t// in\n    tag_44:\n      swap1\n      0x00\n      mstore\n      keccak256(0x00, 0x20)\n      swap1\n      0x1f\n      add\n      0x20\n      swap1\n      div\n      dup2\n      add\n      swap3\n      dup3\n      tag_46\n      jumpi\n      0x00\n      dup6\n      sstore\n      jump(tag_45)\n    tag_46:\n      dup3\n      0x1f\n      lt\n      tag_47\n      jumpi\n      dup1\n      mload\n      not(0xff)\n      and\n      dup4\n      dup1\n      add\n      or\n      dup6\n      sstore\n      jump(tag_45)\n    tag_47:\n      dup3\n      dup1\n      add\n      0x01\n      add\n      dup6\n      sstore\n      dup3\n      iszero\n      tag_45\n      jumpi\n      swap2\n      dup3\n      add\n    tag_48:\n      dup3\n      dup2\n      gt\n      iszero\n      tag_49\n      jumpi\n      dup3\n      mload\n      dup3\n      sstore\n      swap2\n      0x20\n      add\n      swap2\n      swap1\n      0x01\n      add\n      swap1\n      jump(tag_48)\n    tag_49:\n    tag_45:\n      pop\n      swap1\n      pop\n      tag_50\n      swap2\n      swap1\n      tag_51\n      jump\t// in\n    tag_50:\n      pop\n      swap1\n      jump\t// out\n    tag_51:\n    tag_52:\n      dup1\n      dup3\n      gt\n      iszero\n      tag_53\n      jumpi\n      0x00\n      dup2\n      0x00\n      swap1\n      sstore\n      pop\n      0x01\n      add\n      jump(tag_52)\n    tag_53:\n      pop\n      swap1\n      jump\t// out\n        /* \"#utility.yul\":7:419   */\n    tag_55:\n        /* \"#utility.yul\":85:90   */\n      0x00\n        /* \"#utility.yul\":110:176   */\n      tag_57\n        /* \"#utility.yul\":126:175   */\n      tag_58\n        /* \"#utility.yul\":168:174   */\n      dup5\n        /* \"#utility.yul\":126:175   */\n      tag_59\n      jump\t// in\n    tag_58:\n        /* \"#utility.yul\":110:176   */\n      tag_60\n      jump\t// in\n    tag_57:\n        /* \"#utility.yul\":101:176   */\n      swap1\n      pop\n        /* \"#utility.yul\":199:205   */\n      dup3\n        /* \"#utility.yul\":192:197   */\n      dup2\n        /* \"#utility.yul\":185:206   */\n      mstore\n        /* \"#utility.yul\":237:241   */\n      0x20\n        /* \"#utility.yul\":230:235   */\n      dup2\n        /* \"#utility.yul\":226:242   */\n      add\n        /* \"#utility.yul\":275:278   */\n      dup5\n        /* \"#utility.yul\":266:272   */\n      dup5\n        /* \"#utility.yul\":261:264   */\n      dup5\n        /* \"#utility.yul\":257:273   */\n      add\n        /* \"#utility.yul\":254:279   */\n      gt\n        /* \"#utility.yul\":251:363   */\n      iszero\n      tag_61\n      jumpi\n        /* \"#utility.yul\":282:361   */\n      tag_62\n      tag_63\n      jump\t// in\n    tag_62:\n        /* \"#utility.yul\":251:363   */\n    tag_61:\n        /* \"#utility.yul\":372:413   */\n      tag_64\n        /* \"#utility.yul\":406:412   */\n      dup5\n        /* \"#utility.yul\":401:404   */\n      dup3\n        /* \"#utility.yul\":396:399   */\n      dup6\n        /* \"#utility.yul\":372:413   */\n      tag_65\n      jump\t// in\n    tag_64:\n        /* \"#utility.yul\":91:419   */\n      pop\n        /* \"#utility.yul\":7:419   */\n      swap4\n      swap3\n      pop\n      pop\n      pop\n      jump\t// out\n        /* \"#utility.yul\":439:779   */\n    tag_66:\n        /* \"#utility.yul\":495:500   */\n      0x00\n        /* \"#utility.yul\":544:547   */\n      dup3\n        /* \"#utility.yul\":537:541   */\n      0x1f\n        /* \"#utility.yul\":529:535   */\n      dup4\n        /* \"#utility.yul\":525:542   */\n      add\n        /* \"#utility.yul\":521:548   */\n      slt\n        /* \"#utility.yul\":511:633   */\n      tag_68\n      jumpi\n        /* \"#utility.yul\":552:631   */\n      tag_69\n      tag_70\n      jump\t// in\n    tag_69:\n        /* \"#utility.yul\":511:633   */\n    tag_68:\n        /* \"#utility.yul\":669:675   */\n      dup2\n        /* \"#utility.yul\":656:676   */\n      calldataload\n        /* \"#utility.yul\":694:773   */\n      tag_71\n        /* \"#utility.yul\":769:772   */\n      dup5\n        /* \"#utility.yul\":761:767   */\n      dup3\n        /* \"#utility.yul\":754:758   */\n      0x20\n        /* \"#utility.yul\":746:752   */\n      dup7\n        /* \"#utility.yul\":742:759   */\n      add\n        /* \"#utility.yul\":694:773   */\n      tag_55\n      jump\t// in\n    tag_71:\n        /* \"#utility.yul\":685:773   */\n      swap2\n      pop\n        /* \"#utility.yul\":501:779   */\n      pop\n        /* \"#utility.yul\":439:779   */\n      swap3\n      swap2\n      pop\n      pop\n      jump\t// out\n        /* \"#utility.yul\":785:924   */\n    tag_72:\n        /* \"#utility.yul\":831:836   */\n      0x00\n        /* \"#utility.yul\":869:875   */\n      dup2\n        /* \"#utility.yul\":856:876   */\n      calldataload\n        /* \"#utility.yul\":847:876   */\n      swap1\n      pop\n        /* \"#utility.yul\":885:918   */\n      tag_74\n        /* \"#utility.yul\":912:917   */\n      dup2\n        /* \"#utility.yul\":885:918   */\n      tag_75\n      jump\t// in\n    tag_74:\n        /* \"#utility.yul\":785:924   */\n      swap3\n      swap2\n      pop\n      pop\n      jump\t// out\n        /* \"#utility.yul\":930:2089   */\n    tag_13:\n        /* \"#utility.yul\":1037:1043   */\n      0x00\n        /* \"#utility.yul\":1045:1051   */\n      dup1\n        /* \"#utility.yul\":1053:1059   */\n      0x00\n        /* \"#utility.yul\":1102:1104   */\n      0x60\n        /* \"#utility.yul\":1090:1099   */\n      dup5\n        /* \"#utility.yul\":1081:1088   */\n      dup7\n        /* \"#utility.yul\":1077:1100   */\n      sub\n        /* \"#utility.yul\":1073:1105   */\n      slt\n        /* \"#utility.yul\":1070:1189   */\n      iszero\n      tag_77\n      jumpi\n        /* \"#utility.yul\":1108:1187   */\n      tag_78\n      tag_79\n      jump\t// in\n    tag_78:\n        /* \"#utility.yul\":1070:1189   */\n    tag_77:\n        /* \"#utility.yul\":1256:1257   */\n      0x00\n        /* \"#utility.yul\":1245:1254   */\n      dup5\n        /* \"#utility.yul\":1241:1258   */\n      add\n        /* \"#utility.yul\":1228:1259   */\n      calldataload\n        /* \"#utility.yul\":1286:1304   */\n      0xffffffffffffffff\n        /* \"#utility.yul\":1278:1284   */\n      dup2\n        /* \"#utility.yul\":1275:1305   */\n      gt\n        /* \"#utility.yul\":1272:1389   */\n      iszero\n      tag_80\n      jumpi\n        /* \"#utility.yul\":1308:1387   */\n      tag_81\n      tag_82\n      jump\t// in\n    tag_81:\n        /* \"#utility.yul\":1272:1389   */\n    tag_80:\n        /* \"#utility.yul\":1413:1476   */\n      tag_83\n        /* \"#utility.yul\":1468:1475   */\n      dup7\n        /* \"#utility.yul\":1459:1465   */\n      dup3\n        /* \"#utility.yul\":1448:1457   */\n      dup8\n        /* \"#utility.yul\":1444:1466   */\n      add\n        /* \"#utility.yul\":1413:1476   */\n      tag_66\n      jump\t// in\n    tag_83:\n        /* \"#utility.yul\":1403:1476   */\n      swap4\n      pop\n        /* \"#utility.yul\":1199:1486   */\n      pop\n        /* \"#utility.yul\":1553:1555   */\n      0x20\n        /* \"#utility.yul\":1542:1551   */\n      dup5\n        /* \"#utility.yul\":1538:1556   */\n      add\n        /* \"#utility.yul\":1525:1557   */\n      calldataload\n        /* \"#utility.yul\":1584:1602   */\n      0xffffffffffffffff\n        /* \"#utility.yul\":1576:1582   */\n      dup2\n        /* \"#utility.yul\":1573:1603   */\n      gt\n        /* \"#utility.yul\":1570:1687   */\n      iszero\n      tag_84\n      jumpi\n        /* \"#utility.yul\":1606:1685   */\n      tag_85\n      tag_82\n      jump\t// in\n    tag_85:\n        /* \"#utility.yul\":1570:1687   */\n    tag_84:\n        /* \"#utility.yul\":1711:1774   */\n      tag_86\n        /* \"#utility.yul\":1766:1773   */\n      dup7\n        /* \"#utility.yul\":1757:1763   */\n      dup3\n        /* \"#utility.yul\":1746:1755   */\n      dup8\n        /* \"#utility.yul\":1742:1764   */\n      add\n        /* \"#utility.yul\":1711:1774   */\n      tag_66\n      jump\t// in\n    tag_86:\n        /* \"#utility.yul\":1701:1774   */\n      swap3\n      pop\n        /* \"#utility.yul\":1496:1784   */\n      pop\n        /* \"#utility.yul\":1851:1853   */\n      0x40\n        /* \"#utility.yul\":1840:1849   */\n      dup5\n        /* \"#utility.yul\":1836:1854   */\n      add\n        /* \"#utility.yul\":1823:1855   */\n      calldataload\n        /* \"#utility.yul\":1882:1900   */\n      0xffffffffffffffff\n        /* \"#utility.yul\":1874:1880   */\n      dup2\n        /* \"#utility.yul\":1871:1901   */\n      gt\n        /* \"#utility.yul\":1868:1985   */\n      iszero\n      tag_87\n      jumpi\n        /* \"#utility.yul\":1904:1983   */\n      tag_88\n      tag_82\n      jump\t// in\n    tag_88:\n        /* \"#utility.yul\":1868:1985   */\n    tag_87:\n        /* \"#utility.yul\":2009:2072   */\n      tag_89\n        /* \"#utility.yul\":2064:2071   */\n      dup7\n        /* \"#utility.yul\":2055:2061   */\n      dup3\n        /* \"#utility.yul\":2044:2053   */\n      dup8\n        /* \"#utility.yul\":2040:2062   */\n      add\n        /* \"#utility.yul\":2009:2072   */\n      tag_66\n      jump\t// in\n    tag_89:\n        /* \"#utility.yul\":1999:2072   */\n      swap2\n      pop\n        /* \"#utility.yul\":1794:2082   */\n      pop\n        /* \"#utility.yul\":930:2089   */\n      swap3\n      pop\n      swap3\n      pop\n      swap3\n      jump\t// out\n        /* \"#utility.yul\":2095:2424   */\n    tag_7:\n        /* \"#utility.yul\":2154:2160   */\n      0x00\n        /* \"#utility.yul\":2203:2205   */\n      0x20\n        /* \"#utility.yul\":2191:2200   */\n      dup3\n        /* \"#utility.yul\":2182:2189   */\n      dup5\n        /* \"#utility.yul\":2178:2201   */\n      sub\n        /* \"#utility.yul\":2174:2206   */\n      slt\n        /* \"#utility.yul\":2171:2290   */\n      iszero\n      tag_91\n      jumpi\n        /* \"#utility.yul\":2209:2288   */\n      tag_92\n      tag_79\n      jump\t// in\n    tag_92:\n        /* \"#utility.yul\":2171:2290   */\n    tag_91:\n        /* \"#utility.yul\":2329:2330   */\n      0x00\n        /* \"#utility.yul\":2354:2407   */\n      tag_93\n        /* \"#utility.yul\":2399:2406   */\n      dup5\n        /* \"#utility.yul\":2390:2396   */\n      dup3\n        /* \"#utility.yul\":2379:2388   */\n      dup6\n        /* \"#utility.yul\":2375:2397   */\n      add\n        /* \"#utility.yul\":2354:2407   */\n      tag_72\n      jump\t// in\n    tag_93:\n        /* \"#utility.yul\":2344:2407   */\n      swap2\n      pop\n        /* \"#utility.yul\":2300:2417   */\n      pop\n        /* \"#utility.yul\":2095:2424   */\n      swap3\n      swap2\n      pop\n      pop\n      jump\t// out\n        /* \"#utility.yul\":2430:2794   */\n    tag_94:\n        /* \"#utility.yul\":2518:2521   */\n      0x00\n        /* \"#utility.yul\":2546:2585   */\n      tag_96\n        /* \"#utility.yul\":2579:2584   */\n      dup3\n        /* \"#utility.yul\":2546:2585   */\n      tag_97\n      jump\t// in\n    tag_96:\n        /* \"#utility.yul\":2601:2672   */\n      tag_98\n        /* \"#utility.yul\":2665:2671   */\n      dup2\n        /* \"#utility.yul\":2660:2663   */\n      dup6\n        /* \"#utility.yul\":2601:2672   */\n      tag_99\n      jump\t// in\n    tag_98:\n        /* \"#utility.yul\":2594:2672   */\n      swap4\n      pop\n        /* \"#utility.yul\":2681:2733   */\n      tag_100\n        /* \"#utility.yul\":2726:2732   */\n      dup2\n        /* \"#utility.yul\":2721:2724   */\n      dup6\n        /* \"#utility.yul\":2714:2718   */\n      0x20\n        /* \"#utility.yul\":2707:2712   */\n      dup7\n        /* \"#utility.yul\":2703:2719   */\n      add\n        /* \"#utility.yul\":2681:2733   */\n      tag_101\n      jump\t// in\n    tag_100:\n        /* \"#utility.yul\":2758:2787   */\n      tag_102\n        /* \"#utility.yul\":2780:2786   */\n      dup2\n        /* \"#utility.yul\":2758:2787   */\n      tag_103\n      jump\t// in\n    tag_102:\n        /* \"#utility.yul\":2753:2756   */\n      dup5\n        /* \"#utility.yul\":2749:2788   */\n      add\n        /* \"#utility.yul\":2742:2788   */\n      swap2\n      pop\n        /* \"#utility.yul\":2522:2794   */\n      pop\n        /* \"#utility.yul\":2430:2794   */\n      swap3\n      swap2\n      pop\n      pop\n      jump\t// out\n        /* \"#utility.yul\":2800:3166   */\n    tag_104:\n        /* \"#utility.yul\":2942:2945   */\n      0x00\n        /* \"#utility.yul\":2963:3030   */\n      tag_106\n        /* \"#utility.yul\":3027:3029   */\n      0x18\n        /* \"#utility.yul\":3022:3025   */\n      dup4\n        /* \"#utility.yul\":2963:3030   */\n      tag_99\n      jump\t// in\n    tag_106:\n        /* \"#utility.yul\":2956:3030   */\n      swap2\n      pop\n        /* \"#utility.yul\":3039:3132   */\n      tag_107\n        /* \"#utility.yul\":3128:3131   */\n      dup3\n        /* \"#utility.yul\":3039:3132   */\n      tag_108\n      jump\t// in\n    tag_107:\n        /* \"#utility.yul\":3157:3159   */\n      0x20\n        /* \"#utility.yul\":3152:3155   */\n      dup3\n        /* \"#utility.yul\":3148:3160   */\n      add\n        /* \"#utility.yul\":3141:3160   */\n      swap1\n      pop\n        /* \"#utility.yul\":2800:3166   */\n      swap2\n      swap1\n      pop\n      jump\t// out\n        /* \"#utility.yul\":3172:3538   */\n    tag_109:\n        /* \"#utility.yul\":3314:3317   */\n      0x00\n        /* \"#utility.yul\":3335:3402   */\n      tag_111\n        /* \"#utility.yul\":3399:3401   */\n      0x12\n        /* \"#utility.yul\":3394:3397   */\n      dup4\n        /* \"#utility.yul\":3335:3402   */\n      tag_99\n      jump\t// in\n    tag_111:\n        /* \"#utility.yul\":3328:3402   */\n      swap2\n      pop\n        /* \"#utility.yul\":3411:3504   */\n      tag_112\n        /* \"#utility.yul\":3500:3503   */\n      dup3\n        /* \"#utility.yul\":3411:3504   */\n      tag_113\n      jump\t// in\n    tag_112:\n        /* \"#utility.yul\":3529:3531   */\n      0x20\n        /* \"#utility.yul\":3524:3527   */\n      dup3\n        /* \"#utility.yul\":3520:3532   */\n      add\n        /* \"#utility.yul\":3513:3532   */\n      swap1\n      pop\n        /* \"#utility.yul\":3172:3538   */\n      swap2\n      swap1\n      pop\n      jump\t// out\n        /* \"#utility.yul\":3544:3662   */\n    tag_114:\n        /* \"#utility.yul\":3631:3655   */\n      tag_116\n        /* \"#utility.yul\":3649:3654   */\n      dup2\n        /* \"#utility.yul\":3631:3655   */\n      tag_117\n      jump\t// in\n    tag_116:\n        /* \"#utility.yul\":3626:3629   */\n      dup3\n        /* \"#utility.yul\":3619:3656   */\n      mstore\n        /* \"#utility.yul\":3544:3662   */\n      pop\n      pop\n      jump\t// out\n        /* \"#utility.yul\":3668:4087   */\n    tag_37:\n        /* \"#utility.yul\":3834:3838   */\n      0x00\n        /* \"#utility.yul\":3872:3874   */\n      0x20\n        /* \"#utility.yul\":3861:3870   */\n      dup3\n        /* \"#utility.yul\":3857:3875   */\n      add\n        /* \"#utility.yul\":3849:3875   */\n      swap1\n      pop\n        /* \"#utility.yul\":3921:3930   */\n      dup2\n        /* \"#utility.yul\":3915:3919   */\n      dup2\n        /* \"#utility.yul\":3911:3931   */\n      sub\n        /* \"#utility.yul\":3907:3908   */\n      0x00\n        /* \"#utility.yul\":3896:3905   */\n      dup4\n        /* \"#utility.yul\":3892:3909   */\n      add\n        /* \"#utility.yul\":3885:3932   */\n      mstore\n        /* \"#utility.yul\":3949:4080   */\n      tag_119\n        /* \"#utility.yul\":4075:4079   */\n      dup2\n        /* \"#utility.yul\":3949:4080   */\n      tag_104\n      jump\t// in\n    tag_119:\n        /* \"#utility.yul\":3941:4080   */\n      swap1\n      pop\n        /* \"#utility.yul\":3668:4087   */\n      swap2\n      swap1\n      pop\n      jump\t// out\n        /* \"#utility.yul\":4093:4512   */\n    tag_34:\n        /* \"#utility.yul\":4259:4263   */\n      0x00\n        /* \"#utility.yul\":4297:4299   */\n      0x20\n        /* \"#utility.yul\":4286:4295   */\n      dup3\n        /* \"#utility.yul\":4282:4300   */\n      add\n        /* \"#utility.yul\":4274:4300   */\n      swap1\n      pop\n        /* \"#utility.yul\":4346:4355   */\n      dup2\n        /* \"#utility.yul\":4340:4344   */\n      dup2\n        /* \"#utility.yul\":4336:4356   */\n      sub\n        /* \"#utility.yul\":4332:4333   */\n      0x00\n        /* \"#utility.yul\":4321:4330   */\n      dup4\n        /* \"#utility.yul\":4317:4334   */\n      add\n        /* \"#utility.yul\":4310:4357   */\n      mstore\n        /* \"#utility.yul\":4374:4505   */\n      tag_121\n        /* \"#utility.yul\":4500:4504   */\n      dup2\n        /* \"#utility.yul\":4374:4505   */\n      tag_109\n      jump\t// in\n    tag_121:\n        /* \"#utility.yul\":4366:4505   */\n      swap1\n      pop\n        /* \"#utility.yul\":4093:4512   */\n      swap2\n      swap1\n      pop\n      jump\t// out\n        /* \"#utility.yul\":4518:5344   */\n    tag_10:\n        /* \"#utility.yul\":4755:4759   */\n      0x00\n        /* \"#utility.yul\":4793:4796   */\n      0x80\n        /* \"#utility.yul\":4782:4791   */\n      dup3\n        /* \"#utility.yul\":4778:4797   */\n      add\n        /* \"#utility.yul\":4770:4797   */\n      swap1\n      pop\n        /* \"#utility.yul\":4807:4878   */\n      tag_123\n        /* \"#utility.yul\":4875:4876   */\n      0x00\n        /* \"#utility.yul\":4864:4873   */\n      dup4\n        /* \"#utility.yul\":4860:4877   */\n      add\n        /* \"#utility.yul\":4851:4857   */\n      dup8\n        /* \"#utility.yul\":4807:4878   */\n      tag_114\n      jump\t// in\n    tag_123:\n        /* \"#utility.yul\":4925:4934   */\n      dup2\n        /* \"#utility.yul\":4919:4923   */\n      dup2\n        /* \"#utility.yul\":4915:4935   */\n      sub\n        /* \"#utility.yul\":4910:4912   */\n      0x20\n        /* \"#utility.yul\":4899:4908   */\n      dup4\n        /* \"#utility.yul\":4895:4913   */\n      add\n        /* \"#utility.yul\":4888:4936   */\n      mstore\n        /* \"#utility.yul\":4953:5031   */\n      tag_124\n        /* \"#utility.yul\":5026:5030   */\n      dup2\n        /* \"#utility.yul\":5017:5023   */\n      dup7\n        /* \"#utility.yul\":4953:5031   */\n      tag_94\n      jump\t// in\n    tag_124:\n        /* \"#utility.yul\":4945:5031   */\n      swap1\n      pop\n        /* \"#utility.yul\":5078:5087   */\n      dup2\n        /* \"#utility.yul\":5072:5076   */\n      dup2\n        /* \"#utility.yul\":5068:5088   */\n      sub\n        /* \"#utility.yul\":5063:5065   */\n      0x40\n        /* \"#utility.yul\":5052:5061   */\n      dup4\n        /* \"#utility.yul\":5048:5066   */\n      add\n        /* \"#utility.yul\":5041:5089   */\n      mstore\n        /* \"#utility.yul\":5106:5184   */\n      tag_125\n        /* \"#utility.yul\":5179:5183   */\n      dup2\n        /* \"#utility.yul\":5170:5176   */\n      dup6\n        /* \"#utility.yul\":5106:5184   */\n      tag_94\n      jump\t// in\n    tag_125:\n        /* \"#utility.yul\":5098:5184   */\n      swap1\n      pop\n        /* \"#utility.yul\":5231:5240   */\n      dup2\n        /* \"#utility.yul\":5225:5229   */\n      dup2\n        /* \"#utility.yul\":5221:5241   */\n      sub\n        /* \"#utility.yul\":5216:5218   */\n      0x60\n        /* \"#utility.yul\":5205:5214   */\n      dup4\n        /* \"#utility.yul\":5201:5219   */\n      add\n        /* \"#utility.yul\":5194:5242   */\n      mstore\n        /* \"#utility.yul\":5259:5337   */\n      tag_126\n        /* \"#utility.yul\":5332:5336   */\n      dup2\n        /* \"#utility.yul\":5323:5329   */\n      dup5\n        /* \"#utility.yul\":5259:5337   */\n      tag_94\n      jump\t// in\n    tag_126:\n        /* \"#utility.yul\":5251:5337   */\n      swap1\n      pop\n        /* \"#utility.yul\":4518:5344   */\n      swap6\n      swap5\n      pop\n      pop\n      pop\n      pop\n      pop\n      jump\t// out\n        /* \"#utility.yul\":5350:5479   */\n    tag_60:\n        /* \"#utility.yul\":5384:5390   */\n      0x00\n        /* \"#utility.yul\":5411:5431   */\n      tag_128\n      tag_129\n      jump\t// in\n    tag_128:\n        /* \"#utility.yul\":5401:5431   */\n      swap1\n      pop\n        /* \"#utility.yul\":5440:5473   */\n      tag_130\n        /* \"#utility.yul\":5468:5472   */\n      dup3\n        /* \"#utility.yul\":5460:5466   */\n      dup3\n        /* \"#utility.yul\":5440:5473   */\n      tag_131\n      jump\t// in\n    tag_130:\n        /* \"#utility.yul\":5350:5479   */\n      swap2\n      swap1\n      pop\n      jump\t// out\n        /* \"#utility.yul\":5485:5560   */\n    tag_129:\n        /* \"#utility.yul\":5518:5524   */\n      0x00\n        /* \"#utility.yul\":5551:5553   */\n      0x40\n        /* \"#utility.yul\":5545:5554   */\n      mload\n        /* \"#utility.yul\":5535:5554   */\n      swap1\n      pop\n        /* \"#utility.yul\":5485:5560   */\n      swap1\n      jump\t// out\n        /* \"#utility.yul\":5566:5874   */\n    tag_59:\n        /* \"#utility.yul\":5628:5632   */\n      0x00\n        /* \"#utility.yul\":5718:5736   */\n      0xffffffffffffffff\n        /* \"#utility.yul\":5710:5716   */\n      dup3\n        /* \"#utility.yul\":5707:5737   */\n      gt\n        /* \"#utility.yul\":5704:5760   */\n      iszero\n      tag_134\n      jumpi\n        /* \"#utility.yul\":5740:5758   */\n      tag_135\n      tag_136\n      jump\t// in\n    tag_135:\n        /* \"#utility.yul\":5704:5760   */\n    tag_134:\n        /* \"#utility.yul\":5778:5807   */\n      tag_137\n        /* \"#utility.yul\":5800:5806   */\n      dup3\n        /* \"#utility.yul\":5778:5807   */\n      tag_103\n      jump\t// in\n    tag_137:\n        /* \"#utility.yul\":5770:5807   */\n      swap1\n      pop\n        /* \"#utility.yul\":5862:5866   */\n      0x20\n        /* \"#utility.yul\":5856:5860   */\n      dup2\n        /* \"#utility.yul\":5852:5867   */\n      add\n        /* \"#utility.yul\":5844:5867   */\n      swap1\n      pop\n        /* \"#utility.yul\":5566:5874   */\n      swap2\n      swap1\n      pop\n      jump\t// out\n        /* \"#utility.yul\":5880:5979   */\n    tag_97:\n        /* \"#utility.yul\":5932:5938   */\n      0x00\n        /* \"#utility.yul\":5966:5971   */\n      dup2\n        /* \"#utility.yul\":5960:5972   */\n      mload\n        /* \"#utility.yul\":5950:5972   */\n      swap1\n      pop\n        /* \"#utility.yul\":5880:5979   */\n      swap2\n      swap1\n      pop\n      jump\t// out\n        /* \"#utility.yul\":5985:6154   */\n    tag_99:\n        /* \"#utility.yul\":6069:6080   */\n      0x00\n        /* \"#utility.yul\":6103:6109   */\n      dup3\n        /* \"#utility.yul\":6098:6101   */\n      dup3\n        /* \"#utility.yul\":6091:6110   */\n      mstore\n        /* \"#utility.yul\":6143:6147   */\n      0x20\n        /* \"#utility.yul\":6138:6141   */\n      dup3\n        /* \"#utility.yul\":6134:6148   */\n      add\n        /* \"#utility.yul\":6119:6148   */\n      swap1\n      pop\n        /* \"#utility.yul\":5985:6154   */\n      swap3\n      swap2\n      pop\n      pop\n      jump\t// out\n        /* \"#utility.yul\":6160:6237   */\n    tag_117:\n        /* \"#utility.yul\":6197:6204   */\n      0x00\n        /* \"#utility.yul\":6226:6231   */\n      dup2\n        /* \"#utility.yul\":6215:6231   */\n      swap1\n      pop\n        /* \"#utility.yul\":6160:6237   */\n      swap2\n      swap1\n      pop\n      jump\t// out\n        /* \"#utility.yul\":6243:6397   */\n    tag_65:\n        /* \"#utility.yul\":6327:6333   */\n      dup3\n        /* \"#utility.yul\":6322:6325   */\n      dup2\n        /* \"#utility.yul\":6317:6320   */\n      dup4\n        /* \"#utility.yul\":6304:6334   */\n      calldatacopy\n        /* \"#utility.yul\":6389:6390   */\n      0x00\n        /* \"#utility.yul\":6380:6386   */\n      dup4\n        /* \"#utility.yul\":6375:6378   */\n      dup4\n        /* \"#utility.yul\":6371:6387   */\n      add\n        /* \"#utility.yul\":6364:6391   */\n      mstore\n        /* \"#utility.yul\":6243:6397   */\n      pop\n      pop\n      pop\n      jump\t// out\n        /* \"#utility.yul\":6403:6710   */\n    tag_101:\n        /* \"#utility.yul\":6471:6472   */\n      0x00\n        /* \"#utility.yul\":6481:6594   */\n    tag_143:\n        /* \"#utility.yul\":6495:6501   */\n      dup4\n        /* \"#utility.yul\":6492:6493   */\n      dup2\n        /* \"#utility.yul\":6489:6502   */\n      lt\n        /* \"#utility.yul\":6481:6594   */\n      iszero\n      tag_145\n      jumpi\n        /* \"#utility.yul\":6580:6581   */\n      dup1\n        /* \"#utility.yul\":6575:6578   */\n      dup3\n        /* \"#utility.yul\":6571:6582   */\n      add\n        /* \"#utility.yul\":6565:6583   */\n      mload\n        /* \"#utility.yul\":6561:6562   */\n      dup2\n        /* \"#utility.yul\":6556:6559   */\n      dup5\n        /* \"#utility.yul\":6552:6563   */\n      add\n        /* \"#utility.yul\":6545:6584   */\n      mstore\n        /* \"#utility.yul\":6517:6519   */\n      0x20\n        /* \"#utility.yul\":6514:6515   */\n      dup2\n        /* \"#utility.yul\":6510:6520   */\n      add\n        /* \"#utility.yul\":6505:6520   */\n      swap1\n      pop\n        /* \"#utility.yul\":6481:6594   */\n      jump(tag_143)\n    tag_145:\n        /* \"#utility.yul\":6612:6618   */\n      dup4\n        /* \"#utility.yul\":6609:6610   */\n      dup2\n        /* \"#utility.yul\":6606:6619   */\n      gt\n        /* \"#utility.yul\":6603:6704   */\n      iszero\n      tag_146\n      jumpi\n        /* \"#utility.yul\":6692:6693   */\n      0x00\n        /* \"#utility.yul\":6683:6689   */\n      dup5\n        /* \"#utility.yul\":6678:6681   */\n      dup5\n        /* \"#utility.yul\":6674:6690   */\n      add\n        /* \"#utility.yul\":6667:6694   */\n      mstore\n        /* \"#utility.yul\":6603:6704   */\n    tag_146:\n        /* \"#utility.yul\":6452:6710   */\n      pop\n        /* \"#utility.yul\":6403:6710   */\n      pop\n      pop\n      pop\n      jump\t// out\n        /* \"#utility.yul\":6716:7036   */\n    tag_16:\n        /* \"#utility.yul\":6760:6766   */\n      0x00\n        /* \"#utility.yul\":6797:6798   */\n      0x02\n        /* \"#utility.yul\":6791:6795   */\n      dup3\n        /* \"#utility.yul\":6787:6799   */\n      div\n        /* \"#utility.yul\":6777:6799   */\n      swap1\n      pop\n        /* \"#utility.yul\":6844:6845   */\n      0x01\n        /* \"#utility.yul\":6838:6842   */\n      dup3\n        /* \"#utility.yul\":6834:6846   */\n      and\n        /* \"#utility.yul\":6865:6883   */\n      dup1\n        /* \"#utility.yul\":6855:6936   */\n      tag_148\n      jumpi\n        /* \"#utility.yul\":6921:6925   */\n      0x7f\n        /* \"#utility.yul\":6913:6919   */\n      dup3\n        /* \"#utility.yul\":6909:6926   */\n      and\n        /* \"#utility.yul\":6899:6926   */\n      swap2\n      pop\n        /* \"#utility.yul\":6855:6936   */\n    tag_148:\n        /* \"#utility.yul\":6983:6985   */\n      0x20\n        /* \"#utility.yul\":6975:6981   */\n      dup3\n        /* \"#utility.yul\":6972:6986   */\n      lt\n        /* \"#utility.yul\":6952:6970   */\n      dup2\n        /* \"#utility.yul\":6949:6987   */\n      eq\n        /* \"#utility.yul\":6946:7030   */\n      iszero\n      tag_149\n      jumpi\n        /* \"#utility.yul\":7002:7020   */\n      tag_150\n      tag_151\n      jump\t// in\n    tag_150:\n        /* \"#utility.yul\":6946:7030   */\n    tag_149:\n        /* \"#utility.yul\":6767:7036   */\n      pop\n        /* \"#utility.yul\":6716:7036   */\n      swap2\n      swap1\n      pop\n      jump\t// out\n        /* \"#utility.yul\":7042:7323   */\n    tag_131:\n        /* \"#utility.yul\":7125:7152   */\n      tag_153\n        /* \"#utility.yul\":7147:7151   */\n      dup3\n        /* \"#utility.yul\":7125:7152   */\n      tag_103\n      jump\t// in\n    tag_153:\n        /* \"#utility.yul\":7117:7123   */\n      dup2\n        /* \"#utility.yul\":7113:7153   */\n      add\n        /* \"#utility.yul\":7255:7261   */\n      dup2\n        /* \"#utility.yul\":7243:7253   */\n      dup2\n        /* \"#utility.yul\":7240:7262   */\n      lt\n        /* \"#utility.yul\":7219:7237   */\n      0xffffffffffffffff\n        /* \"#utility.yul\":7207:7217   */\n      dup3\n        /* \"#utility.yul\":7204:7238   */\n      gt\n        /* \"#utility.yul\":7201:7263   */\n      or\n        /* \"#utility.yul\":7198:7286   */\n      iszero\n      tag_154\n      jumpi\n        /* \"#utility.yul\":7266:7284   */\n      tag_155\n      tag_136\n      jump\t// in\n    tag_155:\n        /* \"#utility.yul\":7198:7286   */\n    tag_154:\n        /* \"#utility.yul\":7306:7316   */\n      dup1\n        /* \"#utility.yul\":7302:7304   */\n      0x40\n        /* \"#utility.yul\":7295:7317   */\n      mstore\n        /* \"#utility.yul\":7085:7323   */\n      pop\n        /* \"#utility.yul\":7042:7323   */\n      pop\n      pop\n      jump\t// out\n        /* \"#utility.yul\":7329:7562   */\n    tag_43:\n        /* \"#utility.yul\":7368:7371   */\n      0x00\n        /* \"#utility.yul\":7391:7415   */\n      tag_157\n        /* \"#utility.yul\":7409:7414   */\n      dup3\n        /* \"#utility.yul\":7391:7415   */\n      tag_117\n      jump\t// in\n    tag_157:\n        /* \"#utility.yul\":7382:7415   */\n      swap2\n      pop\n        /* \"#utility.yul\":7437:7503   */\n      0xffffffffffffffffffffffffffffffffffffffffffffffffffffffffffffffff\n        /* \"#utility.yul\":7430:7435   */\n      dup3\n        /* \"#utility.yul\":7427:7504   */\n      eq\n        /* \"#utility.yul\":7424:7527   */\n      iszero\n      tag_158\n      jumpi\n        /* \"#utility.yul\":7507:7525   */\n      tag_159\n      tag_160\n      jump\t// in\n    tag_159:\n        /* \"#utility.yul\":7424:7527   */\n    tag_158:\n        /* \"#utility.yul\":7554:7555   */\n      0x01\n        /* \"#utility.yul\":7547:7552   */\n      dup3\n        /* \"#utility.yul\":7543:7556   */\n      add\n        /* \"#utility.yul\":7536:7556   */\n      swap1\n      pop\n        /* \"#utility.yul\":7329:7562   */\n      swap2\n      swap1\n      pop\n      jump\t// out\n        /* \"#utility.yul\":7568:7748   */\n    tag_160:\n        /* \"#utility.yul\":7616:7693   */\n      0x4e487b7100000000000000000000000000000000000000000000000000000000\n        /* \"#utility.yul\":7613:7614   */\n      0x00\n        /* \"#utility.yul\":7606:7694   */\n      mstore\n        /* \"#utility.yul\":7713:7717   */\n      0x11\n        /* \"#utility.yul\":7710:7711   */\n      0x04\n        /* \"#utility.yul\":7703:7718   */\n      mstore\n        /* \"#utility.yul\":7737:7741   */\n      0x24\n        /* \"#utility.yul\":7734:7735   */\n      0x00\n        /* \"#utility.yul\":7727:7742   */\n      revert\n        /* \"#utility.yul\":7754:7934   */\n    tag_151:\n        /* \"#utility.yul\":7802:7879   */\n      0x4e487b7100000000000000000000000000000000000000000000000000000000\n        /* \"#utility.yul\":7799:7800   */\n      0x00\n        /* \"#utility.yul\":7792:7880   */\n      mstore\n        /* \"#utility.yul\":7899:7903   */\n      0x22\n        /* \"#utility.yul\":7896:7897   */\n      0x04\n        /* \"#utility.yul\":7889:7904   */\n      mstore\n        /* \"#utility.yul\":7923:7927   */\n      0x24\n        /* \"#utility.yul\":7920:7921   */\n      0x00\n        /* \"#utility.yul\":7913:7928   */\n      revert\n        /* \"#utility.yul\":7940:8120   */\n    tag_136:\n        /* \"#utility.yul\":7988:8065   */\n      0x4e487b7100000000000000000000000000000000000000000000000000000000\n        /* \"#utility.yul\":7985:7986   */\n      0x00\n        /* \"#utility.yul\":7978:8066   */\n      mstore\n        /* \"#utility.yul\":8085:8089   */\n      0x41\n        /* \"#utility.yul\":8082:8083   */\n      0x04\n        /* \"#utility.yul\":8075:8090   */\n      mstore\n        /* \"#utility.yul\":8109:8113   */\n      0x24\n        /* \"#utility.yul\":8106:8107   */\n      0x00\n        /* \"#utility.yul\":8099:8114   */\n      revert\n        /* \"#utility.yul\":8126:8243   */\n    tag_70:\n        /* \"#utility.yul\":8235:8236   */\n      0x00\n        /* \"#utility.yul\":8232:8233   */\n      dup1\n        /* \"#utility.yul\":8225:8237   */\n      revert\n        /* \"#utility.yul\":8249:8366   */\n    tag_63:\n        /* \"#utility.yul\":8358:8359   */\n      0x00\n        /* \"#utility.yul\":8355:8356   */\n      dup1\n        /* \"#utility.yul\":8348:8360   */\n      revert\n        /* \"#utility.yul\":8372:8489   */\n    tag_82:\n        /* \"#utility.yul\":8481:8482   */\n      0x00\n        /* \"#utility.yul\":8478:8479   */\n      dup1\n        /* \"#utility.yul\":8471:8483   */\n      revert\n        /* \"#utility.yul\":8495:8612   */\n    tag_79:\n        /* \"#utility.yul\":8604:8605   */\n      0x00\n        /* \"#utility.yul\":8601:8602   */\n      dup1\n        /* \"#utility.yul\":8594:8606   */\n      revert\n        /* \"#utility.yul\":8618:8720   */\n    tag_103:\n        /* \"#utility.yul\":8659:8665   */\n      0x00\n        /* \"#utility.yul\":8710:8712   */\n      0x1f\n        /* \"#utility.yul\":8706:8713   */\n      not\n        /* \"#utility.yul\":8701:8703   */\n      0x1f\n        /* \"#utility.yul\":8694:8699   */\n      dup4\n        /* \"#utility.yul\":8690:8704   */\n      add\n        /* \"#utility.yul\":8686:8714   */\n      and\n        /* \"#utility.yul\":8676:8714   */\n      swap1\n      pop\n        /* \"#utility.yul\":8618:8720   */\n      swap2\n      swap1\n      pop\n      jump\t// out\n        /* \"#utility.yul\":8726:8900   */\n    tag_108:\n        /* \"#utility.yul\":8866:8892   */\n      0x4465736372697074696f6e20697320746f6f2073686f72740000000000000000\n        /* \"#utility.yul\":8862:8863   */\n      0x00\n        /* \"#utility.yul\":8854:8860   */\n      dup3\n        /* \"#utility.yul\":8850:8864   */\n      add\n        /* \"#utility.yul\":8843:8893   */\n      mstore\n        /* \"#utility.yul\":8726:8900   */\n      pop\n      jump\t// out\n        /* \"#utility.yul\":8906:9074   */\n    tag_113:\n        /* \"#utility.yul\":9046:9066   */\n      0x5469746c6520697320746f6f2073686f72740000000000000000000000000000\n        /* \"#utility.yul\":9042:9043   */\n      0x00\n        /* \"#utility.yul\":9034:9040   */\n      dup3\n        /* \"#utility.yul\":9030:9044   */\n      add\n        /* \"#utility.yul\":9023:9067   */\n      mstore\n        /* \"#utility.yul\":8906:9074   */\n      pop\n      jump\t// out\n        /* \"#utility.yul\":9080:9202   */\n    tag_75:\n        /* \"#utility.yul\":9153:9177   */\n      tag_172\n        /* \"#utility.yul\":9171:9176   */\n      dup2\n        /* \"#utility.yul\":9153:9177   */\n      tag_117\n      jump\t// in\n    tag_172:\n        /* \"#utility.yul\":9146:9151   */\n      dup2\n        /* \"#utility.yul\":9143:9178   */\n      eq\n        /* \"#utility.yul\":9133:9196   */\n      tag_173\n      jumpi\n        /* \"#utility.yul\":9192:9193   */\n      0x00\n        /* \"#utility.yul\":9189:9190   */\n      dup1\n        /* \"#utility.yul\":9182:9194   */\n      revert\n        /* \"#utility.yul\":9133:9196   */\n    tag_173:\n        /* \"#utility.yul\":9080:9202   */\n      pop\n      jump\t// out\n\n    auxdata: 0xa26469706673582212206cbe26947d38683300e2a9e50f93e913f3c6c1cbb7f9cce1cff6c76496ca632264736f6c63430008070033\n}\n",
				"bytecode": {
					"linkReferences": {},
					"object": "6080604052600160005534801561001557600080fd5b50610973806100256000396000f3fe608060405234801561001057600080fd5b50600436106100365760003560e01c806304d8e0331461003b5780635d28560a1461006e575b600080fd5b61005560048036038101906100509190610563565b61008a565b604051610065949392919061065e565b60405180910390f35b610088600480360381019061008391906104bc565b610252565b005b60016020528060005260406000206000915090508060000154908060010180546100b390610776565b80601f01602080910402602001604051908101604052809291908181526020018280546100df90610776565b801561012c5780601f106101015761010080835404028352916020019161012c565b820191906000526020600020905b81548152906001019060200180831161010f57829003601f168201915b50505050509080600201805461014190610776565b80601f016020809104026020016040519081016040528092919081815260200182805461016d90610776565b80156101ba5780601f1061018f576101008083540402835291602001916101ba565b820191906000526020600020905b81548152906001019060200180831161019d57829003601f168201915b5050505050908060030180546101cf90610776565b80601f01602080910402602001604051908101604052809291908181526020018280546101fb90610776565b80156102485780601f1061021d57610100808354040283529160200191610248565b820191906000526020600020905b81548152906001019060200180831161022b57829003601f168201915b5050505050905084565b6009835111610296576040517f08c379a000000000000000000000000000000000000000000000000000000000815260040161028d9061063e565b60405180910390fd5b60098251116102da576040517f08c379a00000000000000000000000000000000000000000000000000000000081526004016102d19061061e565b60405180910390fd5b606060405180608001604052806000548152602001858152602001848152602001838152506001600080548152602001908152602001600020600082015181600001556020820151816001019080519060200190610339929190610394565b506040820151816002019080519060200190610356929190610394565b506060820151816003019080519060200190610373929190610394565b50905050600080815480929190610389906107d9565b919050555050505050565b8280546103a090610776565b90600052602060002090601f0160209004810192826103c25760008555610409565b82601f106103db57805160ff1916838001178555610409565b82800160010185558215610409579182015b828111156104085782518255916020019190600101906103ed565b5b509050610416919061041a565b5090565b5b8082111561043357600081600090555060010161041b565b5090565b600061044a610445846106dd565b6106b8565b905082815260208101848484011115610466576104656108b4565b5b610471848285610734565b509392505050565b600082601f83011261048e5761048d6108af565b5b813561049e848260208601610437565b91505092915050565b6000813590506104b681610926565b92915050565b6000806000606084860312156104d5576104d46108be565b5b600084013567ffffffffffffffff8111156104f3576104f26108b9565b5b6104ff86828701610479565b935050602084013567ffffffffffffffff8111156105205761051f6108b9565b5b61052c86828701610479565b925050604084013567ffffffffffffffff81111561054d5761054c6108b9565b5b61055986828701610479565b9150509250925092565b600060208284031215610579576105786108be565b5b6000610587848285016104a7565b91505092915050565b600061059b8261070e565b6105a58185610719565b93506105b5818560208601610743565b6105be816108c3565b840191505092915050565b60006105d6601883610719565b91506105e1826108d4565b602082019050919050565b60006105f9601283610719565b9150610604826108fd565b602082019050919050565b6106188161072a565b82525050565b60006020820190508181036000830152610637816105c9565b9050919050565b60006020820190508181036000830152610657816105ec565b9050919050565b6000608082019050610673600083018761060f565b81810360208301526106858186610590565b905081810360408301526106998185610590565b905081810360608301526106ad8184610590565b905095945050505050565b60006106c26106d3565b90506106ce82826107a8565b919050565b6000604051905090565b600067ffffffffffffffff8211156106f8576106f7610880565b5b610701826108c3565b9050602081019050919050565b600081519050919050565b600082825260208201905092915050565b6000819050919050565b82818337600083830152505050565b60005b83811015610761578082015181840152602081019050610746565b83811115610770576000848401525b50505050565b6000600282049050600182168061078e57607f821691505b602082108114156107a2576107a1610851565b5b50919050565b6107b1826108c3565b810181811067ffffffffffffffff821117156107d0576107cf610880565b5b80604052505050565b60006107e48261072a565b91507fffffffffffffffffffffffffffffffffffffffffffffffffffffffffffffffff82141561081757610816610822565b5b600182019050919050565b7f4e487b7100000000000000000000000000000000000000000000000000000000600052601160045260246000fd5b7f4e487b7100000000000000000000000000000000000000000000000000000000600052602260045260246000fd5b7f4e487b7100000000000000000000000000000000000000000000000000000000600052604160045260246000fd5b600080fd5b600080fd5b600080fd5b600080fd5b6000601f19601f8301169050919050565b7f4465736372697074696f6e20697320746f6f2073686f72740000000000000000600082015250565b7f5469746c6520697320746f6f2073686f72740000000000000000000000000000600082015250565b61092f8161072a565b811461093a57600080fd5b5056fea26469706673582212206cbe26947d38683300e2a9e50f93e913f3c6c1cbb7f9cce1cff6c76496ca632264736f6c63430008070033",
					"opcodes": "PUSH1 0x80 PUSH1 0x40 MSTORE PUSH1 0x1 PUSH1 0x0 SSTORE CALLVALUE DUP1 ISZERO PUSH2 0x15 JUMPI PUSH1 0x0 DUP1 REVERT JUMPDEST POP PUSH2 0x973 DUP1 PUSH2 0x25 PUSH1 0x0 CODECOPY PUSH1 0x0 RETURN INVALID PUSH1 0x80 PUSH1 0x40 MSTORE CALLVALUE DUP1 ISZERO PUSH2 0x10 JUMPI PUSH1 0x0 DUP1 REVERT JUMPDEST POP PUSH1 0x4 CALLDATASIZE LT PUSH2 0x36 JUMPI PUSH1 0x0 CALLDATALOAD PUSH1 0xE0 SHR DUP1 PUSH4 0x4D8E033 EQ PUSH2 0x3B JUMPI DUP1 PUSH4 0x5D28560A EQ PUSH2 0x6E JUMPI JUMPDEST PUSH1 0x0 DUP1 REVERT JUMPDEST PUSH2 0x55 PUSH1 0x4 DUP1 CALLDATASIZE SUB DUP2 ADD SWAP1 PUSH2 0x50 SWAP2 SWAP1 PUSH2 0x563 JUMP JUMPDEST PUSH2 0x8A JUMP JUMPDEST PUSH1 0x40 MLOAD PUSH2 0x65 SWAP5 SWAP4 SWAP3 SWAP2 SWAP1 PUSH2 0x65E JUMP JUMPDEST PUSH1 0x40 MLOAD DUP1 SWAP2 SUB SWAP1 RETURN JUMPDEST PUSH2 0x88 PUSH1 0x4 DUP1 CALLDATASIZE SUB DUP2 ADD SWAP1 PUSH2 0x83 SWAP2 SWAP1 PUSH2 0x4BC JUMP JUMPDEST PUSH2 0x252 JUMP JUMPDEST STOP JUMPDEST PUSH1 0x1 PUSH1 0x20 MSTORE DUP1 PUSH1 0x0 MSTORE PUSH1 0x40 PUSH1 0x0 KECCAK256 PUSH1 0x0 SWAP2 POP SWAP1 POP DUP1 PUSH1 0x0 ADD SLOAD SWAP1 DUP1 PUSH1 0x1 ADD DUP1 SLOAD PUSH2 0xB3 SWAP1 PUSH2 0x776 JUMP JUMPDEST DUP1 PUSH1 0x1F ADD PUSH1 0x20 DUP1 SWAP2 DIV MUL PUSH1 0x20 ADD PUSH1 0x40 MLOAD SWAP1 DUP2 ADD PUSH1 0x40 MSTORE DUP1 SWAP3 SWAP2 SWAP1 DUP2 DUP2 MSTORE PUSH1 0x20 ADD DUP3 DUP1 SLOAD PUSH2 0xDF SWAP1 PUSH2 0x776 JUMP JUMPDEST DUP1 ISZERO PUSH2 0x12C JUMPI DUP1 PUSH1 0x1F LT PUSH2 0x101 JUMPI PUSH2 0x100 DUP1 DUP4 SLOAD DIV MUL DUP4 MSTORE SWAP2 PUSH1 0x20 ADD SWAP2 PUSH2 0x12C JUMP JUMPDEST DUP3 ADD SWAP2 SWAP1 PUSH1 0x0 MSTORE PUSH1 0x20 PUSH1 0x0 KECCAK256 SWAP1 JUMPDEST DUP2 SLOAD DUP2 MSTORE SWAP1 PUSH1 0x1 ADD SWAP1 PUSH1 0x20 ADD DUP1 DUP4 GT PUSH2 0x10F JUMPI DUP3 SWAP1 SUB PUSH1 0x1F AND DUP3 ADD SWAP2 JUMPDEST POP POP POP POP POP SWAP1 DUP1 PUSH1 0x2 ADD DUP1 SLOAD PUSH2 0x141 SWAP1 PUSH2 0x776 JUMP JUMPDEST DUP1 PUSH1 0x1F ADD PUSH1 0x20 DUP1 SWAP2 DIV MUL PUSH1 0x20 ADD PUSH1 0x40 MLOAD SWAP1 DUP2 ADD PUSH1 0x40 MSTORE DUP1 SWAP3 SWAP2 SWAP1 DUP2 DUP2 MSTORE PUSH1 0x20 ADD DUP3 DUP1 SLOAD PUSH2 0x16D SWAP1 PUSH2 0x776 JUMP JUMPDEST DUP1 ISZERO PUSH2 0x1BA JUMPI DUP1 PUSH1 0x1F LT PUSH2 0x18F JUMPI PUSH2 0x100 DUP1 DUP4 SLOAD DIV MUL DUP4 MSTORE SWAP2 PUSH1 0x20 ADD SWAP2 PUSH2 0x1BA JUMP JUMPDEST DUP3 ADD SWAP2 SWAP1 PUSH1 0x0 MSTORE PUSH1 0x20 PUSH1 0x0 KECCAK256 SWAP1 JUMPDEST DUP2 SLOAD DUP2 MSTORE SWAP1 PUSH1 0x1 ADD SWAP1 PUSH1 0x20 ADD DUP1 DUP4 GT PUSH2 0x19D JUMPI DUP3 SWAP1 SUB PUSH1 0x1F AND DUP3 ADD SWAP2 JUMPDEST POP POP POP POP POP SWAP1 DUP1 PUSH1 0x3 ADD DUP1 SLOAD PUSH2 0x1CF SWAP1 PUSH2 0x776 JUMP JUMPDEST DUP1 PUSH1 0x1F ADD PUSH1 0x20 DUP1 SWAP2 DIV MUL PUSH1 0x20 ADD PUSH1 0x40 MLOAD SWAP1 DUP2 ADD PUSH1 0x40 MSTORE DUP1 SWAP3 SWAP2 SWAP1 DUP2 DUP2 MSTORE PUSH1 0x20 ADD DUP3 DUP1 SLOAD PUSH2 0x1FB SWAP1 PUSH2 0x776 JUMP JUMPDEST DUP1 ISZERO PUSH2 0x248 JUMPI DUP1 PUSH1 0x1F LT PUSH2 0x21D JUMPI PUSH2 0x100 DUP1 DUP4 SLOAD DIV MUL DUP4 MSTORE SWAP2 PUSH1 0x20 ADD SWAP2 PUSH2 0x248 JUMP JUMPDEST DUP3 ADD SWAP2 SWAP1 PUSH1 0x0 MSTORE PUSH1 0x20 PUSH1 0x0 KECCAK256 SWAP1 JUMPDEST DUP2 SLOAD DUP2 MSTORE SWAP1 PUSH1 0x1 ADD SWAP1 PUSH1 0x20 ADD DUP1 DUP4 GT PUSH2 0x22B JUMPI DUP3 SWAP1 SUB PUSH1 0x1F AND DUP3 ADD SWAP2 JUMPDEST POP POP POP POP POP SWAP1 POP DUP5 JUMP JUMPDEST PUSH1 0x9 DUP4 MLOAD GT PUSH2 0x296 JUMPI PUSH1 0x40 MLOAD PUSH32 0x8C379A000000000000000000000000000000000000000000000000000000000 DUP2 MSTORE PUSH1 0x4 ADD PUSH2 0x28D SWAP1 PUSH2 0x63E JUMP JUMPDEST PUSH1 0x40 MLOAD DUP1 SWAP2 SUB SWAP1 REVERT JUMPDEST PUSH1 0x9 DUP3 MLOAD GT PUSH2 0x2DA JUMPI PUSH1 0x40 MLOAD PUSH32 0x8C379A000000000000000000000000000000000000000000000000000000000 DUP2 MSTORE PUSH1 0x4 ADD PUSH2 0x2D1 SWAP1 PUSH2 0x61E JUMP JUMPDEST PUSH1 0x40 MLOAD DUP1 SWAP2 SUB SWAP1 REVERT JUMPDEST PUSH1 0x60 PUSH1 0x40 MLOAD DUP1 PUSH1 0x80 ADD PUSH1 0x40 MSTORE DUP1 PUSH1 0x0 SLOAD DUP2 MSTORE PUSH1 0x20 ADD DUP6 DUP2 MSTORE PUSH1 0x20 ADD DUP5 DUP2 MSTORE PUSH1 0x20 ADD DUP4 DUP2 MSTORE POP PUSH1 0x1 PUSH1 0x0 DUP1 SLOAD DUP2 MSTORE PUSH1 0x20 ADD SWAP1 DUP2 MSTORE PUSH1 0x20 ADD PUSH1 0x0 KECCAK256 PUSH1 0x0 DUP3 ADD MLOAD DUP2 PUSH1 0x0 ADD SSTORE PUSH1 0x20 DUP3 ADD MLOAD DUP2 PUSH1 0x1 ADD SWAP1 DUP1 MLOAD SWAP1 PUSH1 0x20 ADD SWAP1 PUSH2 0x339 SWAP3 SWAP2 SWAP1 PUSH2 0x394 JUMP JUMPDEST POP PUSH1 0x40 DUP3 ADD MLOAD DUP2 PUSH1 0x2 ADD SWAP1 DUP1 MLOAD SWAP1 PUSH1 0x20 ADD SWAP1 PUSH2 0x356 SWAP3 SWAP2 SWAP1 PUSH2 0x394 JUMP JUMPDEST POP PUSH1 0x60 DUP3 ADD MLOAD DUP2 PUSH1 0x3 ADD SWAP1 DUP1 MLOAD SWAP1 PUSH1 0x20 ADD SWAP1 PUSH2 0x373 SWAP3 SWAP2 SWAP1 PUSH2 0x394 JUMP JUMPDEST POP SWAP1 POP POP PUSH1 0x0 DUP1 DUP2 SLOAD DUP1 SWAP3 SWAP2 SWAP1 PUSH2 0x389 SWAP1 PUSH2 0x7D9 JUMP JUMPDEST SWAP2 SWAP1 POP SSTORE POP POP POP POP POP JUMP JUMPDEST DUP3 DUP1 SLOAD PUSH2 0x3A0 SWAP1 PUSH2 0x776 JUMP JUMPDEST SWAP1 PUSH1 0x0 MSTORE PUSH1 0x20 PUSH1 0x0 KECCAK256 SWAP1 PUSH1 0x1F ADD PUSH1 0x20 SWAP1 DIV DUP2 ADD SWAP3 DUP3 PUSH2 0x3C2 JUMPI PUSH1 0x0 DUP6 SSTORE PUSH2 0x409 JUMP JUMPDEST DUP3 PUSH1 0x1F LT PUSH2 0x3DB JUMPI DUP1 MLOAD PUSH1 0xFF NOT AND DUP4 DUP1 ADD OR DUP6 SSTORE PUSH2 0x409 JUMP JUMPDEST DUP3 DUP1 ADD PUSH1 0x1 ADD DUP6 SSTORE DUP3 ISZERO PUSH2 0x409 JUMPI SWAP2 DUP3 ADD JUMPDEST DUP3 DUP2 GT ISZERO PUSH2 0x408 JUMPI DUP3 MLOAD DUP3 SSTORE SWAP2 PUSH1 0x20 ADD SWAP2 SWAP1 PUSH1 0x1 ADD SWAP1 PUSH2 0x3ED JUMP JUMPDEST JUMPDEST POP SWAP1 POP PUSH2 0x416 SWAP2 SWAP1 PUSH2 0x41A JUMP JUMPDEST POP SWAP1 JUMP JUMPDEST JUMPDEST DUP1 DUP3 GT ISZERO PUSH2 0x433 JUMPI PUSH1 0x0 DUP2 PUSH1 0x0 SWAP1 SSTORE POP PUSH1 0x1 ADD PUSH2 0x41B JUMP JUMPDEST POP SWAP1 JUMP JUMPDEST PUSH1 0x0 PUSH2 0x44A PUSH2 0x445 DUP5 PUSH2 0x6DD JUMP JUMPDEST PUSH2 0x6B8 JUMP JUMPDEST SWAP1 POP DUP3 DUP2 MSTORE PUSH1 0x20 DUP2 ADD DUP5 DUP5 DUP5 ADD GT ISZERO PUSH2 0x466 JUMPI PUSH2 0x465 PUSH2 0x8B4 JUMP JUMPDEST JUMPDEST PUSH2 0x471 DUP5 DUP3 DUP6 PUSH2 0x734 JUMP JUMPDEST POP SWAP4 SWAP3 POP POP POP JUMP JUMPDEST PUSH1 0x0 DUP3 PUSH1 0x1F DUP4 ADD SLT PUSH2 0x48E JUMPI PUSH2 0x48D PUSH2 0x8AF JUMP JUMPDEST JUMPDEST DUP2 CALLDATALOAD PUSH2 0x49E DUP5 DUP3 PUSH1 0x20 DUP7 ADD PUSH2 0x437 JUMP JUMPDEST SWAP2 POP POP SWAP3 SWAP2 POP POP JUMP JUMPDEST PUSH1 0x0 DUP2 CALLDATALOAD SWAP1 POP PUSH2 0x4B6 DUP2 PUSH2 0x926 JUMP JUMPDEST SWAP3 SWAP2 POP POP JUMP JUMPDEST PUSH1 0x0 DUP1 PUSH1 0x0 PUSH1 0x60 DUP5 DUP7 SUB SLT ISZERO PUSH2 0x4D5 JUMPI PUSH2 0x4D4 PUSH2 0x8BE JUMP JUMPDEST JUMPDEST PUSH1 0x0 DUP5 ADD CALLDATALOAD PUSH8 0xFFFFFFFFFFFFFFFF DUP2 GT ISZERO PUSH2 0x4F3 JUMPI PUSH2 0x4F2 PUSH2 0x8B9 JUMP JUMPDEST JUMPDEST PUSH2 0x4FF DUP7 DUP3 DUP8 ADD PUSH2 0x479 JUMP JUMPDEST SWAP4 POP POP PUSH1 0x20 DUP5 ADD CALLDATALOAD PUSH8 0xFFFFFFFFFFFFFFFF DUP2 GT ISZERO PUSH2 0x520 JUMPI PUSH2 0x51F PUSH2 0x8B9 JUMP JUMPDEST JUMPDEST PUSH2 0x52C DUP7 DUP3 DUP8 ADD PUSH2 0x479 JUMP JUMPDEST SWAP3 POP POP PUSH1 0x40 DUP5 ADD CALLDATALOAD PUSH8 0xFFFFFFFFFFFFFFFF DUP2 GT ISZERO PUSH2 0x54D JUMPI PUSH2 0x54C PUSH2 0x8B9 JUMP JUMPDEST JUMPDEST PUSH2 0x559 DUP7 DUP3 DUP8 ADD PUSH2 0x479 JUMP JUMPDEST SWAP2 POP POP SWAP3 POP SWAP3 POP SWAP3 JUMP JUMPDEST PUSH1 0x0 PUSH1 0x20 DUP3 DUP5 SUB SLT ISZERO PUSH2 0x579 JUMPI PUSH2 0x578 PUSH2 0x8BE JUMP JUMPDEST JUMPDEST PUSH1 0x0 PUSH2 0x587 DUP5 DUP3 DUP6 ADD PUSH2 0x4A7 JUMP JUMPDEST SWAP2 POP POP SWAP3 SWAP2 POP POP JUMP JUMPDEST PUSH1 0x0 PUSH2 0x59B DUP3 PUSH2 0x70E JUMP JUMPDEST PUSH2 0x5A5 DUP2 DUP6 PUSH2 0x719 JUMP JUMPDEST SWAP4 POP PUSH2 0x5B5 DUP2 DUP6 PUSH1 0x20 DUP7 ADD PUSH2 0x743 JUMP JUMPDEST PUSH2 0x5BE DUP2 PUSH2 0x8C3 JUMP JUMPDEST DUP5 ADD SWAP2 POP POP SWAP3 SWAP2 POP POP JUMP JUMPDEST PUSH1 0x0 PUSH2 0x5D6 PUSH1 0x18 DUP4 PUSH2 0x719 JUMP JUMPDEST SWAP2 POP PUSH2 0x5E1 DUP3 PUSH2 0x8D4 JUMP JUMPDEST PUSH1 0x20 DUP3 ADD SWAP1 POP SWAP2 SWAP1 POP JUMP JUMPDEST PUSH1 0x0 PUSH2 0x5F9 PUSH1 0x12 DUP4 PUSH2 0x719 JUMP JUMPDEST SWAP2 POP PUSH2 0x604 DUP3 PUSH2 0x8FD JUMP JUMPDEST PUSH1 0x20 DUP3 ADD SWAP1 POP SWAP2 SWAP1 POP JUMP JUMPDEST PUSH2 0x618 DUP2 PUSH2 0x72A JUMP JUMPDEST DUP3 MSTORE POP POP JUMP JUMPDEST PUSH1 0x0 PUSH1 0x20 DUP3 ADD SWAP1 POP DUP2 DUP2 SUB PUSH1 0x0 DUP4 ADD MSTORE PUSH2 0x637 DUP2 PUSH2 0x5C9 JUMP JUMPDEST SWAP1 POP SWAP2 SWAP1 POP JUMP JUMPDEST PUSH1 0x0 PUSH1 0x20 DUP3 ADD SWAP1 POP DUP2 DUP2 SUB PUSH1 0x0 DUP4 ADD MSTORE PUSH2 0x657 DUP2 PUSH2 0x5EC JUMP JUMPDEST SWAP1 POP SWAP2 SWAP1 POP JUMP JUMPDEST PUSH1 0x0 PUSH1 0x80 DUP3 ADD SWAP1 POP PUSH2 0x673 PUSH1 0x0 DUP4 ADD DUP8 PUSH2 0x60F JUMP JUMPDEST DUP2 DUP2 SUB PUSH1 0x20 DUP4 ADD MSTORE PUSH2 0x685 DUP2 DUP7 PUSH2 0x590 JUMP JUMPDEST SWAP1 POP DUP2 DUP2 SUB PUSH1 0x40 DUP4 ADD MSTORE PUSH2 0x699 DUP2 DUP6 PUSH2 0x590 JUMP JUMPDEST SWAP1 POP DUP2 DUP2 SUB PUSH1 0x60 DUP4 ADD MSTORE PUSH2 0x6AD DUP2 DUP5 PUSH2 0x590 JUMP JUMPDEST SWAP1 POP SWAP6 SWAP5 POP POP POP POP POP JUMP JUMPDEST PUSH1 0x0 PUSH2 0x6C2 PUSH2 0x6D3 JUMP JUMPDEST SWAP1 POP PUSH2 0x6CE DUP3 DUP3 PUSH2 0x7A8 JUMP JUMPDEST SWAP2 SWAP1 POP JUMP JUMPDEST PUSH1 0x0 PUSH1 0x40 MLOAD SWAP1 POP SWAP1 JUMP JUMPDEST PUSH1 0x0 PUSH8 0xFFFFFFFFFFFFFFFF DUP3 GT ISZERO PUSH2 0x6F8 JUMPI PUSH2 0x6F7 PUSH2 0x880 JUMP JUMPDEST JUMPDEST PUSH2 0x701 DUP3 PUSH2 0x8C3 JUMP JUMPDEST SWAP1 POP PUSH1 0x20 DUP2 ADD SWAP1 POP SWAP2 SWAP1 POP JUMP JUMPDEST PUSH1 0x0 DUP2 MLOAD SWAP1 POP SWAP2 SWAP1 POP JUMP JUMPDEST PUSH1 0x0 DUP3 DUP3 MSTORE PUSH1 0x20 DUP3 ADD SWAP1 POP SWAP3 SWAP2 POP POP JUMP JUMPDEST PUSH1 0x0 DUP2 SWAP1 POP SWAP2 SWAP1 POP JUMP JUMPDEST DUP3 DUP2 DUP4 CALLDATACOPY PUSH1 0x0 DUP4 DUP4 ADD MSTORE POP POP POP JUMP JUMPDEST PUSH1 0x0 JUMPDEST DUP4 DUP2 LT ISZERO PUSH2 0x761 JUMPI DUP1 DUP3 ADD MLOAD DUP2 DUP5 ADD MSTORE PUSH1 0x20 DUP2 ADD SWAP1 POP PUSH2 0x746 JUMP JUMPDEST DUP4 DUP2 GT ISZERO PUSH2 0x770 JUMPI PUSH1 0x0 DUP5 DUP5 ADD MSTORE JUMPDEST POP POP POP POP JUMP JUMPDEST PUSH1 0x0 PUSH1 0x2 DUP3 DIV SWAP1 POP PUSH1 0x1 DUP3 AND DUP1 PUSH2 0x78E JUMPI PUSH1 0x7F DUP3 AND SWAP2 POP JUMPDEST PUSH1 0x20 DUP3 LT DUP2 EQ ISZERO PUSH2 0x7A2 JUMPI PUSH2 0x7A1 PUSH2 0x851 JUMP JUMPDEST JUMPDEST POP SWAP2 SWAP1 POP JUMP JUMPDEST PUSH2 0x7B1 DUP3 PUSH2 0x8C3 JUMP JUMPDEST DUP2 ADD DUP2 DUP2 LT PUSH8 0xFFFFFFFFFFFFFFFF DUP3 GT OR ISZERO PUSH2 0x7D0 JUMPI PUSH2 0x7CF PUSH2 0x880 JUMP JUMPDEST JUMPDEST DUP1 PUSH1 0x40 MSTORE POP POP POP JUMP JUMPDEST PUSH1 0x0 PUSH2 0x7E4 DUP3 PUSH2 0x72A JUMP JUMPDEST SWAP2 POP PUSH32 0xFFFFFFFFFFFFFFFFFFFFFFFFFFFFFFFFFFFFFFFFFFFFFFFFFFFFFFFFFFFFFFFF DUP3 EQ ISZERO PUSH2 0x817 JUMPI PUSH2 0x816 PUSH2 0x822 JUMP JUMPDEST JUMPDEST PUSH1 0x1 DUP3 ADD SWAP1 POP SWAP2 SWAP1 POP JUMP JUMPDEST PUSH32 0x4E487B7100000000000000000000000000000000000000000000000000000000 PUSH1 0x0 MSTORE PUSH1 0x11 PUSH1 0x4 MSTORE PUSH1 0x24 PUSH1 0x0 REVERT JUMPDEST PUSH32 0x4E487B7100000000000000000000000000000000000000000000000000000000 PUSH1 0x0 MSTORE PUSH1 0x22 PUSH1 0x4 MSTORE PUSH1 0x24 PUSH1 0x0 REVERT JUMPDEST PUSH32 0x4E487B7100000000000000000000000000000000000000000000000000000000 PUSH1 0x0 MSTORE PUSH1 0x41 PUSH1 0x4 MSTORE PUSH1 0x24 PUSH1 0x0 REVERT JUMPDEST PUSH1 0x0 DUP1 REVERT JUMPDEST PUSH1 0x0 DUP1 REVERT JUMPDEST PUSH1 0x0 DUP1 REVERT JUMPDEST PUSH1 0x0 DUP1 REVERT JUMPDEST PUSH1 0x0 PUSH1 0x1F NOT PUSH1 0x1F DUP4 ADD AND SWAP1 POP SWAP2 SWAP1 POP JUMP JUMPDEST PUSH32 0x4465736372697074696F6E20697320746F6F2073686F72740000000000000000 PUSH1 0x0 DUP3 ADD MSTORE POP JUMP JUMPDEST PUSH32 0x5469746C6520697320746F6F2073686F72740000000000000000000000000000 PUSH1 0x0 DUP3 ADD MSTORE POP JUMP JUMPDEST PUSH2 0x92F DUP2 PUSH2 0x72A JUMP JUMPDEST DUP2 EQ PUSH2 0x93A JUMPI PUSH1 0x0 DUP1 REVERT JUMPDEST POP JUMP INVALID LOG2 PUSH5 0x6970667358 0x22 SLT KECCAK256 PUSH13 0xBE26947D38683300E2A9E50F93 0xE9 SGT RETURN 0xC6 0xC1 0xCB 0xB7 0xF9 0xCC 0xE1 0xCF 0xF6 0xC7 PUSH5 0x96CA632264 PUSH20 0x6F6C634300080700330000000000000000000000 "
				},
				"gasEstimates": {
					"creation": {
						"codeDepositCost": "483800",
						"executionCost": "22624",
						"totalCost": "506424"
					},
					"external": {
						"Review_mapping(uint256)": "infinite",
						"create(string,string,string)": "infinite"
					}
				},
				"methodIdentifiers": {
					"Review_mapping(uint256)": "04d8e033",
					"create(string,string,string)": "5d28560a"
				}
			},
			"userdoc": {
				"kind": "user",
				"methods": {},
				"version": 1
			}
		}
	}
}