{
	"blockmonkey/ReviewDapp/Test.sol": {
		"Test": {
			"abi": [
				{
					"inputs": [
						{
							"internalType": "uint256",
							"name": "",
							"type": "uint256"
						}
					],
					"name": "Review_mapping",
					"outputs": [
						{
							"internalType": "uint256",
							"name": "id",
							"type": "uint256"
						},
						{
							"internalType": "string",
							"name": "title",
							"type": "string"
						},
						{
							"internalType": "string",
							"name": "description",
							"type": "string"
						},
						{
							"internalType": "string",
							"name": "writer",
							"type": "string"
						}
					],
					"stateMutability": "view",
					"type": "function"
				},
				{
					"inputs": [
						{
							"internalType": "string",
							"name": "_title",
							"type": "string"
						},
						{
							"internalType": "string",
							"name": "_des",
							"type": "string"
						},
						{
							"internalType": "string",
							"name": "_writer",
							"type": "string"
						}
					],
					"name": "create",
					"outputs": [],
					"stateMutability": "nonpayable",
					"type": "function"
				},
				{
					"inputs": [
						{
							"internalType": "uint256",
							"name": "_idx",
							"type": "uint256"
						}
					],
					"name": "get",
					"outputs": [
						{
							"internalType": "uint256",
							"name": "",
							"type": "uint256"
						},
						{
							"internalType": "string",
							"name": "",
							"type": "string"
						},
						{
							"internalType": "string",
							"name": "",
							"type": "string"
						},
						{
							"internalType": "string",
							"name": "",
							"type": "string"
						}
					],
					"stateMutability": "view",
					"type": "function"
				},
				{
					"inputs": [],
					"name": "getIdx",
					"outputs": [
						{
							"internalType": "uint256",
							"name": "",
							"type": "uint256"
						}
					],
					"stateMutability": "view",
					"type": "function"
				}
			],
			"devdoc": {
				"kind": "dev",
				"methods": {},
				"version": 1
			},
			"evm": {
				"assembly": "    /* \"blockmonkey/ReviewDapp/Test.sol\":58:803  contract Test {... */\n  mstore(0x40, 0x80)\n    /* \"blockmonkey/ReviewDapp/Test.sol\":214:215  1 */\n  0x01\n    /* \"blockmonkey/ReviewDapp/Test.sol\":195:215  uint TotalSupply = 1 */\n  0x00\n  sstore\n    /* \"blockmonkey/ReviewDapp/Test.sol\":58:803  contract Test {... */\n  callvalue\n  dup1\n  iszero\n  tag_1\n  jumpi\n  0x00\n  dup1\n  revert\ntag_1:\n  pop\n  dataSize(sub_0)\n  dup1\n  dataOffset(sub_0)\n  0x00\n  codecopy\n  0x00\n  return\nstop\n\nsub_0: assembly {\n        /* \"blockmonkey/ReviewDapp/Test.sol\":58:803  contract Test {... */\n      mstore(0x40, 0x80)\n      callvalue\n      dup1\n      iszero\n      tag_1\n      jumpi\n      0x00\n      dup1\n      revert\n    tag_1:\n      pop\n      jumpi(tag_2, lt(calldatasize, 0x04))\n      shr(0xe0, calldataload(0x00))\n      dup1\n      0x04d8e033\n      eq\n      tag_3\n      jumpi\n      dup1\n      0x5d28560a\n      eq\n      tag_4\n      jumpi\n      dup1\n      0x6a8aac7a\n      eq\n      tag_5\n      jumpi\n      dup1\n      0x9507d39a\n      eq\n      tag_6\n      jumpi\n    tag_2:\n      0x00\n      dup1\n      revert\n        /* \"blockmonkey/ReviewDapp/Test.sol\":221:267  mapping (uint => Review) public Review_mapping */\n    tag_3:\n      tag_7\n      0x04\n      dup1\n      calldatasize\n      sub\n      dup2\n      add\n      swap1\n      tag_8\n      swap2\n      swap1\n      tag_9\n      jump\t// in\n    tag_8:\n      tag_10\n      jump\t// in\n    tag_7:\n      mload(0x40)\n      tag_11\n      swap5\n      swap4\n      swap3\n      swap2\n      swap1\n      tag_12\n      jump\t// in\n    tag_11:\n      mload(0x40)\n      dup1\n      swap2\n      sub\n      swap1\n      return\n        /* \"blockmonkey/ReviewDapp/Test.sol\":274:475  function create(string memory _title, string memory _des, string memory _writer) public {... */\n    tag_4:\n      tag_13\n      0x04\n      dup1\n      calldatasize\n      sub\n      dup2\n      add\n      swap1\n      tag_14\n      swap2\n      swap1\n      tag_15\n      jump\t// in\n    tag_14:\n      tag_16\n      jump\t// in\n    tag_13:\n      stop\n        /* \"blockmonkey/ReviewDapp/Test.sol\":721:801  function getIdx() public view returns(uint){... */\n    tag_5:\n      tag_17\n      tag_18\n      jump\t// in\n    tag_17:\n      mload(0x40)\n      tag_19\n      swap2\n      swap1\n      tag_20\n      jump\t// in\n    tag_19:\n      mload(0x40)\n      dup1\n      swap2\n      sub\n      swap1\n      return\n        /* \"blockmonkey/ReviewDapp/Test.sol\":481:715  function get(uint _idx) public view returns(uint, string memory, string memory, string memory){... */\n    tag_6:\n      tag_21\n      0x04\n      dup1\n      calldatasize\n      sub\n      dup2\n      add\n      swap1\n      tag_22\n      swap2\n      swap1\n      tag_9\n      jump\t// in\n    tag_22:\n      tag_23\n      jump\t// in\n    tag_21:\n      mload(0x40)\n      tag_24\n      swap5\n      swap4\n      swap3\n      swap2\n      swap1\n      tag_12\n      jump\t// in\n    tag_24:\n      mload(0x40)\n      dup1\n      swap2\n      sub\n      swap1\n      return\n        /* \"blockmonkey/ReviewDapp/Test.sol\":221:267  mapping (uint => Review) public Review_mapping */\n    tag_10:\n      mstore(0x20, 0x01)\n      dup1\n      0x00\n      mstore\n      keccak256(0x00, 0x40)\n      0x00\n      swap2\n      pop\n      swap1\n      pop\n      dup1\n      0x00\n      add\n      sload\n      swap1\n      dup1\n      0x01\n      add\n      dup1\n      sload\n      tag_25\n      swap1\n      tag_26\n      jump\t// in\n    tag_25:\n      dup1\n      0x1f\n      add\n      0x20\n      dup1\n      swap2\n      div\n      mul\n      0x20\n      add\n      mload(0x40)\n      swap1\n      dup2\n      add\n      0x40\n      mstore\n      dup1\n      swap3\n      swap2\n      swap1\n      dup2\n      dup2\n      mstore\n      0x20\n      add\n      dup3\n      dup1\n      sload\n      tag_27\n      swap1\n      tag_26\n      jump\t// in\n    tag_27:\n      dup1\n      iszero\n      tag_28\n      jumpi\n      dup1\n      0x1f\n      lt\n      tag_29\n      jumpi\n      0x0100\n      dup1\n      dup4\n      sload\n      div\n      mul\n      dup4\n      mstore\n      swap2\n      0x20\n      add\n      swap2\n      jump(tag_28)\n    tag_29:\n      dup3\n      add\n      swap2\n      swap1\n      0x00\n      mstore\n      keccak256(0x00, 0x20)\n      swap1\n    tag_30:\n      dup2\n      sload\n      dup2\n      mstore\n      swap1\n      0x01\n      add\n      swap1\n      0x20\n      add\n      dup1\n      dup4\n      gt\n      tag_30\n      jumpi\n      dup3\n      swap1\n      sub\n      0x1f\n      and\n      dup3\n      add\n      swap2\n    tag_28:\n      pop\n      pop\n      pop\n      pop\n      pop\n      swap1\n      dup1\n      0x02\n      add\n      dup1\n      sload\n      tag_31\n      swap1\n      tag_26\n      jump\t// in\n    tag_31:\n      dup1\n      0x1f\n      add\n      0x20\n      dup1\n      swap2\n      div\n      mul\n      0x20\n      add\n      mload(0x40)\n      swap1\n      dup2\n      add\n      0x40\n      mstore\n      dup1\n      swap3\n      swap2\n      swap1\n      dup2\n      dup2\n      mstore\n      0x20\n      add\n      dup3\n      dup1\n      sload\n      tag_32\n      swap1\n      tag_26\n      jump\t// in\n    tag_32:\n      dup1\n      iszero\n      tag_33\n      jumpi\n      dup1\n      0x1f\n      lt\n      tag_34\n      jumpi\n      0x0100\n      dup1\n      dup4\n      sload\n      div\n      mul\n      dup4\n      mstore\n      swap2\n      0x20\n      add\n      swap2\n      jump(tag_33)\n    tag_34:\n      dup3\n      add\n      swap2\n      swap1\n      0x00\n      mstore\n      keccak256(0x00, 0x20)\n      swap1\n    tag_35:\n      dup2\n      sload\n      dup2\n      mstore\n      swap1\n      0x01\n      add\n      swap1\n      0x20\n      add\n      dup1\n      dup4\n      gt\n      tag_35\n      jumpi\n      dup3\n      swap1\n      sub\n      0x1f\n      and\n      dup3\n      add\n      swap2\n    tag_33:\n      pop\n      pop\n      pop\n      pop\n      pop\n      swap1\n      dup1\n      0x03\n      add\n      dup1\n      sload\n      tag_36\n      swap1\n      tag_26\n      jump\t// in\n    tag_36:\n      dup1\n      0x1f\n      add\n      0x20\n      dup1\n      swap2\n      div\n      mul\n      0x20\n      add\n      mload(0x40)\n      swap1\n      dup2\n      add\n      0x40\n      mstore\n      dup1\n      swap3\n      swap2\n      swap1\n      dup2\n      dup2\n      mstore\n      0x20\n      add\n      dup3\n      dup1\n      sload\n      tag_37\n      swap1\n      tag_26\n      jump\t// in\n    tag_37:\n      dup1\n      iszero\n      tag_38\n      jumpi\n      dup1\n      0x1f\n      lt\n      tag_39\n      jumpi\n      0x0100\n      dup1\n      dup4\n      sload\n      div\n      mul\n      dup4\n      mstore\n      swap2\n      0x20\n      add\n      swap2\n      jump(tag_38)\n    tag_39:\n      dup3\n      add\n      swap2\n      swap1\n      0x00\n      mstore\n      keccak256(0x00, 0x20)\n      swap1\n    tag_40:\n      dup2\n      sload\n      dup2\n      mstore\n      swap1\n      0x01\n      add\n      swap1\n      0x20\n      add\n      dup1\n      dup4\n      gt\n      tag_40\n      jumpi\n      dup3\n      swap1\n      sub\n      0x1f\n      and\n      dup3\n      add\n      swap2\n    tag_38:\n      pop\n      pop\n      pop\n      pop\n      pop\n      swap1\n      pop\n      dup5\n      jump\t// out\n        /* \"blockmonkey/ReviewDapp/Test.sol\":274:475  function create(string memory _title, string memory _des, string memory _writer) public {... */\n    tag_16:\n        /* \"blockmonkey/ReviewDapp/Test.sol\":402:444  Review(TotalSupply, _title, _des, _writer) */\n      mload(0x40)\n      dup1\n      0x80\n      add\n      0x40\n      mstore\n      dup1\n        /* \"blockmonkey/ReviewDapp/Test.sol\":409:420  TotalSupply */\n      sload(0x00)\n        /* \"blockmonkey/ReviewDapp/Test.sol\":402:444  Review(TotalSupply, _title, _des, _writer) */\n      dup2\n      mstore\n      0x20\n      add\n        /* \"blockmonkey/ReviewDapp/Test.sol\":422:428  _title */\n      dup5\n        /* \"blockmonkey/ReviewDapp/Test.sol\":402:444  Review(TotalSupply, _title, _des, _writer) */\n      dup2\n      mstore\n      0x20\n      add\n        /* \"blockmonkey/ReviewDapp/Test.sol\":430:434  _des */\n      dup4\n        /* \"blockmonkey/ReviewDapp/Test.sol\":402:444  Review(TotalSupply, _title, _des, _writer) */\n      dup2\n      mstore\n      0x20\n      add\n        /* \"blockmonkey/ReviewDapp/Test.sol\":436:443  _writer */\n      dup3\n        /* \"blockmonkey/ReviewDapp/Test.sol\":402:444  Review(TotalSupply, _title, _des, _writer) */\n      dup2\n      mstore\n      pop\n        /* \"blockmonkey/ReviewDapp/Test.sol\":372:386  Review_mapping */\n      0x01\n        /* \"blockmonkey/ReviewDapp/Test.sol\":372:399  Review_mapping[TotalSupply] */\n      0x00\n        /* \"blockmonkey/ReviewDapp/Test.sol\":387:398  TotalSupply */\n      dup1\n      sload\n        /* \"blockmonkey/ReviewDapp/Test.sol\":372:399  Review_mapping[TotalSupply] */\n      dup2\n      mstore\n      0x20\n      add\n      swap1\n      dup2\n      mstore\n      0x20\n      add\n      0x00\n      keccak256\n        /* \"blockmonkey/ReviewDapp/Test.sol\":372:444  Review_mapping[TotalSupply] = Review(TotalSupply, _title, _des, _writer) */\n      0x00\n      dup3\n      add\n      mload\n      dup2\n      0x00\n      add\n      sstore\n      0x20\n      dup3\n      add\n      mload\n      dup2\n      0x01\n      add\n      swap1\n      dup1\n      mload\n      swap1\n      0x20\n      add\n      swap1\n      tag_42\n      swap3\n      swap2\n      swap1\n      tag_43\n      jump\t// in\n    tag_42:\n      pop\n      0x40\n      dup3\n      add\n      mload\n      dup2\n      0x02\n      add\n      swap1\n      dup1\n      mload\n      swap1\n      0x20\n      add\n      swap1\n      tag_44\n      swap3\n      swap2\n      swap1\n      tag_43\n      jump\t// in\n    tag_44:\n      pop\n      0x60\n      dup3\n      add\n      mload\n      dup2\n      0x03\n      add\n      swap1\n      dup1\n      mload\n      swap1\n      0x20\n      add\n      swap1\n      tag_45\n      swap3\n      swap2\n      swap1\n      tag_43\n      jump\t// in\n    tag_45:\n      pop\n      swap1\n      pop\n      pop\n        /* \"blockmonkey/ReviewDapp/Test.sol\":455:466  TotalSupply */\n      0x00\n      dup1\n        /* \"blockmonkey/ReviewDapp/Test.sol\":455:468  TotalSupply++ */\n      dup2\n      sload\n      dup1\n      swap3\n      swap2\n      swap1\n      tag_46\n      swap1\n      tag_47\n      jump\t// in\n    tag_46:\n      swap2\n      swap1\n      pop\n      sstore\n      pop\n        /* \"blockmonkey/ReviewDapp/Test.sol\":274:475  function create(string memory _title, string memory _des, string memory _writer) public {... */\n      pop\n      pop\n      pop\n      jump\t// out\n        /* \"blockmonkey/ReviewDapp/Test.sol\":721:801  function getIdx() public view returns(uint){... */\n    tag_18:\n        /* \"blockmonkey/ReviewDapp/Test.sol\":759:763  uint */\n      0x00\n        /* \"blockmonkey/ReviewDapp/Test.sol\":793:794  1 */\n      0x01\n        /* \"blockmonkey/ReviewDapp/Test.sol\":781:792  TotalSupply */\n      sload(0x00)\n        /* \"blockmonkey/ReviewDapp/Test.sol\":781:794  TotalSupply-1 */\n      tag_49\n      swap2\n      swap1\n      tag_50\n      jump\t// in\n    tag_49:\n        /* \"blockmonkey/ReviewDapp/Test.sol\":774:794  return TotalSupply-1 */\n      swap1\n      pop\n        /* \"blockmonkey/ReviewDapp/Test.sol\":721:801  function getIdx() public view returns(uint){... */\n      swap1\n      jump\t// out\n        /* \"blockmonkey/ReviewDapp/Test.sol\":481:715  function get(uint _idx) public view returns(uint, string memory, string memory, string memory){... */\n    tag_23:\n        /* \"blockmonkey/ReviewDapp/Test.sol\":525:529  uint */\n      0x00\n        /* \"blockmonkey/ReviewDapp/Test.sol\":531:544  string memory */\n      0x60\n        /* \"blockmonkey/ReviewDapp/Test.sol\":546:559  string memory */\n      dup1\n        /* \"blockmonkey/ReviewDapp/Test.sol\":561:574  string memory */\n      0x60\n        /* \"blockmonkey/ReviewDapp/Test.sol\":593:607  Review_mapping */\n      0x01\n        /* \"blockmonkey/ReviewDapp/Test.sol\":593:613  Review_mapping[_idx] */\n      0x00\n        /* \"blockmonkey/ReviewDapp/Test.sol\":608:612  _idx */\n      dup7\n        /* \"blockmonkey/ReviewDapp/Test.sol\":593:613  Review_mapping[_idx] */\n      dup2\n      mstore\n      0x20\n      add\n      swap1\n      dup2\n      mstore\n      0x20\n      add\n      0x00\n      keccak256\n        /* \"blockmonkey/ReviewDapp/Test.sol\":593:616  Review_mapping[_idx].id */\n      0x00\n      add\n      sload\n        /* \"blockmonkey/ReviewDapp/Test.sol\":618:632  Review_mapping */\n      0x01\n        /* \"blockmonkey/ReviewDapp/Test.sol\":618:638  Review_mapping[_idx] */\n      0x00\n        /* \"blockmonkey/ReviewDapp/Test.sol\":633:637  _idx */\n      dup8\n        /* \"blockmonkey/ReviewDapp/Test.sol\":618:638  Review_mapping[_idx] */\n      dup2\n      mstore\n      0x20\n      add\n      swap1\n      dup2\n      mstore\n      0x20\n      add\n      0x00\n      keccak256\n        /* \"blockmonkey/ReviewDapp/Test.sol\":618:644  Review_mapping[_idx].title */\n      0x01\n      add\n        /* \"blockmonkey/ReviewDapp/Test.sol\":646:660  Review_mapping */\n      0x01\n        /* \"blockmonkey/ReviewDapp/Test.sol\":646:666  Review_mapping[_idx] */\n      0x00\n        /* \"blockmonkey/ReviewDapp/Test.sol\":661:665  _idx */\n      dup9\n        /* \"blockmonkey/ReviewDapp/Test.sol\":646:666  Review_mapping[_idx] */\n      dup2\n      mstore\n      0x20\n      add\n      swap1\n      dup2\n      mstore\n      0x20\n      add\n      0x00\n      keccak256\n        /* \"blockmonkey/ReviewDapp/Test.sol\":646:678  Review_mapping[_idx].description */\n      0x02\n      add\n        /* \"blockmonkey/ReviewDapp/Test.sol\":680:694  Review_mapping */\n      0x01\n        /* \"blockmonkey/ReviewDapp/Test.sol\":680:700  Review_mapping[_idx] */\n      0x00\n        /* \"blockmonkey/ReviewDapp/Test.sol\":695:699  _idx */\n      dup10\n        /* \"blockmonkey/ReviewDapp/Test.sol\":680:700  Review_mapping[_idx] */\n      dup2\n      mstore\n      0x20\n      add\n      swap1\n      dup2\n      mstore\n      0x20\n      add\n      0x00\n      keccak256\n        /* \"blockmonkey/ReviewDapp/Test.sol\":680:707  Review_mapping[_idx].writer */\n      0x03\n      add\n        /* \"blockmonkey/ReviewDapp/Test.sol\":586:708  return(Review_mapping[_idx].id, Review_mapping[_idx].title, Review_mapping[_idx].description, Review_mapping[_idx].writer) */\n      dup3\n      dup1\n      sload\n      tag_52\n      swap1\n      tag_26\n      jump\t// in\n    tag_52:\n      dup1\n      0x1f\n      add\n      0x20\n      dup1\n      swap2\n      div\n      mul\n      0x20\n      add\n      mload(0x40)\n      swap1\n      dup2\n      add\n      0x40\n      mstore\n      dup1\n      swap3\n      swap2\n      swap1\n      dup2\n      dup2\n      mstore\n      0x20\n      add\n      dup3\n      dup1\n      sload\n      tag_53\n      swap1\n      tag_26\n      jump\t// in\n    tag_53:\n      dup1\n      iszero\n      tag_54\n      jumpi\n      dup1\n      0x1f\n      lt\n      tag_55\n      jumpi\n      0x0100\n      dup1\n      dup4\n      sload\n      div\n      mul\n      dup4\n      mstore\n      swap2\n      0x20\n      add\n      swap2\n      jump(tag_54)\n    tag_55:\n      dup3\n      add\n      swap2\n      swap1\n      0x00\n      mstore\n      keccak256(0x00, 0x20)\n      swap1\n    tag_56:\n      dup2\n      sload\n      dup2\n      mstore\n      swap1\n      0x01\n      add\n      swap1\n      0x20\n      add\n      dup1\n      dup4\n      gt\n      tag_56\n      jumpi\n      dup3\n      swap1\n      sub\n      0x1f\n      and\n      dup3\n      add\n      swap2\n    tag_54:\n      pop\n      pop\n      pop\n      pop\n      pop\n      swap3\n      pop\n      dup2\n      dup1\n      sload\n      tag_57\n      swap1\n      tag_26\n      jump\t// in\n    tag_57:\n      dup1\n      0x1f\n      add\n      0x20\n      dup1\n      swap2\n      div\n      mul\n      0x20\n      add\n      mload(0x40)\n      swap1\n      dup2\n      add\n      0x40\n      mstore\n      dup1\n      swap3\n      swap2\n      swap1\n      dup2\n      dup2\n      mstore\n      0x20\n      add\n      dup3\n      dup1\n      sload\n      tag_58\n      swap1\n      tag_26\n      jump\t// in\n    tag_58:\n      dup1\n      iszero\n      tag_59\n      jumpi\n      dup1\n      0x1f\n      lt\n      tag_60\n      jumpi\n      0x0100\n      dup1\n      dup4\n      sload\n      div\n      mul\n      dup4\n      mstore\n      swap2\n      0x20\n      add\n      swap2\n      jump(tag_59)\n    tag_60:\n      dup3\n      add\n      swap2\n      swap1\n      0x00\n      mstore\n      keccak256(0x00, 0x20)\n      swap1\n    tag_61:\n      dup2\n      sload\n      dup2\n      mstore\n      swap1\n      0x01\n      add\n      swap1\n      0x20\n      add\n      dup1\n      dup4\n      gt\n      tag_61\n      jumpi\n      dup3\n      swap1\n      sub\n      0x1f\n      and\n      dup3\n      add\n      swap2\n    tag_59:\n      pop\n      pop\n      pop\n      pop\n      pop\n      swap2\n      pop\n      dup1\n      dup1\n      sload\n      tag_62\n      swap1\n      tag_26\n      jump\t// in\n    tag_62:\n      dup1\n      0x1f\n      add\n      0x20\n      dup1\n      swap2\n      div\n      mul\n      0x20\n      add\n      mload(0x40)\n      swap1\n      dup2\n      add\n      0x40\n      mstore\n      dup1\n      swap3\n      swap2\n      swap1\n      dup2\n      dup2\n      mstore\n      0x20\n      add\n      dup3\n      dup1\n      sload\n      tag_63\n      swap1\n      tag_26\n      jump\t// in\n    tag_63:\n      dup1\n      iszero\n      tag_64\n      jumpi\n      dup1\n      0x1f\n      lt\n      tag_65\n      jumpi\n      0x0100\n      dup1\n      dup4\n      sload\n      div\n      mul\n      dup4\n      mstore\n      swap2\n      0x20\n      add\n      swap2\n      jump(tag_64)\n    tag_65:\n      dup3\n      add\n      swap2\n      swap1\n      0x00\n      mstore\n      keccak256(0x00, 0x20)\n      swap1\n    tag_66:\n      dup2\n      sload\n      dup2\n      mstore\n      swap1\n      0x01\n      add\n      swap1\n      0x20\n      add\n      dup1\n      dup4\n      gt\n      tag_66\n      jumpi\n      dup3\n      swap1\n      sub\n      0x1f\n      and\n      dup3\n      add\n      swap2\n    tag_64:\n      pop\n      pop\n      pop\n      pop\n      pop\n      swap1\n      pop\n      swap4\n      pop\n      swap4\n      pop\n      swap4\n      pop\n      swap4\n      pop\n        /* \"blockmonkey/ReviewDapp/Test.sol\":481:715  function get(uint _idx) public view returns(uint, string memory, string memory, string memory){... */\n      swap2\n      swap4\n      pop\n      swap2\n      swap4\n      jump\t// out\n    tag_43:\n      dup3\n      dup1\n      sload\n      tag_67\n      swap1\n      tag_26\n      jump\t// in\n    tag_67:\n      swap1\n      0x00\n      mstore\n      keccak256(0x00, 0x20)\n      swap1\n      0x1f\n      add\n      0x20\n      swap1\n      div\n      dup2\n      add\n      swap3\n      dup3\n      tag_69\n      jumpi\n      0x00\n      dup6\n      sstore\n      jump(tag_68)\n    tag_69:\n      dup3\n      0x1f\n      lt\n      tag_70\n      jumpi\n      dup1\n      mload\n      not(0xff)\n      and\n      dup4\n      dup1\n      add\n      or\n      dup6\n      sstore\n      jump(tag_68)\n    tag_70:\n      dup3\n      dup1\n      add\n      0x01\n      add\n      dup6\n      sstore\n      dup3\n      iszero\n      tag_68\n      jumpi\n      swap2\n      dup3\n      add\n    tag_71:\n      dup3\n      dup2\n      gt\n      iszero\n      tag_72\n      jumpi\n      dup3\n      mload\n      dup3\n      sstore\n      swap2\n      0x20\n      add\n      swap2\n      swap1\n      0x01\n      add\n      swap1\n      jump(tag_71)\n    tag_72:\n    tag_68:\n      pop\n      swap1\n      pop\n      tag_73\n      swap2\n      swap1\n      tag_74\n      jump\t// in\n    tag_73:\n      pop\n      swap1\n      jump\t// out\n    tag_74:\n    tag_75:\n      dup1\n      dup3\n      gt\n      iszero\n      tag_76\n      jumpi\n      0x00\n      dup2\n      0x00\n      swap1\n      sstore\n      pop\n      0x01\n      add\n      jump(tag_75)\n    tag_76:\n      pop\n      swap1\n      jump\t// out\n        /* \"#utility.yul\":7:419   */\n    tag_78:\n        /* \"#utility.yul\":85:90   */\n      0x00\n        /* \"#utility.yul\":110:176   */\n      tag_80\n        /* \"#utility.yul\":126:175   */\n      tag_81\n        /* \"#utility.yul\":168:174   */\n      dup5\n        /* \"#utility.yul\":126:175   */\n      tag_82\n      jump\t// in\n    tag_81:\n        /* \"#utility.yul\":110:176   */\n      tag_83\n      jump\t// in\n    tag_80:\n        /* \"#utility.yul\":101:176   */\n      swap1\n      pop\n        /* \"#utility.yul\":199:205   */\n      dup3\n        /* \"#utility.yul\":192:197   */\n      dup2\n        /* \"#utility.yul\":185:206   */\n      mstore\n        /* \"#utility.yul\":237:241   */\n      0x20\n        /* \"#utility.yul\":230:235   */\n      dup2\n        /* \"#utility.yul\":226:242   */\n      add\n        /* \"#utility.yul\":275:278   */\n      dup5\n        /* \"#utility.yul\":266:272   */\n      dup5\n        /* \"#utility.yul\":261:264   */\n      dup5\n        /* \"#utility.yul\":257:273   */\n      add\n        /* \"#utility.yul\":254:279   */\n      gt\n        /* \"#utility.yul\":251:363   */\n      iszero\n      tag_84\n      jumpi\n        /* \"#utility.yul\":282:361   */\n      tag_85\n      tag_86\n      jump\t// in\n    tag_85:\n        /* \"#utility.yul\":251:363   */\n    tag_84:\n        /* \"#utility.yul\":372:413   */\n      tag_87\n        /* \"#utility.yul\":406:412   */\n      dup5\n        /* \"#utility.yul\":401:404   */\n      dup3\n        /* \"#utility.yul\":396:399   */\n      dup6\n        /* \"#utility.yul\":372:413   */\n      tag_88\n      jump\t// in\n    tag_87:\n        /* \"#utility.yul\":91:419   */\n      pop\n        /* \"#utility.yul\":7:419   */\n      swap4\n      swap3\n      pop\n      pop\n      pop\n      jump\t// out\n        /* \"#utility.yul\":439:779   */\n    tag_89:\n        /* \"#utility.yul\":495:500   */\n      0x00\n        /* \"#utility.yul\":544:547   */\n      dup3\n        /* \"#utility.yul\":537:541   */\n      0x1f\n        /* \"#utility.yul\":529:535   */\n      dup4\n        /* \"#utility.yul\":525:542   */\n      add\n        /* \"#utility.yul\":521:548   */\n      slt\n        /* \"#utility.yul\":511:633   */\n      tag_91\n      jumpi\n        /* \"#utility.yul\":552:631   */\n      tag_92\n      tag_93\n      jump\t// in\n    tag_92:\n        /* \"#utility.yul\":511:633   */\n    tag_91:\n        /* \"#utility.yul\":669:675   */\n      dup2\n        /* \"#utility.yul\":656:676   */\n      calldataload\n        /* \"#utility.yul\":694:773   */\n      tag_94\n        /* \"#utility.yul\":769:772   */\n      dup5\n        /* \"#utility.yul\":761:767   */\n      dup3\n        /* \"#utility.yul\":754:758   */\n      0x20\n        /* \"#utility.yul\":746:752   */\n      dup7\n        /* \"#utility.yul\":742:759   */\n      add\n        /* \"#utility.yul\":694:773   */\n      tag_78\n      jump\t// in\n    tag_94:\n        /* \"#utility.yul\":685:773   */\n      swap2\n      pop\n        /* \"#utility.yul\":501:779   */\n      pop\n        /* \"#utility.yul\":439:779   */\n      swap3\n      swap2\n      pop\n      pop\n      jump\t// out\n        /* \"#utility.yul\":785:924   */\n    tag_95:\n        /* \"#utility.yul\":831:836   */\n      0x00\n        /* \"#utility.yul\":869:875   */\n      dup2\n        /* \"#utility.yul\":856:876   */\n      calldataload\n        /* \"#utility.yul\":847:876   */\n      swap1\n      pop\n        /* \"#utility.yul\":885:918   */\n      tag_97\n        /* \"#utility.yul\":912:917   */\n      dup2\n        /* \"#utility.yul\":885:918   */\n      tag_98\n      jump\t// in\n    tag_97:\n        /* \"#utility.yul\":785:924   */\n      swap3\n      swap2\n      pop\n      pop\n      jump\t// out\n        /* \"#utility.yul\":930:2089   */\n    tag_15:\n        /* \"#utility.yul\":1037:1043   */\n      0x00\n        /* \"#utility.yul\":1045:1051   */\n      dup1\n        /* \"#utility.yul\":1053:1059   */\n      0x00\n        /* \"#utility.yul\":1102:1104   */\n      0x60\n        /* \"#utility.yul\":1090:1099   */\n      dup5\n        /* \"#utility.yul\":1081:1088   */\n      dup7\n        /* \"#utility.yul\":1077:1100   */\n      sub\n        /* \"#utility.yul\":1073:1105   */\n      slt\n        /* \"#utility.yul\":1070:1189   */\n      iszero\n      tag_100\n      jumpi\n        /* \"#utility.yul\":1108:1187   */\n      tag_101\n      tag_102\n      jump\t// in\n    tag_101:\n        /* \"#utility.yul\":1070:1189   */\n    tag_100:\n        /* \"#utility.yul\":1256:1257   */\n      0x00\n        /* \"#utility.yul\":1245:1254   */\n      dup5\n        /* \"#utility.yul\":1241:1258   */\n      add\n        /* \"#utility.yul\":1228:1259   */\n      calldataload\n        /* \"#utility.yul\":1286:1304   */\n      0xffffffffffffffff\n        /* \"#utility.yul\":1278:1284   */\n      dup2\n        /* \"#utility.yul\":1275:1305   */\n      gt\n        /* \"#utility.yul\":1272:1389   */\n      iszero\n      tag_103\n      jumpi\n        /* \"#utility.yul\":1308:1387   */\n      tag_104\n      tag_105\n      jump\t// in\n    tag_104:\n        /* \"#utility.yul\":1272:1389   */\n    tag_103:\n        /* \"#utility.yul\":1413:1476   */\n      tag_106\n        /* \"#utility.yul\":1468:1475   */\n      dup7\n        /* \"#utility.yul\":1459:1465   */\n      dup3\n        /* \"#utility.yul\":1448:1457   */\n      dup8\n        /* \"#utility.yul\":1444:1466   */\n      add\n        /* \"#utility.yul\":1413:1476   */\n      tag_89\n      jump\t// in\n    tag_106:\n        /* \"#utility.yul\":1403:1476   */\n      swap4\n      pop\n        /* \"#utility.yul\":1199:1486   */\n      pop\n        /* \"#utility.yul\":1553:1555   */\n      0x20\n        /* \"#utility.yul\":1542:1551   */\n      dup5\n        /* \"#utility.yul\":1538:1556   */\n      add\n        /* \"#utility.yul\":1525:1557   */\n      calldataload\n        /* \"#utility.yul\":1584:1602   */\n      0xffffffffffffffff\n        /* \"#utility.yul\":1576:1582   */\n      dup2\n        /* \"#utility.yul\":1573:1603   */\n      gt\n        /* \"#utility.yul\":1570:1687   */\n      iszero\n      tag_107\n      jumpi\n        /* \"#utility.yul\":1606:1685   */\n      tag_108\n      tag_105\n      jump\t// in\n    tag_108:\n        /* \"#utility.yul\":1570:1687   */\n    tag_107:\n        /* \"#utility.yul\":1711:1774   */\n      tag_109\n        /* \"#utility.yul\":1766:1773   */\n      dup7\n        /* \"#utility.yul\":1757:1763   */\n      dup3\n        /* \"#utility.yul\":1746:1755   */\n      dup8\n        /* \"#utility.yul\":1742:1764   */\n      add\n        /* \"#utility.yul\":1711:1774   */\n      tag_89\n      jump\t// in\n    tag_109:\n        /* \"#utility.yul\":1701:1774   */\n      swap3\n      pop\n        /* \"#utility.yul\":1496:1784   */\n      pop\n        /* \"#utility.yul\":1851:1853   */\n      0x40\n        /* \"#utility.yul\":1840:1849   */\n      dup5\n        /* \"#utility.yul\":1836:1854   */\n      add\n        /* \"#utility.yul\":1823:1855   */\n      calldataload\n        /* \"#utility.yul\":1882:1900   */\n      0xffffffffffffffff\n        /* \"#utility.yul\":1874:1880   */\n      dup2\n        /* \"#utility.yul\":1871:1901   */\n      gt\n        /* \"#utility.yul\":1868:1985   */\n      iszero\n      tag_110\n      jumpi\n        /* \"#utility.yul\":1904:1983   */\n      tag_111\n      tag_105\n      jump\t// in\n    tag_111:\n        /* \"#utility.yul\":1868:1985   */\n    tag_110:\n        /* \"#utility.yul\":2009:2072   */\n      tag_112\n        /* \"#utility.yul\":2064:2071   */\n      dup7\n        /* \"#utility.yul\":2055:2061   */\n      dup3\n        /* \"#utility.yul\":2044:2053   */\n      dup8\n        /* \"#utility.yul\":2040:2062   */\n      add\n        /* \"#utility.yul\":2009:2072   */\n      tag_89\n      jump\t// in\n    tag_112:\n        /* \"#utility.yul\":1999:2072   */\n      swap2\n      pop\n        /* \"#utility.yul\":1794:2082   */\n      pop\n        /* \"#utility.yul\":930:2089   */\n      swap3\n      pop\n      swap3\n      pop\n      swap3\n      jump\t// out\n        /* \"#utility.yul\":2095:2424   */\n    tag_9:\n        /* \"#utility.yul\":2154:2160   */\n      0x00\n        /* \"#utility.yul\":2203:2205   */\n      0x20\n        /* \"#utility.yul\":2191:2200   */\n      dup3\n        /* \"#utility.yul\":2182:2189   */\n      dup5\n        /* \"#utility.yul\":2178:2201   */\n      sub\n        /* \"#utility.yul\":2174:2206   */\n      slt\n        /* \"#utility.yul\":2171:2290   */\n      iszero\n      tag_114\n      jumpi\n        /* \"#utility.yul\":2209:2288   */\n      tag_115\n      tag_102\n      jump\t// in\n    tag_115:\n        /* \"#utility.yul\":2171:2290   */\n    tag_114:\n        /* \"#utility.yul\":2329:2330   */\n      0x00\n        /* \"#utility.yul\":2354:2407   */\n      tag_116\n        /* \"#utility.yul\":2399:2406   */\n      dup5\n        /* \"#utility.yul\":2390:2396   */\n      dup3\n        /* \"#utility.yul\":2379:2388   */\n      dup6\n        /* \"#utility.yul\":2375:2397   */\n      add\n        /* \"#utility.yul\":2354:2407   */\n      tag_95\n      jump\t// in\n    tag_116:\n        /* \"#utility.yul\":2344:2407   */\n      swap2\n      pop\n        /* \"#utility.yul\":2300:2417   */\n      pop\n        /* \"#utility.yul\":2095:2424   */\n      swap3\n      swap2\n      pop\n      pop\n      jump\t// out\n        /* \"#utility.yul\":2430:2794   */\n    tag_117:\n        /* \"#utility.yul\":2518:2521   */\n      0x00\n        /* \"#utility.yul\":2546:2585   */\n      tag_119\n        /* \"#utility.yul\":2579:2584   */\n      dup3\n        /* \"#utility.yul\":2546:2585   */\n      tag_120\n      jump\t// in\n    tag_119:\n        /* \"#utility.yul\":2601:2672   */\n      tag_121\n        /* \"#utility.yul\":2665:2671   */\n      dup2\n        /* \"#utility.yul\":2660:2663   */\n      dup6\n        /* \"#utility.yul\":2601:2672   */\n      tag_122\n      jump\t// in\n    tag_121:\n        /* \"#utility.yul\":2594:2672   */\n      swap4\n      pop\n        /* \"#utility.yul\":2681:2733   */\n      tag_123\n        /* \"#utility.yul\":2726:2732   */\n      dup2\n        /* \"#utility.yul\":2721:2724   */\n      dup6\n        /* \"#utility.yul\":2714:2718   */\n      0x20\n        /* \"#utility.yul\":2707:2712   */\n      dup7\n        /* \"#utility.yul\":2703:2719   */\n      add\n        /* \"#utility.yul\":2681:2733   */\n      tag_124\n      jump\t// in\n    tag_123:\n        /* \"#utility.yul\":2758:2787   */\n      tag_125\n        /* \"#utility.yul\":2780:2786   */\n      dup2\n        /* \"#utility.yul\":2758:2787   */\n      tag_126\n      jump\t// in\n    tag_125:\n        /* \"#utility.yul\":2753:2756   */\n      dup5\n        /* \"#utility.yul\":2749:2788   */\n      add\n        /* \"#utility.yul\":2742:2788   */\n      swap2\n      pop\n        /* \"#utility.yul\":2522:2794   */\n      pop\n        /* \"#utility.yul\":2430:2794   */\n      swap3\n      swap2\n      pop\n      pop\n      jump\t// out\n        /* \"#utility.yul\":2800:2918   */\n    tag_127:\n        /* \"#utility.yul\":2887:2911   */\n      tag_129\n        /* \"#utility.yul\":2905:2910   */\n      dup2\n        /* \"#utility.yul\":2887:2911   */\n      tag_130\n      jump\t// in\n    tag_129:\n        /* \"#utility.yul\":2882:2885   */\n      dup3\n        /* \"#utility.yul\":2875:2912   */\n      mstore\n        /* \"#utility.yul\":2800:2918   */\n      pop\n      pop\n      jump\t// out\n        /* \"#utility.yul\":2924:3146   */\n    tag_20:\n        /* \"#utility.yul\":3017:3021   */\n      0x00\n        /* \"#utility.yul\":3055:3057   */\n      0x20\n        /* \"#utility.yul\":3044:3053   */\n      dup3\n        /* \"#utility.yul\":3040:3058   */\n      add\n        /* \"#utility.yul\":3032:3058   */\n      swap1\n      pop\n        /* \"#utility.yul\":3068:3139   */\n      tag_132\n        /* \"#utility.yul\":3136:3137   */\n      0x00\n        /* \"#utility.yul\":3125:3134   */\n      dup4\n        /* \"#utility.yul\":3121:3138   */\n      add\n        /* \"#utility.yul\":3112:3118   */\n      dup5\n        /* \"#utility.yul\":3068:3139   */\n      tag_127\n      jump\t// in\n    tag_132:\n        /* \"#utility.yul\":2924:3146   */\n      swap3\n      swap2\n      pop\n      pop\n      jump\t// out\n        /* \"#utility.yul\":3152:3978   */\n    tag_12:\n        /* \"#utility.yul\":3389:3393   */\n      0x00\n        /* \"#utility.yul\":3427:3430   */\n      0x80\n        /* \"#utility.yul\":3416:3425   */\n      dup3\n        /* \"#utility.yul\":3412:3431   */\n      add\n        /* \"#utility.yul\":3404:3431   */\n      swap1\n      pop\n        /* \"#utility.yul\":3441:3512   */\n      tag_134\n        /* \"#utility.yul\":3509:3510   */\n      0x00\n        /* \"#utility.yul\":3498:3507   */\n      dup4\n        /* \"#utility.yul\":3494:3511   */\n      add\n        /* \"#utility.yul\":3485:3491   */\n      dup8\n        /* \"#utility.yul\":3441:3512   */\n      tag_127\n      jump\t// in\n    tag_134:\n        /* \"#utility.yul\":3559:3568   */\n      dup2\n        /* \"#utility.yul\":3553:3557   */\n      dup2\n        /* \"#utility.yul\":3549:3569   */\n      sub\n        /* \"#utility.yul\":3544:3546   */\n      0x20\n        /* \"#utility.yul\":3533:3542   */\n      dup4\n        /* \"#utility.yul\":3529:3547   */\n      add\n        /* \"#utility.yul\":3522:3570   */\n      mstore\n        /* \"#utility.yul\":3587:3665   */\n      tag_135\n        /* \"#utility.yul\":3660:3664   */\n      dup2\n        /* \"#utility.yul\":3651:3657   */\n      dup7\n        /* \"#utility.yul\":3587:3665   */\n      tag_117\n      jump\t// in\n    tag_135:\n        /* \"#utility.yul\":3579:3665   */\n      swap1\n      pop\n        /* \"#utility.yul\":3712:3721   */\n      dup2\n        /* \"#utility.yul\":3706:3710   */\n      dup2\n        /* \"#utility.yul\":3702:3722   */\n      sub\n        /* \"#utility.yul\":3697:3699   */\n      0x40\n        /* \"#utility.yul\":3686:3695   */\n      dup4\n        /* \"#utility.yul\":3682:3700   */\n      add\n        /* \"#utility.yul\":3675:3723   */\n      mstore\n        /* \"#utility.yul\":3740:3818   */\n      tag_136\n        /* \"#utility.yul\":3813:3817   */\n      dup2\n        /* \"#utility.yul\":3804:3810   */\n      dup6\n        /* \"#utility.yul\":3740:3818   */\n      tag_117\n      jump\t// in\n    tag_136:\n        /* \"#utility.yul\":3732:3818   */\n      swap1\n      pop\n        /* \"#utility.yul\":3865:3874   */\n      dup2\n        /* \"#utility.yul\":3859:3863   */\n      dup2\n        /* \"#utility.yul\":3855:3875   */\n      sub\n        /* \"#utility.yul\":3850:3852   */\n      0x60\n        /* \"#utility.yul\":3839:3848   */\n      dup4\n        /* \"#utility.yul\":3835:3853   */\n      add\n        /* \"#utility.yul\":3828:3876   */\n      mstore\n        /* \"#utility.yul\":3893:3971   */\n      tag_137\n        /* \"#utility.yul\":3966:3970   */\n      dup2\n        /* \"#utility.yul\":3957:3963   */\n      dup5\n        /* \"#utility.yul\":3893:3971   */\n      tag_117\n      jump\t// in\n    tag_137:\n        /* \"#utility.yul\":3885:3971   */\n      swap1\n      pop\n        /* \"#utility.yul\":3152:3978   */\n      swap6\n      swap5\n      pop\n      pop\n      pop\n      pop\n      pop\n      jump\t// out\n        /* \"#utility.yul\":3984:4113   */\n    tag_83:\n        /* \"#utility.yul\":4018:4024   */\n      0x00\n        /* \"#utility.yul\":4045:4065   */\n      tag_139\n      tag_140\n      jump\t// in\n    tag_139:\n        /* \"#utility.yul\":4035:4065   */\n      swap1\n      pop\n        /* \"#utility.yul\":4074:4107   */\n      tag_141\n        /* \"#utility.yul\":4102:4106   */\n      dup3\n        /* \"#utility.yul\":4094:4100   */\n      dup3\n        /* \"#utility.yul\":4074:4107   */\n      tag_142\n      jump\t// in\n    tag_141:\n        /* \"#utility.yul\":3984:4113   */\n      swap2\n      swap1\n      pop\n      jump\t// out\n        /* \"#utility.yul\":4119:4194   */\n    tag_140:\n        /* \"#utility.yul\":4152:4158   */\n      0x00\n        /* \"#utility.yul\":4185:4187   */\n      0x40\n        /* \"#utility.yul\":4179:4188   */\n      mload\n        /* \"#utility.yul\":4169:4188   */\n      swap1\n      pop\n        /* \"#utility.yul\":4119:4194   */\n      swap1\n      jump\t// out\n        /* \"#utility.yul\":4200:4508   */\n    tag_82:\n        /* \"#utility.yul\":4262:4266   */\n      0x00\n        /* \"#utility.yul\":4352:4370   */\n      0xffffffffffffffff\n        /* \"#utility.yul\":4344:4350   */\n      dup3\n        /* \"#utility.yul\":4341:4371   */\n      gt\n        /* \"#utility.yul\":4338:4394   */\n      iszero\n      tag_145\n      jumpi\n        /* \"#utility.yul\":4374:4392   */\n      tag_146\n      tag_147\n      jump\t// in\n    tag_146:\n        /* \"#utility.yul\":4338:4394   */\n    tag_145:\n        /* \"#utility.yul\":4412:4441   */\n      tag_148\n        /* \"#utility.yul\":4434:4440   */\n      dup3\n        /* \"#utility.yul\":4412:4441   */\n      tag_126\n      jump\t// in\n    tag_148:\n        /* \"#utility.yul\":4404:4441   */\n      swap1\n      pop\n        /* \"#utility.yul\":4496:4500   */\n      0x20\n        /* \"#utility.yul\":4490:4494   */\n      dup2\n        /* \"#utility.yul\":4486:4501   */\n      add\n        /* \"#utility.yul\":4478:4501   */\n      swap1\n      pop\n        /* \"#utility.yul\":4200:4508   */\n      swap2\n      swap1\n      pop\n      jump\t// out\n        /* \"#utility.yul\":4514:4613   */\n    tag_120:\n        /* \"#utility.yul\":4566:4572   */\n      0x00\n        /* \"#utility.yul\":4600:4605   */\n      dup2\n        /* \"#utility.yul\":4594:4606   */\n      mload\n        /* \"#utility.yul\":4584:4606   */\n      swap1\n      pop\n        /* \"#utility.yul\":4514:4613   */\n      swap2\n      swap1\n      pop\n      jump\t// out\n        /* \"#utility.yul\":4619:4788   */\n    tag_122:\n        /* \"#utility.yul\":4703:4714   */\n      0x00\n        /* \"#utility.yul\":4737:4743   */\n      dup3\n        /* \"#utility.yul\":4732:4735   */\n      dup3\n        /* \"#utility.yul\":4725:4744   */\n      mstore\n        /* \"#utility.yul\":4777:4781   */\n      0x20\n        /* \"#utility.yul\":4772:4775   */\n      dup3\n        /* \"#utility.yul\":4768:4782   */\n      add\n        /* \"#utility.yul\":4753:4782   */\n      swap1\n      pop\n        /* \"#utility.yul\":4619:4788   */\n      swap3\n      swap2\n      pop\n      pop\n      jump\t// out\n        /* \"#utility.yul\":4794:4985   */\n    tag_50:\n        /* \"#utility.yul\":4834:4838   */\n      0x00\n        /* \"#utility.yul\":4854:4874   */\n      tag_152\n        /* \"#utility.yul\":4872:4873   */\n      dup3\n        /* \"#utility.yul\":4854:4874   */\n      tag_130\n      jump\t// in\n    tag_152:\n        /* \"#utility.yul\":4849:4874   */\n      swap2\n      pop\n        /* \"#utility.yul\":4888:4908   */\n      tag_153\n        /* \"#utility.yul\":4906:4907   */\n      dup4\n        /* \"#utility.yul\":4888:4908   */\n      tag_130\n      jump\t// in\n    tag_153:\n        /* \"#utility.yul\":4883:4908   */\n      swap3\n      pop\n        /* \"#utility.yul\":4927:4928   */\n      dup3\n        /* \"#utility.yul\":4924:4925   */\n      dup3\n        /* \"#utility.yul\":4921:4929   */\n      lt\n        /* \"#utility.yul\":4918:4952   */\n      iszero\n      tag_154\n      jumpi\n        /* \"#utility.yul\":4932:4950   */\n      tag_155\n      tag_156\n      jump\t// in\n    tag_155:\n        /* \"#utility.yul\":4918:4952   */\n    tag_154:\n        /* \"#utility.yul\":4977:4978   */\n      dup3\n        /* \"#utility.yul\":4974:4975   */\n      dup3\n        /* \"#utility.yul\":4970:4979   */\n      sub\n        /* \"#utility.yul\":4962:4979   */\n      swap1\n      pop\n        /* \"#utility.yul\":4794:4985   */\n      swap3\n      swap2\n      pop\n      pop\n      jump\t// out\n        /* \"#utility.yul\":4991:5068   */\n    tag_130:\n        /* \"#utility.yul\":5028:5035   */\n      0x00\n        /* \"#utility.yul\":5057:5062   */\n      dup2\n        /* \"#utility.yul\":5046:5062   */\n      swap1\n      pop\n        /* \"#utility.yul\":4991:5068   */\n      swap2\n      swap1\n      pop\n      jump\t// out\n        /* \"#utility.yul\":5074:5228   */\n    tag_88:\n        /* \"#utility.yul\":5158:5164   */\n      dup3\n        /* \"#utility.yul\":5153:5156   */\n      dup2\n        /* \"#utility.yul\":5148:5151   */\n      dup4\n        /* \"#utility.yul\":5135:5165   */\n      calldatacopy\n        /* \"#utility.yul\":5220:5221   */\n      0x00\n        /* \"#utility.yul\":5211:5217   */\n      dup4\n        /* \"#utility.yul\":5206:5209   */\n      dup4\n        /* \"#utility.yul\":5202:5218   */\n      add\n        /* \"#utility.yul\":5195:5222   */\n      mstore\n        /* \"#utility.yul\":5074:5228   */\n      pop\n      pop\n      pop\n      jump\t// out\n        /* \"#utility.yul\":5234:5541   */\n    tag_124:\n        /* \"#utility.yul\":5302:5303   */\n      0x00\n        /* \"#utility.yul\":5312:5425   */\n    tag_160:\n        /* \"#utility.yul\":5326:5332   */\n      dup4\n        /* \"#utility.yul\":5323:5324   */\n      dup2\n        /* \"#utility.yul\":5320:5333   */\n      lt\n        /* \"#utility.yul\":5312:5425   */\n      iszero\n      tag_162\n      jumpi\n        /* \"#utility.yul\":5411:5412   */\n      dup1\n        /* \"#utility.yul\":5406:5409   */\n      dup3\n        /* \"#utility.yul\":5402:5413   */\n      add\n        /* \"#utility.yul\":5396:5414   */\n      mload\n        /* \"#utility.yul\":5392:5393   */\n      dup2\n        /* \"#utility.yul\":5387:5390   */\n      dup5\n        /* \"#utility.yul\":5383:5394   */\n      add\n        /* \"#utility.yul\":5376:5415   */\n      mstore\n        /* \"#utility.yul\":5348:5350   */\n      0x20\n        /* \"#utility.yul\":5345:5346   */\n      dup2\n        /* \"#utility.yul\":5341:5351   */\n      add\n        /* \"#utility.yul\":5336:5351   */\n      swap1\n      pop\n        /* \"#utility.yul\":5312:5425   */\n      jump(tag_160)\n    tag_162:\n        /* \"#utility.yul\":5443:5449   */\n      dup4\n        /* \"#utility.yul\":5440:5441   */\n      dup2\n        /* \"#utility.yul\":5437:5450   */\n      gt\n        /* \"#utility.yul\":5434:5535   */\n      iszero\n      tag_163\n      jumpi\n        /* \"#utility.yul\":5523:5524   */\n      0x00\n        /* \"#utility.yul\":5514:5520   */\n      dup5\n        /* \"#utility.yul\":5509:5512   */\n      dup5\n        /* \"#utility.yul\":5505:5521   */\n      add\n        /* \"#utility.yul\":5498:5525   */\n      mstore\n        /* \"#utility.yul\":5434:5535   */\n    tag_163:\n        /* \"#utility.yul\":5283:5541   */\n      pop\n        /* \"#utility.yul\":5234:5541   */\n      pop\n      pop\n      pop\n      jump\t// out\n        /* \"#utility.yul\":5547:5867   */\n    tag_26:\n        /* \"#utility.yul\":5591:5597   */\n      0x00\n        /* \"#utility.yul\":5628:5629   */\n      0x02\n        /* \"#utility.yul\":5622:5626   */\n      dup3\n        /* \"#utility.yul\":5618:5630   */\n      div\n        /* \"#utility.yul\":5608:5630   */\n      swap1\n      pop\n        /* \"#utility.yul\":5675:5676   */\n      0x01\n        /* \"#utility.yul\":5669:5673   */\n      dup3\n        /* \"#utility.yul\":5665:5677   */\n      and\n        /* \"#utility.yul\":5696:5714   */\n      dup1\n        /* \"#utility.yul\":5686:5767   */\n      tag_165\n      jumpi\n        /* \"#utility.yul\":5752:5756   */\n      0x7f\n        /* \"#utility.yul\":5744:5750   */\n      dup3\n        /* \"#utility.yul\":5740:5757   */\n      and\n        /* \"#utility.yul\":5730:5757   */\n      swap2\n      pop\n        /* \"#utility.yul\":5686:5767   */\n    tag_165:\n        /* \"#utility.yul\":5814:5816   */\n      0x20\n        /* \"#utility.yul\":5806:5812   */\n      dup3\n        /* \"#utility.yul\":5803:5817   */\n      lt\n        /* \"#utility.yul\":5783:5801   */\n      dup2\n        /* \"#utility.yul\":5780:5818   */\n      eq\n        /* \"#utility.yul\":5777:5861   */\n      iszero\n      tag_166\n      jumpi\n        /* \"#utility.yul\":5833:5851   */\n      tag_167\n      tag_168\n      jump\t// in\n    tag_167:\n        /* \"#utility.yul\":5777:5861   */\n    tag_166:\n        /* \"#utility.yul\":5598:5867   */\n      pop\n        /* \"#utility.yul\":5547:5867   */\n      swap2\n      swap1\n      pop\n      jump\t// out\n        /* \"#utility.yul\":5873:6154   */\n    tag_142:\n        /* \"#utility.yul\":5956:5983   */\n      tag_170\n        /* \"#utility.yul\":5978:5982   */\n      dup3\n        /* \"#utility.yul\":5956:5983   */\n      tag_126\n      jump\t// in\n    tag_170:\n        /* \"#utility.yul\":5948:5954   */\n      dup2\n        /* \"#utility.yul\":5944:5984   */\n      add\n        /* \"#utility.yul\":6086:6092   */\n      dup2\n        /* \"#utility.yul\":6074:6084   */\n      dup2\n        /* \"#utility.yul\":6071:6093   */\n      lt\n        /* \"#utility.yul\":6050:6068   */\n      0xffffffffffffffff\n        /* \"#utility.yul\":6038:6048   */\n      dup3\n        /* \"#utility.yul\":6035:6069   */\n      gt\n        /* \"#utility.yul\":6032:6094   */\n      or\n        /* \"#utility.yul\":6029:6117   */\n      iszero\n      tag_171\n      jumpi\n        /* \"#utility.yul\":6097:6115   */\n      tag_172\n      tag_147\n      jump\t// in\n    tag_172:\n        /* \"#utility.yul\":6029:6117   */\n    tag_171:\n        /* \"#utility.yul\":6137:6147   */\n      dup1\n        /* \"#utility.yul\":6133:6135   */\n      0x40\n        /* \"#utility.yul\":6126:6148   */\n      mstore\n        /* \"#utility.yul\":5916:6154   */\n      pop\n        /* \"#utility.yul\":5873:6154   */\n      pop\n      pop\n      jump\t// out\n        /* \"#utility.yul\":6160:6393   */\n    tag_47:\n        /* \"#utility.yul\":6199:6202   */\n      0x00\n        /* \"#utility.yul\":6222:6246   */\n      tag_174\n        /* \"#utility.yul\":6240:6245   */\n      dup3\n        /* \"#utility.yul\":6222:6246   */\n      tag_130\n      jump\t// in\n    tag_174:\n        /* \"#utility.yul\":6213:6246   */\n      swap2\n      pop\n        /* \"#utility.yul\":6268:6334   */\n      0xffffffffffffffffffffffffffffffffffffffffffffffffffffffffffffffff\n        /* \"#utility.yul\":6261:6266   */\n      dup3\n        /* \"#utility.yul\":6258:6335   */\n      eq\n        /* \"#utility.yul\":6255:6358   */\n      iszero\n      tag_175\n      jumpi\n        /* \"#utility.yul\":6338:6356   */\n      tag_176\n      tag_156\n      jump\t// in\n    tag_176:\n        /* \"#utility.yul\":6255:6358   */\n    tag_175:\n        /* \"#utility.yul\":6385:6386   */\n      0x01\n        /* \"#utility.yul\":6378:6383   */\n      dup3\n        /* \"#utility.yul\":6374:6387   */\n      add\n        /* \"#utility.yul\":6367:6387   */\n      swap1\n      pop\n        /* \"#utility.yul\":6160:6393   */\n      swap2\n      swap1\n      pop\n      jump\t// out\n        /* \"#utility.yul\":6399:6579   */\n    tag_156:\n        /* \"#utility.yul\":6447:6524   */\n      0x4e487b7100000000000000000000000000000000000000000000000000000000\n        /* \"#utility.yul\":6444:6445   */\n      0x00\n        /* \"#utility.yul\":6437:6525   */\n      mstore\n        /* \"#utility.yul\":6544:6548   */\n      0x11\n        /* \"#utility.yul\":6541:6542   */\n      0x04\n        /* \"#utility.yul\":6534:6549   */\n      mstore\n        /* \"#utility.yul\":6568:6572   */\n      0x24\n        /* \"#utility.yul\":6565:6566   */\n      0x00\n        /* \"#utility.yul\":6558:6573   */\n      revert\n        /* \"#utility.yul\":6585:6765   */\n    tag_168:\n        /* \"#utility.yul\":6633:6710   */\n      0x4e487b7100000000000000000000000000000000000000000000000000000000\n        /* \"#utility.yul\":6630:6631   */\n      0x00\n        /* \"#utility.yul\":6623:6711   */\n      mstore\n        /* \"#utility.yul\":6730:6734   */\n      0x22\n        /* \"#utility.yul\":6727:6728   */\n      0x04\n        /* \"#utility.yul\":6720:6735   */\n      mstore\n        /* \"#utility.yul\":6754:6758   */\n      0x24\n        /* \"#utility.yul\":6751:6752   */\n      0x00\n        /* \"#utility.yul\":6744:6759   */\n      revert\n        /* \"#utility.yul\":6771:6951   */\n    tag_147:\n        /* \"#utility.yul\":6819:6896   */\n      0x4e487b7100000000000000000000000000000000000000000000000000000000\n        /* \"#utility.yul\":6816:6817   */\n      0x00\n        /* \"#utility.yul\":6809:6897   */\n      mstore\n        /* \"#utility.yul\":6916:6920   */\n      0x41\n        /* \"#utility.yul\":6913:6914   */\n      0x04\n        /* \"#utility.yul\":6906:6921   */\n      mstore\n        /* \"#utility.yul\":6940:6944   */\n      0x24\n        /* \"#utility.yul\":6937:6938   */\n      0x00\n        /* \"#utility.yul\":6930:6945   */\n      revert\n        /* \"#utility.yul\":6957:7074   */\n    tag_93:\n        /* \"#utility.yul\":7066:7067   */\n      0x00\n        /* \"#utility.yul\":7063:7064   */\n      dup1\n        /* \"#utility.yul\":7056:7068   */\n      revert\n        /* \"#utility.yul\":7080:7197   */\n    tag_86:\n        /* \"#utility.yul\":7189:7190   */\n      0x00\n        /* \"#utility.yul\":7186:7187   */\n      dup1\n        /* \"#utility.yul\":7179:7191   */\n      revert\n        /* \"#utility.yul\":7203:7320   */\n    tag_105:\n        /* \"#utility.yul\":7312:7313   */\n      0x00\n        /* \"#utility.yul\":7309:7310   */\n      dup1\n        /* \"#utility.yul\":7302:7314   */\n      revert\n        /* \"#utility.yul\":7326:7443   */\n    tag_102:\n        /* \"#utility.yul\":7435:7436   */\n      0x00\n        /* \"#utility.yul\":7432:7433   */\n      dup1\n        /* \"#utility.yul\":7425:7437   */\n      revert\n        /* \"#utility.yul\":7449:7551   */\n    tag_126:\n        /* \"#utility.yul\":7490:7496   */\n      0x00\n        /* \"#utility.yul\":7541:7543   */\n      0x1f\n        /* \"#utility.yul\":7537:7544   */\n      not\n        /* \"#utility.yul\":7532:7534   */\n      0x1f\n        /* \"#utility.yul\":7525:7530   */\n      dup4\n        /* \"#utility.yul\":7521:7535   */\n      add\n        /* \"#utility.yul\":7517:7545   */\n      and\n        /* \"#utility.yul\":7507:7545   */\n      swap1\n      pop\n        /* \"#utility.yul\":7449:7551   */\n      swap2\n      swap1\n      pop\n      jump\t// out\n        /* \"#utility.yul\":7557:7679   */\n    tag_98:\n        /* \"#utility.yul\":7630:7654   */\n      tag_186\n        /* \"#utility.yul\":7648:7653   */\n      dup2\n        /* \"#utility.yul\":7630:7654   */\n      tag_130\n      jump\t// in\n    tag_186:\n        /* \"#utility.yul\":7623:7628   */\n      dup2\n        /* \"#utility.yul\":7620:7655   */\n      eq\n        /* \"#utility.yul\":7610:7673   */\n      tag_187\n      jumpi\n        /* \"#utility.yul\":7669:7670   */\n      0x00\n        /* \"#utility.yul\":7666:7667   */\n      dup1\n        /* \"#utility.yul\":7659:7671   */\n      revert\n        /* \"#utility.yul\":7610:7673   */\n    tag_187:\n        /* \"#utility.yul\":7557:7679   */\n      pop\n      jump\t// out\n\n    auxdata: 0xa26469706673582212208cb5dd4e1882e59e37038bb4ecc6ae7306a8478a959574e0789207a1f710c4a464736f6c63430008070033\n}\n",
				"bytecode": {
					"linkReferences": {},
					"object": "6080604052600160005534801561001557600080fd5b50610aef806100256000396000f3fe608060405234801561001057600080fd5b506004361061004c5760003560e01c806304d8e033146100515780635d28560a146100845780636a8aac7a146100a05780639507d39a146100be575b600080fd5b61006b60048036038101906100669190610768565b6100f1565b60405161007b94939291906107f8565b60405180910390f35b61009e600480360381019061009991906106c1565b6102b9565b005b6100a8610370565b6040516100b591906107dd565b60405180910390f35b6100d860048036038101906100d39190610768565b610386565b6040516100e894939291906107f8565b60405180910390f35b600160205280600052604060002060009150905080600001549080600101805461011a90610944565b80601f016020809104026020016040519081016040528092919081815260200182805461014690610944565b80156101935780601f1061016857610100808354040283529160200191610193565b820191906000526020600020905b81548152906001019060200180831161017657829003601f168201915b5050505050908060020180546101a890610944565b80601f01602080910402602001604051908101604052809291908181526020018280546101d490610944565b80156102215780601f106101f657610100808354040283529160200191610221565b820191906000526020600020905b81548152906001019060200180831161020457829003601f168201915b50505050509080600301805461023690610944565b80601f016020809104026020016040519081016040528092919081815260200182805461026290610944565b80156102af5780601f10610284576101008083540402835291602001916102af565b820191906000526020600020905b81548152906001019060200180831161029257829003601f168201915b5050505050905084565b60405180608001604052806000548152602001848152602001838152602001828152506001600080548152602001908152602001600020600082015181600001556020820151816001019080519060200190610316929190610599565b506040820151816002019080519060200190610333929190610599565b506060820151816003019080519060200190610350929190610599565b50905050600080815480929190610366906109a7565b9190505550505050565b6000600160005461038191906108c4565b905090565b6000606080606060016000868152602001908152602001600020600001546001600087815260200190815260200160002060010160016000888152602001908152602001600020600201600160008981526020019081526020016000206003018280546103f290610944565b80601f016020809104026020016040519081016040528092919081815260200182805461041e90610944565b801561046b5780601f106104405761010080835404028352916020019161046b565b820191906000526020600020905b81548152906001019060200180831161044e57829003601f168201915b5050505050925081805461047e90610944565b80601f01602080910402602001604051908101604052809291908181526020018280546104aa90610944565b80156104f75780601f106104cc576101008083540402835291602001916104f7565b820191906000526020600020905b8154815290600101906020018083116104da57829003601f168201915b5050505050915080805461050a90610944565b80601f016020809104026020016040519081016040528092919081815260200182805461053690610944565b80156105835780601f1061055857610100808354040283529160200191610583565b820191906000526020600020905b81548152906001019060200180831161056657829003601f168201915b5050505050905093509350935093509193509193565b8280546105a590610944565b90600052602060002090601f0160209004810192826105c7576000855561060e565b82601f106105e057805160ff191683800117855561060e565b8280016001018555821561060e579182015b8281111561060d5782518255916020019190600101906105f2565b5b50905061061b919061061f565b5090565b5b80821115610638576000816000905550600101610620565b5090565b600061064f61064a84610877565b610852565b90508281526020810184848401111561066b5761066a610a82565b5b610676848285610902565b509392505050565b600082601f83011261069357610692610a7d565b5b81356106a384826020860161063c565b91505092915050565b6000813590506106bb81610aa2565b92915050565b6000806000606084860312156106da576106d9610a8c565b5b600084013567ffffffffffffffff8111156106f8576106f7610a87565b5b6107048682870161067e565b935050602084013567ffffffffffffffff81111561072557610724610a87565b5b6107318682870161067e565b925050604084013567ffffffffffffffff81111561075257610751610a87565b5b61075e8682870161067e565b9150509250925092565b60006020828403121561077e5761077d610a8c565b5b600061078c848285016106ac565b91505092915050565b60006107a0826108a8565b6107aa81856108b3565b93506107ba818560208601610911565b6107c381610a91565b840191505092915050565b6107d7816108f8565b82525050565b60006020820190506107f260008301846107ce565b92915050565b600060808201905061080d60008301876107ce565b818103602083015261081f8186610795565b905081810360408301526108338185610795565b905081810360608301526108478184610795565b905095945050505050565b600061085c61086d565b90506108688282610976565b919050565b6000604051905090565b600067ffffffffffffffff82111561089257610891610a4e565b5b61089b82610a91565b9050602081019050919050565b600081519050919050565b600082825260208201905092915050565b60006108cf826108f8565b91506108da836108f8565b9250828210156108ed576108ec6109f0565b5b828203905092915050565b6000819050919050565b82818337600083830152505050565b60005b8381101561092f578082015181840152602081019050610914565b8381111561093e576000848401525b50505050565b6000600282049050600182168061095c57607f821691505b602082108114156109705761096f610a1f565b5b50919050565b61097f82610a91565b810181811067ffffffffffffffff8211171561099e5761099d610a4e565b5b80604052505050565b60006109b2826108f8565b91507fffffffffffffffffffffffffffffffffffffffffffffffffffffffffffffffff8214156109e5576109e46109f0565b5b600182019050919050565b7f4e487b7100000000000000000000000000000000000000000000000000000000600052601160045260246000fd5b7f4e487b7100000000000000000000000000000000000000000000000000000000600052602260045260246000fd5b7f4e487b7100000000000000000000000000000000000000000000000000000000600052604160045260246000fd5b600080fd5b600080fd5b600080fd5b600080fd5b6000601f19601f8301169050919050565b610aab816108f8565b8114610ab657600080fd5b5056fea26469706673582212208cb5dd4e1882e59e37038bb4ecc6ae7306a8478a959574e0789207a1f710c4a464736f6c63430008070033",
					"opcodes": "PUSH1 0x80 PUSH1 0x40 MSTORE PUSH1 0x1 PUSH1 0x0 SSTORE CALLVALUE DUP1 ISZERO PUSH2 0x15 JUMPI PUSH1 0x0 DUP1 REVERT JUMPDEST POP PUSH2 0xAEF DUP1 PUSH2 0x25 PUSH1 0x0 CODECOPY PUSH1 0x0 RETURN INVALID PUSH1 0x80 PUSH1 0x40 MSTORE CALLVALUE DUP1 ISZERO PUSH2 0x10 JUMPI PUSH1 0x0 DUP1 REVERT JUMPDEST POP PUSH1 0x4 CALLDATASIZE LT PUSH2 0x4C JUMPI PUSH1 0x0 CALLDATALOAD PUSH1 0xE0 SHR DUP1 PUSH4 0x4D8E033 EQ PUSH2 0x51 JUMPI DUP1 PUSH4 0x5D28560A EQ PUSH2 0x84 JUMPI DUP1 PUSH4 0x6A8AAC7A EQ PUSH2 0xA0 JUMPI DUP1 PUSH4 0x9507D39A EQ PUSH2 0xBE JUMPI JUMPDEST PUSH1 0x0 DUP1 REVERT JUMPDEST PUSH2 0x6B PUSH1 0x4 DUP1 CALLDATASIZE SUB DUP2 ADD SWAP1 PUSH2 0x66 SWAP2 SWAP1 PUSH2 0x768 JUMP JUMPDEST PUSH2 0xF1 JUMP JUMPDEST PUSH1 0x40 MLOAD PUSH2 0x7B SWAP5 SWAP4 SWAP3 SWAP2 SWAP1 PUSH2 0x7F8 JUMP JUMPDEST PUSH1 0x40 MLOAD DUP1 SWAP2 SUB SWAP1 RETURN JUMPDEST PUSH2 0x9E PUSH1 0x4 DUP1 CALLDATASIZE SUB DUP2 ADD SWAP1 PUSH2 0x99 SWAP2 SWAP1 PUSH2 0x6C1 JUMP JUMPDEST PUSH2 0x2B9 JUMP JUMPDEST STOP JUMPDEST PUSH2 0xA8 PUSH2 0x370 JUMP JUMPDEST PUSH1 0x40 MLOAD PUSH2 0xB5 SWAP2 SWAP1 PUSH2 0x7DD JUMP JUMPDEST PUSH1 0x40 MLOAD DUP1 SWAP2 SUB SWAP1 RETURN JUMPDEST PUSH2 0xD8 PUSH1 0x4 DUP1 CALLDATASIZE SUB DUP2 ADD SWAP1 PUSH2 0xD3 SWAP2 SWAP1 PUSH2 0x768 JUMP JUMPDEST PUSH2 0x386 JUMP JUMPDEST PUSH1 0x40 MLOAD PUSH2 0xE8 SWAP5 SWAP4 SWAP3 SWAP2 SWAP1 PUSH2 0x7F8 JUMP JUMPDEST PUSH1 0x40 MLOAD DUP1 SWAP2 SUB SWAP1 RETURN JUMPDEST PUSH1 0x1 PUSH1 0x20 MSTORE DUP1 PUSH1 0x0 MSTORE PUSH1 0x40 PUSH1 0x0 KECCAK256 PUSH1 0x0 SWAP2 POP SWAP1 POP DUP1 PUSH1 0x0 ADD SLOAD SWAP1 DUP1 PUSH1 0x1 ADD DUP1 SLOAD PUSH2 0x11A SWAP1 PUSH2 0x944 JUMP JUMPDEST DUP1 PUSH1 0x1F ADD PUSH1 0x20 DUP1 SWAP2 DIV MUL PUSH1 0x20 ADD PUSH1 0x40 MLOAD SWAP1 DUP2 ADD PUSH1 0x40 MSTORE DUP1 SWAP3 SWAP2 SWAP1 DUP2 DUP2 MSTORE PUSH1 0x20 ADD DUP3 DUP1 SLOAD PUSH2 0x146 SWAP1 PUSH2 0x944 JUMP JUMPDEST DUP1 ISZERO PUSH2 0x193 JUMPI DUP1 PUSH1 0x1F LT PUSH2 0x168 JUMPI PUSH2 0x100 DUP1 DUP4 SLOAD DIV MUL DUP4 MSTORE SWAP2 PUSH1 0x20 ADD SWAP2 PUSH2 0x193 JUMP JUMPDEST DUP3 ADD SWAP2 SWAP1 PUSH1 0x0 MSTORE PUSH1 0x20 PUSH1 0x0 KECCAK256 SWAP1 JUMPDEST DUP2 SLOAD DUP2 MSTORE SWAP1 PUSH1 0x1 ADD SWAP1 PUSH1 0x20 ADD DUP1 DUP4 GT PUSH2 0x176 JUMPI DUP3 SWAP1 SUB PUSH1 0x1F AND DUP3 ADD SWAP2 JUMPDEST POP POP POP POP POP SWAP1 DUP1 PUSH1 0x2 ADD DUP1 SLOAD PUSH2 0x1A8 SWAP1 PUSH2 0x944 JUMP JUMPDEST DUP1 PUSH1 0x1F ADD PUSH1 0x20 DUP1 SWAP2 DIV MUL PUSH1 0x20 ADD PUSH1 0x40 MLOAD SWAP1 DUP2 ADD PUSH1 0x40 MSTORE DUP1 SWAP3 SWAP2 SWAP1 DUP2 DUP2 MSTORE PUSH1 0x20 ADD DUP3 DUP1 SLOAD PUSH2 0x1D4 SWAP1 PUSH2 0x944 JUMP JUMPDEST DUP1 ISZERO PUSH2 0x221 JUMPI DUP1 PUSH1 0x1F LT PUSH2 0x1F6 JUMPI PUSH2 0x100 DUP1 DUP4 SLOAD DIV MUL DUP4 MSTORE SWAP2 PUSH1 0x20 ADD SWAP2 PUSH2 0x221 JUMP JUMPDEST DUP3 ADD SWAP2 SWAP1 PUSH1 0x0 MSTORE PUSH1 0x20 PUSH1 0x0 KECCAK256 SWAP1 JUMPDEST DUP2 SLOAD DUP2 MSTORE SWAP1 PUSH1 0x1 ADD SWAP1 PUSH1 0x20 ADD DUP1 DUP4 GT PUSH2 0x204 JUMPI DUP3 SWAP1 SUB PUSH1 0x1F AND DUP3 ADD SWAP2 JUMPDEST POP POP POP POP POP SWAP1 DUP1 PUSH1 0x3 ADD DUP1 SLOAD PUSH2 0x236 SWAP1 PUSH2 0x944 JUMP JUMPDEST DUP1 PUSH1 0x1F ADD PUSH1 0x20 DUP1 SWAP2 DIV MUL PUSH1 0x20 ADD PUSH1 0x40 MLOAD SWAP1 DUP2 ADD PUSH1 0x40 MSTORE DUP1 SWAP3 SWAP2 SWAP1 DUP2 DUP2 MSTORE PUSH1 0x20 ADD DUP3 DUP1 SLOAD PUSH2 0x262 SWAP1 PUSH2 0x944 JUMP JUMPDEST DUP1 ISZERO PUSH2 0x2AF JUMPI DUP1 PUSH1 0x1F LT PUSH2 0x284 JUMPI PUSH2 0x100 DUP1 DUP4 SLOAD DIV MUL DUP4 MSTORE SWAP2 PUSH1 0x20 ADD SWAP2 PUSH2 0x2AF JUMP JUMPDEST DUP3 ADD SWAP2 SWAP1 PUSH1 0x0 MSTORE PUSH1 0x20 PUSH1 0x0 KECCAK256 SWAP1 JUMPDEST DUP2 SLOAD DUP2 MSTORE SWAP1 PUSH1 0x1 ADD SWAP1 PUSH1 0x20 ADD DUP1 DUP4 GT PUSH2 0x292 JUMPI DUP3 SWAP1 SUB PUSH1 0x1F AND DUP3 ADD SWAP2 JUMPDEST POP POP POP POP POP SWAP1 POP DUP5 JUMP JUMPDEST PUSH1 0x40 MLOAD DUP1 PUSH1 0x80 ADD PUSH1 0x40 MSTORE DUP1 PUSH1 0x0 SLOAD DUP2 MSTORE PUSH1 0x20 ADD DUP5 DUP2 MSTORE PUSH1 0x20 ADD DUP4 DUP2 MSTORE PUSH1 0x20 ADD DUP3 DUP2 MSTORE POP PUSH1 0x1 PUSH1 0x0 DUP1 SLOAD DUP2 MSTORE PUSH1 0x20 ADD SWAP1 DUP2 MSTORE PUSH1 0x20 ADD PUSH1 0x0 KECCAK256 PUSH1 0x0 DUP3 ADD MLOAD DUP2 PUSH1 0x0 ADD SSTORE PUSH1 0x20 DUP3 ADD MLOAD DUP2 PUSH1 0x1 ADD SWAP1 DUP1 MLOAD SWAP1 PUSH1 0x20 ADD SWAP1 PUSH2 0x316 SWAP3 SWAP2 SWAP1 PUSH2 0x599 JUMP JUMPDEST POP PUSH1 0x40 DUP3 ADD MLOAD DUP2 PUSH1 0x2 ADD SWAP1 DUP1 MLOAD SWAP1 PUSH1 0x20 ADD SWAP1 PUSH2 0x333 SWAP3 SWAP2 SWAP1 PUSH2 0x599 JUMP JUMPDEST POP PUSH1 0x60 DUP3 ADD MLOAD DUP2 PUSH1 0x3 ADD SWAP1 DUP1 MLOAD SWAP1 PUSH1 0x20 ADD SWAP1 PUSH2 0x350 SWAP3 SWAP2 SWAP1 PUSH2 0x599 JUMP JUMPDEST POP SWAP1 POP POP PUSH1 0x0 DUP1 DUP2 SLOAD DUP1 SWAP3 SWAP2 SWAP1 PUSH2 0x366 SWAP1 PUSH2 0x9A7 JUMP JUMPDEST SWAP2 SWAP1 POP SSTORE POP POP POP POP JUMP JUMPDEST PUSH1 0x0 PUSH1 0x1 PUSH1 0x0 SLOAD PUSH2 0x381 SWAP2 SWAP1 PUSH2 0x8C4 JUMP JUMPDEST SWAP1 POP SWAP1 JUMP JUMPDEST PUSH1 0x0 PUSH1 0x60 DUP1 PUSH1 0x60 PUSH1 0x1 PUSH1 0x0 DUP7 DUP2 MSTORE PUSH1 0x20 ADD SWAP1 DUP2 MSTORE PUSH1 0x20 ADD PUSH1 0x0 KECCAK256 PUSH1 0x0 ADD SLOAD PUSH1 0x1 PUSH1 0x0 DUP8 DUP2 MSTORE PUSH1 0x20 ADD SWAP1 DUP2 MSTORE PUSH1 0x20 ADD PUSH1 0x0 KECCAK256 PUSH1 0x1 ADD PUSH1 0x1 PUSH1 0x0 DUP9 DUP2 MSTORE PUSH1 0x20 ADD SWAP1 DUP2 MSTORE PUSH1 0x20 ADD PUSH1 0x0 KECCAK256 PUSH1 0x2 ADD PUSH1 0x1 PUSH1 0x0 DUP10 DUP2 MSTORE PUSH1 0x20 ADD SWAP1 DUP2 MSTORE PUSH1 0x20 ADD PUSH1 0x0 KECCAK256 PUSH1 0x3 ADD DUP3 DUP1 SLOAD PUSH2 0x3F2 SWAP1 PUSH2 0x944 JUMP JUMPDEST DUP1 PUSH1 0x1F ADD PUSH1 0x20 DUP1 SWAP2 DIV MUL PUSH1 0x20 ADD PUSH1 0x40 MLOAD SWAP1 DUP2 ADD PUSH1 0x40 MSTORE DUP1 SWAP3 SWAP2 SWAP1 DUP2 DUP2 MSTORE PUSH1 0x20 ADD DUP3 DUP1 SLOAD PUSH2 0x41E SWAP1 PUSH2 0x944 JUMP JUMPDEST DUP1 ISZERO PUSH2 0x46B JUMPI DUP1 PUSH1 0x1F LT PUSH2 0x440 JUMPI PUSH2 0x100 DUP1 DUP4 SLOAD DIV MUL DUP4 MSTORE SWAP2 PUSH1 0x20 ADD SWAP2 PUSH2 0x46B JUMP JUMPDEST DUP3 ADD SWAP2 SWAP1 PUSH1 0x0 MSTORE PUSH1 0x20 PUSH1 0x0 KECCAK256 SWAP1 JUMPDEST DUP2 SLOAD DUP2 MSTORE SWAP1 PUSH1 0x1 ADD SWAP1 PUSH1 0x20 ADD DUP1 DUP4 GT PUSH2 0x44E JUMPI DUP3 SWAP1 SUB PUSH1 0x1F AND DUP3 ADD SWAP2 JUMPDEST POP POP POP POP POP SWAP3 POP DUP2 DUP1 SLOAD PUSH2 0x47E SWAP1 PUSH2 0x944 JUMP JUMPDEST DUP1 PUSH1 0x1F ADD PUSH1 0x20 DUP1 SWAP2 DIV MUL PUSH1 0x20 ADD PUSH1 0x40 MLOAD SWAP1 DUP2 ADD PUSH1 0x40 MSTORE DUP1 SWAP3 SWAP2 SWAP1 DUP2 DUP2 MSTORE PUSH1 0x20 ADD DUP3 DUP1 SLOAD PUSH2 0x4AA SWAP1 PUSH2 0x944 JUMP JUMPDEST DUP1 ISZERO PUSH2 0x4F7 JUMPI DUP1 PUSH1 0x1F LT PUSH2 0x4CC JUMPI PUSH2 0x100 DUP1 DUP4 SLOAD DIV MUL DUP4 MSTORE SWAP2 PUSH1 0x20 ADD SWAP2 PUSH2 0x4F7 JUMP JUMPDEST DUP3 ADD SWAP2 SWAP1 PUSH1 0x0 MSTORE PUSH1 0x20 PUSH1 0x0 KECCAK256 SWAP1 JUMPDEST DUP2 SLOAD DUP2 MSTORE SWAP1 PUSH1 0x1 ADD SWAP1 PUSH1 0x20 ADD DUP1 DUP4 GT PUSH2 0x4DA JUMPI DUP3 SWAP1 SUB PUSH1 0x1F AND DUP3 ADD SWAP2 JUMPDEST POP POP POP POP POP SWAP2 POP DUP1 DUP1 SLOAD PUSH2 0x50A SWAP1 PUSH2 0x944 JUMP JUMPDEST DUP1 PUSH1 0x1F ADD PUSH1 0x20 DUP1 SWAP2 DIV MUL PUSH1 0x20 ADD PUSH1 0x40 MLOAD SWAP1 DUP2 ADD PUSH1 0x40 MSTORE DUP1 SWAP3 SWAP2 SWAP1 DUP2 DUP2 MSTORE PUSH1 0x20 ADD DUP3 DUP1 SLOAD PUSH2 0x536 SWAP1 PUSH2 0x944 JUMP JUMPDEST DUP1 ISZERO PUSH2 0x583 JUMPI DUP1 PUSH1 0x1F LT PUSH2 0x558 JUMPI PUSH2 0x100 DUP1 DUP4 SLOAD DIV MUL DUP4 MSTORE SWAP2 PUSH1 0x20 ADD SWAP2 PUSH2 0x583 JUMP JUMPDEST DUP3 ADD SWAP2 SWAP1 PUSH1 0x0 MSTORE PUSH1 0x20 PUSH1 0x0 KECCAK256 SWAP1 JUMPDEST DUP2 SLOAD DUP2 MSTORE SWAP1 PUSH1 0x1 ADD SWAP1 PUSH1 0x20 ADD DUP1 DUP4 GT PUSH2 0x566 JUMPI DUP3 SWAP1 SUB PUSH1 0x1F AND DUP3 ADD SWAP2 JUMPDEST POP POP POP POP POP SWAP1 POP SWAP4 POP SWAP4 POP SWAP4 POP SWAP4 POP SWAP2 SWAP4 POP SWAP2 SWAP4 JUMP JUMPDEST DUP3 DUP1 SLOAD PUSH2 0x5A5 SWAP1 PUSH2 0x944 JUMP JUMPDEST SWAP1 PUSH1 0x0 MSTORE PUSH1 0x20 PUSH1 0x0 KECCAK256 SWAP1 PUSH1 0x1F ADD PUSH1 0x20 SWAP1 DIV DUP2 ADD SWAP3 DUP3 PUSH2 0x5C7 JUMPI PUSH1 0x0 DUP6 SSTORE PUSH2 0x60E JUMP JUMPDEST DUP3 PUSH1 0x1F LT PUSH2 0x5E0 JUMPI DUP1 MLOAD PUSH1 0xFF NOT AND DUP4 DUP1 ADD OR DUP6 SSTORE PUSH2 0x60E JUMP JUMPDEST DUP3 DUP1 ADD PUSH1 0x1 ADD DUP6 SSTORE DUP3 ISZERO PUSH2 0x60E JUMPI SWAP2 DUP3 ADD JUMPDEST DUP3 DUP2 GT ISZERO PUSH2 0x60D JUMPI DUP3 MLOAD DUP3 SSTORE SWAP2 PUSH1 0x20 ADD SWAP2 SWAP1 PUSH1 0x1 ADD SWAP1 PUSH2 0x5F2 JUMP JUMPDEST JUMPDEST POP SWAP1 POP PUSH2 0x61B SWAP2 SWAP1 PUSH2 0x61F JUMP JUMPDEST POP SWAP1 JUMP JUMPDEST JUMPDEST DUP1 DUP3 GT ISZERO PUSH2 0x638 JUMPI PUSH1 0x0 DUP2 PUSH1 0x0 SWAP1 SSTORE POP PUSH1 0x1 ADD PUSH2 0x620 JUMP JUMPDEST POP SWAP1 JUMP JUMPDEST PUSH1 0x0 PUSH2 0x64F PUSH2 0x64A DUP5 PUSH2 0x877 JUMP JUMPDEST PUSH2 0x852 JUMP JUMPDEST SWAP1 POP DUP3 DUP2 MSTORE PUSH1 0x20 DUP2 ADD DUP5 DUP5 DUP5 ADD GT ISZERO PUSH2 0x66B JUMPI PUSH2 0x66A PUSH2 0xA82 JUMP JUMPDEST JUMPDEST PUSH2 0x676 DUP5 DUP3 DUP6 PUSH2 0x902 JUMP JUMPDEST POP SWAP4 SWAP3 POP POP POP JUMP JUMPDEST PUSH1 0x0 DUP3 PUSH1 0x1F DUP4 ADD SLT PUSH2 0x693 JUMPI PUSH2 0x692 PUSH2 0xA7D JUMP JUMPDEST JUMPDEST DUP2 CALLDATALOAD PUSH2 0x6A3 DUP5 DUP3 PUSH1 0x20 DUP7 ADD PUSH2 0x63C JUMP JUMPDEST SWAP2 POP POP SWAP3 SWAP2 POP POP JUMP JUMPDEST PUSH1 0x0 DUP2 CALLDATALOAD SWAP1 POP PUSH2 0x6BB DUP2 PUSH2 0xAA2 JUMP JUMPDEST SWAP3 SWAP2 POP POP JUMP JUMPDEST PUSH1 0x0 DUP1 PUSH1 0x0 PUSH1 0x60 DUP5 DUP7 SUB SLT ISZERO PUSH2 0x6DA JUMPI PUSH2 0x6D9 PUSH2 0xA8C JUMP JUMPDEST JUMPDEST PUSH1 0x0 DUP5 ADD CALLDATALOAD PUSH8 0xFFFFFFFFFFFFFFFF DUP2 GT ISZERO PUSH2 0x6F8 JUMPI PUSH2 0x6F7 PUSH2 0xA87 JUMP JUMPDEST JUMPDEST PUSH2 0x704 DUP7 DUP3 DUP8 ADD PUSH2 0x67E JUMP JUMPDEST SWAP4 POP POP PUSH1 0x20 DUP5 ADD CALLDATALOAD PUSH8 0xFFFFFFFFFFFFFFFF DUP2 GT ISZERO PUSH2 0x725 JUMPI PUSH2 0x724 PUSH2 0xA87 JUMP JUMPDEST JUMPDEST PUSH2 0x731 DUP7 DUP3 DUP8 ADD PUSH2 0x67E JUMP JUMPDEST SWAP3 POP POP PUSH1 0x40 DUP5 ADD CALLDATALOAD PUSH8 0xFFFFFFFFFFFFFFFF DUP2 GT ISZERO PUSH2 0x752 JUMPI PUSH2 0x751 PUSH2 0xA87 JUMP JUMPDEST JUMPDEST PUSH2 0x75E DUP7 DUP3 DUP8 ADD PUSH2 0x67E JUMP JUMPDEST SWAP2 POP POP SWAP3 POP SWAP3 POP SWAP3 JUMP JUMPDEST PUSH1 0x0 PUSH1 0x20 DUP3 DUP5 SUB SLT ISZERO PUSH2 0x77E JUMPI PUSH2 0x77D PUSH2 0xA8C JUMP JUMPDEST JUMPDEST PUSH1 0x0 PUSH2 0x78C DUP5 DUP3 DUP6 ADD PUSH2 0x6AC JUMP JUMPDEST SWAP2 POP POP SWAP3 SWAP2 POP POP JUMP JUMPDEST PUSH1 0x0 PUSH2 0x7A0 DUP3 PUSH2 0x8A8 JUMP JUMPDEST PUSH2 0x7AA DUP2 DUP6 PUSH2 0x8B3 JUMP JUMPDEST SWAP4 POP PUSH2 0x7BA DUP2 DUP6 PUSH1 0x20 DUP7 ADD PUSH2 0x911 JUMP JUMPDEST PUSH2 0x7C3 DUP2 PUSH2 0xA91 JUMP JUMPDEST DUP5 ADD SWAP2 POP POP SWAP3 SWAP2 POP POP JUMP JUMPDEST PUSH2 0x7D7 DUP2 PUSH2 0x8F8 JUMP JUMPDEST DUP3 MSTORE POP POP JUMP JUMPDEST PUSH1 0x0 PUSH1 0x20 DUP3 ADD SWAP1 POP PUSH2 0x7F2 PUSH1 0x0 DUP4 ADD DUP5 PUSH2 0x7CE JUMP JUMPDEST SWAP3 SWAP2 POP POP JUMP JUMPDEST PUSH1 0x0 PUSH1 0x80 DUP3 ADD SWAP1 POP PUSH2 0x80D PUSH1 0x0 DUP4 ADD DUP8 PUSH2 0x7CE JUMP JUMPDEST DUP2 DUP2 SUB PUSH1 0x20 DUP4 ADD MSTORE PUSH2 0x81F DUP2 DUP7 PUSH2 0x795 JUMP JUMPDEST SWAP1 POP DUP2 DUP2 SUB PUSH1 0x40 DUP4 ADD MSTORE PUSH2 0x833 DUP2 DUP6 PUSH2 0x795 JUMP JUMPDEST SWAP1 POP DUP2 DUP2 SUB PUSH1 0x60 DUP4 ADD MSTORE PUSH2 0x847 DUP2 DUP5 PUSH2 0x795 JUMP JUMPDEST SWAP1 POP SWAP6 SWAP5 POP POP POP POP POP JUMP JUMPDEST PUSH1 0x0 PUSH2 0x85C PUSH2 0x86D JUMP JUMPDEST SWAP1 POP PUSH2 0x868 DUP3 DUP3 PUSH2 0x976 JUMP JUMPDEST SWAP2 SWAP1 POP JUMP JUMPDEST PUSH1 0x0 PUSH1 0x40 MLOAD SWAP1 POP SWAP1 JUMP JUMPDEST PUSH1 0x0 PUSH8 0xFFFFFFFFFFFFFFFF DUP3 GT ISZERO PUSH2 0x892 JUMPI PUSH2 0x891 PUSH2 0xA4E JUMP JUMPDEST JUMPDEST PUSH2 0x89B DUP3 PUSH2 0xA91 JUMP JUMPDEST SWAP1 POP PUSH1 0x20 DUP2 ADD SWAP1 POP SWAP2 SWAP1 POP JUMP JUMPDEST PUSH1 0x0 DUP2 MLOAD SWAP1 POP SWAP2 SWAP1 POP JUMP JUMPDEST PUSH1 0x0 DUP3 DUP3 MSTORE PUSH1 0x20 DUP3 ADD SWAP1 POP SWAP3 SWAP2 POP POP JUMP JUMPDEST PUSH1 0x0 PUSH2 0x8CF DUP3 PUSH2 0x8F8 JUMP JUMPDEST SWAP2 POP PUSH2 0x8DA DUP4 PUSH2 0x8F8 JUMP JUMPDEST SWAP3 POP DUP3 DUP3 LT ISZERO PUSH2 0x8ED JUMPI PUSH2 0x8EC PUSH2 0x9F0 JUMP JUMPDEST JUMPDEST DUP3 DUP3 SUB SWAP1 POP SWAP3 SWAP2 POP POP JUMP JUMPDEST PUSH1 0x0 DUP2 SWAP1 POP SWAP2 SWAP1 POP JUMP JUMPDEST DUP3 DUP2 DUP4 CALLDATACOPY PUSH1 0x0 DUP4 DUP4 ADD MSTORE POP POP POP JUMP JUMPDEST PUSH1 0x0 JUMPDEST DUP4 DUP2 LT ISZERO PUSH2 0x92F JUMPI DUP1 DUP3 ADD MLOAD DUP2 DUP5 ADD MSTORE PUSH1 0x20 DUP2 ADD SWAP1 POP PUSH2 0x914 JUMP JUMPDEST DUP4 DUP2 GT ISZERO PUSH2 0x93E JUMPI PUSH1 0x0 DUP5 DUP5 ADD MSTORE JUMPDEST POP POP POP POP JUMP JUMPDEST PUSH1 0x0 PUSH1 0x2 DUP3 DIV SWAP1 POP PUSH1 0x1 DUP3 AND DUP1 PUSH2 0x95C JUMPI PUSH1 0x7F DUP3 AND SWAP2 POP JUMPDEST PUSH1 0x20 DUP3 LT DUP2 EQ ISZERO PUSH2 0x970 JUMPI PUSH2 0x96F PUSH2 0xA1F JUMP JUMPDEST JUMPDEST POP SWAP2 SWAP1 POP JUMP JUMPDEST PUSH2 0x97F DUP3 PUSH2 0xA91 JUMP JUMPDEST DUP2 ADD DUP2 DUP2 LT PUSH8 0xFFFFFFFFFFFFFFFF DUP3 GT OR ISZERO PUSH2 0x99E JUMPI PUSH2 0x99D PUSH2 0xA4E JUMP JUMPDEST JUMPDEST DUP1 PUSH1 0x40 MSTORE POP POP POP JUMP JUMPDEST PUSH1 0x0 PUSH2 0x9B2 DUP3 PUSH2 0x8F8 JUMP JUMPDEST SWAP2 POP PUSH32 0xFFFFFFFFFFFFFFFFFFFFFFFFFFFFFFFFFFFFFFFFFFFFFFFFFFFFFFFFFFFFFFFF DUP3 EQ ISZERO PUSH2 0x9E5 JUMPI PUSH2 0x9E4 PUSH2 0x9F0 JUMP JUMPDEST JUMPDEST PUSH1 0x1 DUP3 ADD SWAP1 POP SWAP2 SWAP1 POP JUMP JUMPDEST PUSH32 0x4E487B7100000000000000000000000000000000000000000000000000000000 PUSH1 0x0 MSTORE PUSH1 0x11 PUSH1 0x4 MSTORE PUSH1 0x24 PUSH1 0x0 REVERT JUMPDEST PUSH32 0x4E487B7100000000000000000000000000000000000000000000000000000000 PUSH1 0x0 MSTORE PUSH1 0x22 PUSH1 0x4 MSTORE PUSH1 0x24 PUSH1 0x0 REVERT JUMPDEST PUSH32 0x4E487B7100000000000000000000000000000000000000000000000000000000 PUSH1 0x0 MSTORE PUSH1 0x41 PUSH1 0x4 MSTORE PUSH1 0x24 PUSH1 0x0 REVERT JUMPDEST PUSH1 0x0 DUP1 REVERT JUMPDEST PUSH1 0x0 DUP1 REVERT JUMPDEST PUSH1 0x0 DUP1 REVERT JUMPDEST PUSH1 0x0 DUP1 REVERT JUMPDEST PUSH1 0x0 PUSH1 0x1F NOT PUSH1 0x1F DUP4 ADD AND SWAP1 POP SWAP2 SWAP1 POP JUMP JUMPDEST PUSH2 0xAAB DUP2 PUSH2 0x8F8 JUMP JUMPDEST DUP2 EQ PUSH2 0xAB6 JUMPI PUSH1 0x0 DUP1 REVERT JUMPDEST POP JUMP INVALID LOG2 PUSH5 0x6970667358 0x22 SLT KECCAK256 DUP13 0xB5 0xDD 0x4E XOR DUP3 0xE5 SWAP15 CALLDATACOPY SUB DUP12 0xB4 0xEC 0xC6 0xAE PUSH20 0x6A8478A959574E0789207A1F710C4A464736F6C PUSH4 0x43000807 STOP CALLER "
				},
				"gasEstimates": {
					"creation": {
						"codeDepositCost": "559800",
						"executionCost": "22700",
						"totalCost": "582500"
					},
					"external": {
						"Review_mapping(uint256)": "infinite",
						"create(string,string,string)": "infinite",
						"get(uint256)": "infinite",
						"getIdx()": "infinite"
					}
				},
				"methodIdentifiers": {
					"Review_mapping(uint256)": "04d8e033",
					"create(string,string,string)": "5d28560a",
					"get(uint256)": "9507d39a",
					"getIdx()": "6a8aac7a"
				}
			},
			"userdoc": {
				"kind": "user",
				"methods": {},
				"version": 1
			}
		}
	}
}